:100000000C945A010C948B010C948B010C948B0171
:100010000C948B010C948B010C948B010C948B0130
:100020000C948B010C948B010C948B010C948B0120
:100030000C948B010C948B010C948B010C948B0110
:100040000C948B010C948B010C948B010C948B0100
:100050000C948B010C948B010C948B010C949C08D8
:100060000C948B010C9410090C94E6080C948B01F1
:100070000C948B010C948B010C948B010C948B01D0
:100080000C948B010C948B010C948B010C948B01C0
:100090000C948B010C948B010C948B010C948B01B0
:1000A0000C948B010C948B010C948B010C948B01A0
:1000B0000C948B010C948B010C948B010C948B0190
:1000C0000C948B010C948B010C948B010C948B0180
:1000D0000C948B010C948B010C948B010C948B0170
:1000E0000C948B010C94D9010C944A050C94CF0507
:1000F0000C9400020C94B3030C942C0D0C94280562
:100100000C9444030C940A020C9472030C942B0379
:100110000C94E5010C9413020C948B090C94DD01F2
:100120000C9456030C94EC040C94D3010C94F2013F
:100130000C9468030C94EE010C948B030C940E0247
:100140000C949F030C9482050C9414020C94F801F7
:100150000C947C030C9495030C9418020C94A90342
:100160000C945E030C944E030C94FC010C9430032D
:100170000C94BD030C943C050C9419050C94E801F7
:100180000C94E1010C9423030C943A030C940602A2
:1001900000002100240027002A002D003000330039
:1001A00001010000040107010A01000022002500EE
:1001B00028002B002E003100340002010000050150
:1001C00008010B01000020002300260029002C005C
:1001D0002F0032000001000003010601090105059E
:1001E0000505070508080808020202020A0A0808AD
:1001F00004040404010101010101010103030303DB
:1002000003030303040707070C0C0C0C0C0C0C0C69
:100210000202020206060606060606060B0B0B0B7A
:100220000B0B0B0B0102102020080810204010209F
:1002300040800201020108040201010204081020AA
:1002400040808040201008040201800402018040A8
:100250002010080402010804020101020408102011
:100260004080010204081020408000000A0B0209AF
:100270000C0D0E0807030401000000000000000040
:10028000000000000000000000000000000000006E
:10029000000000000000121110000000000000002B
:1002A000000000000000000000000000000000004E
:1002B0008B092C0D11241FBECFEFD1E2DEBFCDBFC5
:1002C00000E00CBF12E0A0E0B2E0ECE5F4E200E0F8
:1002D0000BBF02C007900D92A834B107D9F723E0F5
:1002E000A8E4B2E001C01D92A931B207E1F711E024
:1002F000C9E5D1E000E006C021970109802FFE0189
:100300000E94EE0DC835D10780E00807A9F70E94CA
:10031000CD090C941C120C940000E0E7F2E0A089D7
:10032000B18982E08C93A485B5851C92A685B7859A
:100330008FEC8C93108EA489B58986E08C93A2896A
:10034000B3898C9180618C93A289B3898C918860E8
:100350008C93A289B3898C9180688C930288F389ED
:10036000E02D80818F7D808308958150823108F057
:100370005AC0E82FF0E08827EF53FE4F8F4F0C94C0
:10038000EE0DE101E501D301D901DD011302E80120
:10039000EE01F201F801FC01000206020A0213025A
:1003A0000E0214021802809180008F7780938000E3
:1003B0000895809180008F7DF9CF80918000877FA4
:1003C000F5CF84B58F7784BD089584B58F7DFBCF3D
:1003D0008091B0008F778093B00008958091B00035
:1003E0008F7DF9CF809190008F7780939000089552
:1003F000809190008F7DF9CF80919000877FF5CF1D
:100400008091A0008F778093A00008958091A00034
:100410008F7DF9CF8091A000877FF5CF809120015B
:100420008F77809320010895809120018F7DF9CFEF
:1004300080912001877FF5CFCF93DF93282F30E085
:10044000F901E659FD4F8491F901EC5DFD4FD4911E
:10045000F901E252FE4FC491CC23A1F081110E9418
:10046000B501EC2FF0E0EE0FFF1FEC53FE4FA5910E
:10047000B491EC91ED2381E090E009F480E0DF910C
:10048000CF91089580E090E0FACF1F93CF93DF9350
:10049000282F30E0F901E659FD4F8491F901EC5D18
:1004A000FD4FD491F901E252FE4FC491CC23A9F043
:1004B000162F81110E94B501EC2FF0E0EE0FFF1F07
:1004C000E655FE4FA591B4918FB7F894EC911111B8
:1004D00008C0D095DE23DC938FBFDF91CF911F91B1
:1004E0000895DE2BF8CF1F93CF93DF93C82F162FDD
:1004F000882339F0809115028230A9F5D0E0C1300F
:10050000A1F4809113028F3F59F00E941C020197C1
:1005100039F460E0809113020E944502D1E001C0ED
:10052000D0E0809115028230D1F4CD7FC1F480916A
:1005300014028F3FA1F00E941C02019781F460E039
:10054000809114020E944502112369F080911602E5
:10055000882369F08BEB92E10197F1F704C0112336
:1005600011F0D111F3CFDF91CF911F9108958BE15D
:1005700093E0F2CFCF93DF9390E0FC01EC5DFD4F71
:10058000249182529E4FFC0184918823D1F090E007
:10059000880F991FFC01E057FE4FA591B491FC0113
:1005A000E655FE4FC591D49161110EC09FB7F894E6
:1005B0008C91E22FE0958E238C932881E223E883AF
:1005C0009FBFDF91CF9108958FB7F894EC91E22B04
:1005D000EC938FBFF6CF1F93CF93DF93182FEB01D0
:1005E00061E00E94BA02209739F460E0812FDF9128
:1005F000CF911F910C944502CF3FD10511F461E0DA
:10060000F5CFE12FF0E0E659FD4FE491E150E23102
:1006100008F0B3C0F0E08827EF5EFC4F8F4F0C94DA
:10062000EE0D23032B0330033A034403BD034E03B3
:1006300056035E03680372037C038B039503BD03BB
:100640009F03A903B30384B5806884BDC7BDDF9150
:10065000CF911F91089584B5806284BDC8BDF7CF46
:1006600080918000806880938000D0938900C0933F
:100670008800EDCF80918000806280938000D093CD
:100680008B00C0938A00E3CF8091800088608093C4
:100690008000D0938D00C0938C00D9CF8091B000A2
:1006A00080688093B000C093B300D1CF8091B00038
:1006B00080628093B000C093B400C9CF8091900055
:1006C000806880939000D0939900C0939800BFCF2A
:1006D00080919000806280939000D0939B00C093A3
:1006E0009A00B5CF80919000886080939000D0935D
:1006F0009D00C0939C00ABCF8091A0008068809348
:10070000A0008091A0008F7B8093A000D093A900CF
:10071000C093A8009CCF8091A00080628093A0002D
:10072000D093AB00C093AA0092CF8091A0008860C4
:100730008093A000D093AD00C093AC0088CF80918F
:100740002001806880932001D0932901C093280163
:100750007ECF80912001806280932001D0932B0175
:10076000C0932A0174CF809120018860809320017A
:10077000D0932D01C0932C016ACFC038D1050CF065
:100780003ECF33CF3FB7F89480916C0290916D02C9
:10079000A0916E02B0916F0226B5A89B05C02F3FB5
:1007A00019F00196A11DB11D3FBFBA2FA92F982F97
:1007B0008827BC01CD01620F711D811D911D42E092
:1007C000660F771F881F991F4A95D1F708957F926A
:1007D0008F929F92AF92BF92CF92DF92EF92FF9251
:1007E0000F931F93CF93DF938C01C62FD42F2091AB
:1007F0000B0230910C022115310539F080910A026B
:10080000813089F0823009F482C0DF91CF911F914D
:100810000F91FF90EF90DF90CF90BF90AF909F909F
:100820008F907F900895F62E80910D02F81618F59E
:10083000CF2CD12C8091100290911102F601EE0F75
:10084000FF1FE00FF11F91838083E0910B02F09175
:100850000C02EC0DFD1D61E080810E94BA02E09166
:100860000B02F0910C02EC0DFD1D61E080810E94F5
:100870004502FD0ED9CF83E290E00197F1F7F8949D
:100880000E94C2034B01FC2E80910D02F81660F409
:10089000E0910B02F0910C02EF0DF11D60E0808100
:1008A0000E94BA02FD0EF0CF7894D12CC12C809119
:1008B000100290911102C816D90608F0A6CFF8943C
:1008C0000E94C2036B01C818D9087C2E80910D02CA
:1008D0007816D8F4E72CF12CE0910B02F0910C0281
:1008E000EE0DFF1D80810E941C02892B61F4EE0C2D
:1008F000FF1CF801EE0DFF1D80819181C816D906FD
:1009000010F4D182C0827D0EE1CF7894D0CF862FB3
:1009100090910D02891750F4E82FF0E0EE0FFF1FC1
:10092000E00FF11F118210828D0FF2CF40E0809115
:1009300012024817B0F59C2F80910D02981778F598
:10094000E92FF0E0D901AE0FBF1F8C91863308F07C
:10095000865360917B00582F5870677F562B5093B9
:100960007B008770806480937C0080917A00806433
:1009700080937A0080917A0086FDFCCFA091780068
:1009800060917900EE0FFF1FE00FF11FB62F60811D
:1009900071816A0F7B1F718360839D0FCDCF4F5F85
:1009A000C6CF80910D02C81708F02FCFEC2FF0E0D2
:1009B000EE0FFF1FE00FF11F6091120270E0CB01FC
:1009C0009595879520813181820F931F0E94C60DD6
:1009D00071836083CD0FE5CFAF92BF92CF92DF924C
:1009E000EF92FF920F931F93CF93DF936C017B01E4
:1009F0008B01040F151FEB015E01AE18BF08C01775
:100A0000D10759F06991D601ED91FC910190F081E7
:100A1000E02DC6011995892B79F7C501DF91CF919A
:100A20001F910F91FF90EF90DF90CF90BF90AF900C
:100A30000895FC01538D448D252F30E0842F90E0E4
:100A4000821B930B541710F0CF96089501970895C9
:100A5000FC01918D828D981761F0A28DAE0FBF2F92
:100A6000B11D5D968C91928D9F5F9F73928F90E0E8
:100A700008958FEF9FEF0895FC01918D828D981757
:100A800031F0828DE80FF11D858D90E008958FEF94
:100A90009FEF0895FC01918D228D892F90E0805C5D
:100AA0009F4F821B91098F739927089580E792E0E9
:100AB0000E944A0521E0892B09F420E0822F089545
:100AC000FC01A48DA80FB92FB11DA35ABF4F2C91C3
:100AD000848D90E001968F739927848FA689B789BA
:100AE0002C93A089B1898C91837080648C93938DB1
:100AF000848D981306C00288F389E02D80818F7D54
:100B000080830895EF92FF920F931F93CF93DF930B
:100B1000EC0181E0888F9B8D8C8D98131AC0E88939
:100B2000F989808185FF15C09FB7F894EE89FF8908
:100B30006083E889F98980818370806480839FBFA6
:100B400081E090E0DF91CF911F910F91FF90EF90A6
:100B50000895F62E0B8D10E00F5F1F4F0F731127B6
:100B6000E02E8C8D8E110CC00FB607FCFACFE889F1
:100B7000F989808185FFF5CFCE010E946005F1CF14
:100B8000EB8DEC0FFD2FF11DE35AFF4FF0829FB765
:100B9000F8940B8FEA89FB8980818062CFCFCF9355
:100BA000DF93EC01888D8823B9F0AA89BB89E88995
:100BB000F9898C9185FD03C0808186FD0DC00FB63B
:100BC00007FCF7CF8C9185FFF2CF808185FFEDCFB9
:100BD000CE010E946005E9CFDF91CF91089580E0BA
:100BE00090E0892B29F00E94560581110E94000097
:100BF00080E090E0892B49F080E090E0892B29F09B
:100C00000E94000081110E94000080E090E0892B8A
:100C100049F080E090E0892B29F00E9400008111CA
:100C20000E94000080E090E0892B49F080E090E095
:100C3000892B29F00E94000081110C940000089576
:100C4000CF92DF92EF92FF92CF93DF93C82F8091E4
:100C50001602882369F08C2F0E941C02019741F430
:100C600060E08C2F0E9445028BEB92E10197F1F737
:100C700061E08C2F0E9445020E94C2036B018091AB
:100C800016028823A9F080911702882389F0F8942E
:100C9000D0E080911702D81750F460E08C2F0E94AA
:100CA000450261E08C2F0E944502DF5FF2CF78940D
:100CB000C601DF91CF91FF90EF90DF90CF90089524
:100CC0000F931F93CF93DF93C82F882359F18091FF
:100CD0001502823029F1D0E0809115028230D1F5E1
:100CE000CD7FC1F5809114028F3FA1F19091160242
:100CF000992361F1809114020E9420068C01809159
:100D00001602882371F1C3E2D0E00E94C203601B87
:100D1000710B6C32714000F5CE010197F1F7F5CF00
:100D2000C130C9F6809113028F3FA9F2909116024B
:100D3000992339F0809113020E9420068C01D1E0A2
:100D4000CBCF0E941C02892BA9F3C5CF0E941C02A5
:100D5000892B81F2D111D3CFDF91CF911F910F91C8
:100D600008958BE193E00197F1F7F6CFFC01019034
:100D70000020E9F73197AF01481B590BBC0180E710
:100D800092E00C94EC048F929F92AF92BF920F93DB
:100D90001F93CF93DF93CDB7DEB7A1970FB6F8942B
:100DA000DEBF0FBECDBF19A2423008F44AE08E016B
:100DB0000F5D1F4F842E912CB12CA12CA501940105
:100DC0000E94950DE62FB901CA01EA30F4F4E05D06
:100DD000D801EE938D01232B242B252B79F790E05E
:100DE00080E0109719F0CD010E94B606A1960FB6CB
:100DF000F894DEBF0FBECDBFDF91CF911F910F9151
:100E0000BF90AF909F908F900895E95CE1CFCF9213
:100E1000DF92EF92FF92CF93DF936B017C016DE243
:100E200080E792E00E948205EC0166277727CB01DC
:100E30006C197D098E099F094AE00E94C3068C0F38
:100E40009D1FDF91CF91FF90EF90DF90CF9008959D
:100E50008F929F92AF92BF92CF92DF92EF92FF92CA
:100E60000F931F93CF93DF93CDB7DEB7C85FD10940
:100E70000FB6F894DEBF0FBECDBF8C01D62EDC01BD
:100E80008C91811157C01396ED90FC9060910D02EA
:100E900070E0660F771FC7010E943211F80194833A
:100EA0008383892BB9F4C7010E94A910C850DF4F72
:100EB0000FB6F894DEBF0FBECDBFDF91CF911F916B
:100EC0000F91FF90EF90DF90CF90BF90AF909F90E9
:100ED0008F900895E180F28060910D0270E0660FBE
:100EE000771FC7010E943211AC01F8019283818300
:100EF00090E041155105B9F280910D029817B8F4B0
:100F0000292F30E0220F331FD8011396ED91FC9169
:100F1000E20FF31F11821082609110027091110292
:100F2000240F351FF901718360839F5FE5CF81E056
:100F3000D8018C93C12C43E2E42EF12CB1E0DB16F6
:100F400038F0E2E0ED15D0F5F3E0DF1609F46DC0FE
:100F500061E080E00E94730241E060E0CE018554D0
:100F60009F4F0E94E703A0900D024E018FE3880E71
:100F7000911CFE01E358FF4F9E0125543F4FB12CB9
:100F8000AF01AB1409F4A1C0D9018D919D919D01D0
:100F9000CC2009F492C0608171816817790708F448
:100FA0008CC0D4016D917C918617970708F489C095
:100FB000B394B2E08B0E911C3296E3CF80E00E9496
:100FC000600641E060E0CE0185549F4F0E94E70338
:100FD00061E080E00E947302A2E0DA12C4CF41E037
:100FE00060E0CE0101960E94E70370910D0220910E
:100FF000100230911102FE01E554FF4FDE011196FF
:1010000060E0761709F4AFCF4D915D9180819181B9
:10101000820F931F841B950B2817390708F44AC0C9
:10102000918380836F5F3296ECCF60E082E00E9414
:1010300073020E94C2034B0181E00E94600680910E
:101040001602882359F00E94C20368197909603B8F
:10105000744020F4C7010197F1F7F5CF42E060E05A
:10106000CE0185549F4F0E94E70360E081E00E941B
:1010700073020E94C2034B0182E00E9460068091CD
:101080001602882359F00E94C20368197909603B4F
:10109000744020F4C7010197F1F7F5CF42E061E019
:1010A000CE0185549F4F0E94E70361E080E00E94DB
:1010B000730259CF31832083B5CF91838083C110D0
:1010C00070CFD4018D939C9373CFC394EAE0CE127A
:1010D00035CF20E080910D02281708F0E7CE822F4F
:1010E00090E0880F991FE1E0F0E0EC0FFD1FE80FA2
:1010F000F91F66AD77ADD8011396ED91FC91E80F1D
:10110000F91FA081B181A617B70710F4718360831E
:10111000FA01E80FF91F60817181D8011196ED91F4
:10112000FC91E80FF91F808191816817790710F40D
:10113000718360832F5FCECF1F920F920FB60F92F5
:1011400011242F933F938F939F93AF93BF938091DD
:10115000680290916902A0916A02B0916B0230918D
:10116000670223E0230F2D3758F50196A11DB11D0D
:10117000209367028093680290936902A0936A02A9
:10118000B0936B0280916C0290916D02A0916E02FF
:10119000B0916F020196A11DB11D80936C029093D6
:1011A0006D02A0936E02B0936F02BF91AF919F91B9
:1011B0008F913F912F910F900FBE0F901F90189518
:1011C00026E8230F0296A11DB11DD2CF1F920F92C8
:1011D0000FB60F9211240BB60F922F933F934F939C
:1011E0005F936F937F938F939F93AF93BF93EF938F
:1011F000FF9380E792E00E946005FF91EF91BF911D
:10120000AF919F918F917F916F915F914F913F919E
:101210002F910F900BBE0F900FBE0F901F9018953F
:101220001F920F920FB60F9211240BB60F922F93AD
:101230008F939F93EF93FF93E0918002F09181024F
:101240008081E0918602F091870282FD1DC090812D
:10125000809189028F5F8F7320918A02821741F0FB
:10126000E0918902F0E0E059FD4F958F809389026B
:10127000FF91EF919F918F912F910F900BBE0F9047
:101280000FBE0F901F9018958081F2CFCF92DF9202
:10129000EF92FF920F931F93E82FF92F05C0015093
:1012A00011092109310961F1908196239417B9F34D
:1012B00005C0015011092109310911F190819623CE
:1012C0009413F7CFC12CD12CE12CF12C0AC08FEF55
:1012D000C81AD80AE80AF80A0C151D052E053F059C
:1012E00079F080818623841791F36C2D7D2D8E2DCE
:1012F0009F2D1F910F91FF90EF90DF90CF90089559
:1013000060E070E080E090E01F910F91FF90EF901F
:10131000DF90CF900895E0E7F2E01382128288EE2A
:1013200093E0A0E0B0E084839583A683B78384E252
:1013300092E09183808385EC90E09587848784ECAC
:1013400090E09787868780EC90E0918B808B81EC92
:1013500090E0938B828B82EC90E0958B848B86EC73
:1013600090E0978B868B118E128E138E148EEDE08B
:10137000F3E086E1808387E1818380E991E09383D4
:101380008283148215821682178261E086E10E94B0
:10139000BA0260E087E10C94BA02789484B5826066
:1013A00084BD84B5816084BD85B5826085BD85B509
:1013B000816085BD80916E00816080936E00109287
:1013C0008100809181008260809381008091810002
:1013D0008160809381008091800081608093800093
:1013E0008091B10084608093B1008091B0008160F1
:1013F0008093B000809191008260809391008091F1
:101400009100816080939100809190008160809331
:1014100090008091A10082608093A1008091A10042
:1014200081608093A1008091A00081608093A000E2
:10143000809121018260809321018091210181604E
:10144000809321018091200181608093200180910F
:101450007A00846080937A0080917A008260809321
:101460007A0080917A00816080937A0080917A007E
:10147000806880937A001092C1000E948D0161E023
:1014800087E00E94BA0261E089E00E94BA0261E04E
:1014900086E00E94BA0261E088E00E94BA020E94DF
:1014A0008D0182E080930A028FEF93E09093110206
:1014B00080931002C0910B02D0910C0263E070E0A7
:1014C000CE010E943211FC0190930C0280930B021A
:1014D000892B09F4B9C086E3808387E3818388E39D
:1014E000828383E080930D02109200021092050225
:1014F0000E94C2034B015C0124EFC22EDD24D39471
:10150000E12CF12C0E94C203681979098A099B0910
:10151000683E734081059105A8F321E0C21AD10805
:10152000E108F10838EE830E33E0931EA11CB11CD4
:10153000C114D104E104F10429F761E08DE00E94B7
:10154000BA0261E08DE00E944502C0E9D1E061E0AD
:1015500080E092E00E9428072197C9F760E08DE0C3
:101560000E94450282E392E00E94B60682E492E085
:101570000E94B6060E948D0161E087E00E94BA02D7
:1015800061E089E00E94BA0261E086E00E94BA024E
:1015900061E088E00E94BA0261E086E10E94BA023E
:1015A00060E087E10E94BA020E948D019AE5292E2F
:1015B000312C80910002882309F44AC080E00E9407
:1015C000600641E060E08CE492E00E94E70361E0A5
:1015D00080E00E94730200910D02CCE4D2E0C09042
:1015E0000302D0900402E0900102F090020210E0A9
:1015F000011771F1D601ED91FD916D01D7018D912A
:101600009D917D01E81BF90BC9F02881398150E0DB
:1016100040E0281B390B41095109A8EEB3E00E94B4
:101620008A0D9F0150E040E00E946B0D293EB3E01F
:101630003B0714F028EE33E037FF02C030E020E033
:10164000299339931F5FD4CFCE010E94A91050CFA8
:10165000E0910D020CE412E0F12CE12CF0E050E0FE
:1016600040E0812C912C5401D12CEF17E9F0D801E6
:10167000CD91DD918D01C93CD10598F4C333D105DD
:1016800050F09E01D7010E94F60D860E971EA81EEF
:10169000B91E4C0F5D1FFF5FB8E1EB1ABCEFFB0AF0
:1016A000E4CFDD24D394EDCFD1100BC1E150FF0B7B
:1016B00024EF31E0E29FC001E39F900DF29F900D77
:1016C000112420911802309119022817390708F4C3
:1016D00005C148EE53E0E49FC001E59F900DF49FE3
:1016E000900D11249C01A4EBB0E00E94B70D20EDF9
:1016F00037E040E050E00E946B0DC22F209366025D
:101700008BEA820F8B3008F0ECC081E380934A02B1
:1017100080934B020E94C2036B017C0180915A02AC
:1017200090915B02A0915C02B0915D02A7019601CD
:10173000281B390B4A0B5B0BCA01B9010E94140F1D
:1017400020E034E244E759E40E946A0E4B015C0158
:10175000C0925A02D0925B02E0925C02F0925D026B
:10176000B1016C1B7109072E000C880B990B0E94AC
:10177000140F6B017C012091560230915702409169
:101780005802509159020E94FD0DA50194010E943A
:101790006A0E2B013C01A7019601C501B4010E940C
:1017A000A00F209152023091530240915402509167
:1017B00055020E94FE0D4B015C01809252029092F4
:1017C0005302A0925402B09255022DEC3CEC4CE432
:1017D0005DE3C301B2010E94A00FA70196010E9420
:1017E000FE0D2B013C0120E030E0A901C501B40150
:1017F0000E94A00F9B01AC01C301B2010E94FE0D2B
:1018000060935E0270935F02809360029093610226
:10181000C0925602D0925702E0925802F0925902BA
:101820004AE060E070E0CB010E94C30685E492E0EC
:101830000E94B60660915E0270915F028091600224
:10184000909161020E94DC0E9B01AC01265A3F4F31
:101850004F4F5F4FA0EAB0E00E948A0D24EB30E0CA
:1018600040E050E00E946B0DBA01A90140555109BA
:10187000610971097A01942F852F4135510514F0C2
:1018800090E580E0C92FD82FC03B4FEFD40714F468
:10189000C0EBDFEFBE010D2E000C880B990BF7FE9D
:1018A0003BC00E94070757EEE5165FEFF506C4F14F
:1018B000CA5DD0E08AE1E816F104C4F5C2E3D2E3E0
:1018C00035C09A0150E040E0C501B4010E94950D79
:1018D000C901309319022093180204CF90E080E0F0
:1018E00001CF26EA2C0F56E42502C001112427FF60
:1018F0000AC066EA7FEF0E94DA0D6A5B60934B02D2
:1019000010924A0207CFB1010E94DA0D6A5B609320
:101910004A0210924B02FECE4AE00E94C306C8CF94
:10192000D195C195D109DC2FDA5DC0E060E087E098
:101930000E94450260E089E00E9445026D2F70E040
:1019400086E00E94EB026C2F70E088E00E94EB02C0
:101950002FB7F8948091680290916902A0916A0271
:10196000B0916B022FBF9093650280936402845FF5
:10197000914020916202309163022817390708F0E4
:1019800060C060E080910D030E94450283E090E01A
:101990000197F1F761E080910D030E94450283E217
:1019A00090E00197F1F760E080910D030E944502FD
:1019B00060910F037091100390E080E00E94120F7D
:1019C00020E030E040E250E40E94A00F2AE23EE72F
:1019D0004CE05DE30E946A0E0E94E30E8B019C01C5
:1019E0008091110390911203A0911303B0911403FD
:1019F0000097A105B10539F080179107A207B30739
:101A000010F48C019D0180910E0390E0FC01EC5DCF
:101A1000FD4F6491FC01E252FE4FE491F0E0EE0FC5
:101A2000FF1FEC53FE4F859194913F70462F0E940B
:101A300046098091640290916502909363028093BD
:101A4000620284E492E00E94B60682E492E00E9480
:101A5000B6060E94EF05ADCD809113028F3F31F0A5
:101A600060E00E94BA028FEF80931302809114020B
:101A70008F3F31F060E00E94BA028FEF8093140232
:101A80001092150280910B0290910C02009711F0B8
:101A90000E94A9108091030290910402009711F016
:101AA0000E94A9108091080290910902009711F0FC
:101AB0000E94A9108091010290910202009711F0FA
:101AC0000E94A9108091060290910702009711F0E0
:101AD0000C94A9100895052E97FB1EF400940E9403
:101AE000820D57FD07D00E94950D07FC03D04EF4E0
:101AF0000C94820D50954095309521953F4F4F4F56
:101B00005F4F089590958095709561957F4F8F4FA9
:101B10009F4F08950E94B70DA59F900DB49F900D03
:101B2000A49F800D911D11240895A1E21A2EAA1BD5
:101B3000BB1BFD010DC0AA1FBB1FEE1FFF1FA2177D
:101B4000B307E407F50720F0A21BB30BE40BF50B7A
:101B5000661F771F881F991F1A9469F76095709503
:101B6000809590959B01AC01BD01CF010895A29F86
:101B7000B001B39FC001A39F700D811D1124911D61
:101B8000B29F700D811D1124911D0895AA1BBB1BCE
:101B900051E107C0AA1FBB1FA617B70710F0A61B6D
:101BA000B70B881F991F5A95A9F780959095BC018E
:101BB000CD01089597FB072E16F4009407D077FD0A
:101BC00009D00E94C60D07FC05D03EF49095819582
:101BD0009F4F0895709561957F4F0895EE0FFF1FF9
:101BE000881F8BBF0790F691E02D19940E94B70DC6
:101BF000B7FF0895821B930B08955058BB27AA275F
:101C00000E94150E0C94660F0E94580F38F00E9427
:101C10005F0F20F039F49F3F19F426F40C94550F10
:101C20000EF4E095E7FB0C944F0FE92F0E94770F1D
:101C300058F3BA17620773078407950720F079F401
:101C4000A6F50C94990F0EF4E0950B2EBA2FA02D4B
:101C50000B01B90190010C01CA01A0011124FF2759
:101C6000591B99F0593F50F4503E68F11A16F04054
:101C7000A22F232F342F4427585FF3CF4695379553
:101C80002795A795F0405395C9F77EF41F16BA0B18
:101C9000620B730B840BBAF09150A1F0FF0FBB1FC6
:101CA000661F771F881FC2F70EC0BA0F621F731F0F
:101CB000841F48F4879577956795B795F7959E3F6C
:101CC00008F0B0CF9395880F08F09927EE0F9795FD
:101CD000879508950E947E0E0C94660F0E945F0FF8
:101CE00058F00E94580F40F029F45F3F29F00C94FF
:101CF0004F0F51110C949A0F0C94550F0E94770FAF
:101D000068F39923B1F3552391F3951B550BBB272A
:101D1000AA2762177307840738F09F5F5F4F220F6F
:101D2000331F441FAA1FA9F335D00E2E3AF0E0E866
:101D300032D091505040E695001CCAF72BD0FE2FB0
:101D400029D0660F771F881FBB1F26173707480744
:101D5000AB07B0E809F0BB0B802DBF01FF279358FC
:101D60005F4F3AF09E3F510578F00C944F0F0C9462
:101D70009A0F5F3FE4F3983ED4F386957795679585
:101D8000B795F7959F5FC9F7880F911D9695879531
:101D900097F90895E1E0660F771F881FBB1F621750
:101DA00073078407BA0720F0621B730B840BBA0B0E
:101DB000EE1F88F7E09508950E94E30E6894B11134
:101DC0000C949A0F08950E947F0F88F09F5798F007
:101DD000B92F9927B751B0F0E1F0660F771F881F30
:101DE000991F1AF0BA95C9F714C0B13091F00E944A
:101DF000990FB1E008950C94990F672F782F8827D9
:101E0000B85F39F0B93FCCF3869577956795B39570
:101E1000D9F73EF490958095709561957F4F8F4FDF
:101E20009F4F0895E89409C097FB3EF490958095E4
:101E3000709561957F4F8F4F9F4F9923A9F0F92F90
:101E400096E9BB279395F695879577956795B7950E
:101E5000F111F8CFFAF4BB0F11F460FF1BC06F5FF4
:101E60007F4F8F4F9F4F16C0882311F096E911C006
:101E7000772321F09EE8872F762F05C0662371F027
:101E800096E8862F70E060E02AF09A95660F771F3B
:101E9000881FDAF7880F9695879597F9089597F92F
:101EA0009F6780E870E060E008959FEF80EC089500
:101EB00000240A9416161706180609060895002429
:101EC0000A9412161306140605060895092E0394A3
:101ED000000C11F4882352F0BB0F40F4BF2B11F417
:101EE00060FF04C06F5F7F4F8F4F9F4F089557FD76
:101EF0009058440F551F59F05F3F71F04795880F78
:101F000097FB991F61F09F3F79F08795089512160E
:101F100013061406551FF2CF4695F1DF08C01616BA
:101F200017061806991FF1CF86957105610508946B
:101F30000895E894BB2766277727CB0197F9089582
:101F40000E94B30F0C94660F0E94580F38F00E9445
:101F50005F0F20F0952311F00C944F0F0C94550F48
:101F600011240C949A0F0E94770F70F3959FC1F380
:101F7000950F50E0551F629FF001729FBB27F00D37
:101F8000B11D639FAA27F00DB11DAA1F649F66278C
:101F9000B00DA11D661F829F2227B00DA11D621FDB
:101FA000739FB00DA11D621F839FA00D611D221F95
:101FB000749F3327A00D611D231F849F600D211D79
:101FC000822F762F6A2F11249F5750409AF0F1F0FC
:101FD00088234AF0EE0FFF1FBB1F661F771F881F65
:101FE00091505040A9F79E3F510580F00C944F0F3F
:101FF0000C949A0F5F3FE4F3983ED4F3869577955F
:102000006795B795F795E7959F5FC1F7FE2B880F0A
:10201000911D9695879597F908950F931F93CF93E8
:10202000DF938230910510F482E090E0E091170395
:10203000F091180330E020E0B0E0A0E0309799F490
:102040002115310509F44AC0281B390B243031050C
:10205000D8F58A819B816115710589F1FB01938314
:102060008283FE0111C04081518102811381481792
:102070005907E0F04817590799F4109761F0129644
:102080000C93129713961C933296CF01DF91CF9148
:102090001F910F9108950093170310931803F4CF25
:1020A0002115310551F04217530738F0A901DB0122
:1020B0009A01BD01DF01F801C1CFEF01F9CF909383
:1020C000180380931703CDCFFE01E20FF31F819316
:1020D00091932250310939832883D7CF209115035A
:1020E00030911603232B41F420911C0230911D02E4
:1020F000309316032093150320911A0230911B028E
:102100002115310541F42DB73EB740911E02509183
:102110001F02241B350BE0911503F0911603E21703
:10212000F307A0F42E1B3F0B2817390778F0AC01FA
:102130004E5F5F4F2417350748F04E0F5F1F5093D7
:10214000160340931503819391939FCFF0E0E0E055
:102150009CCFCF93DF930097E9F0FC013297138275
:102160001282A0911703B0911803ED0130E020E036
:102170001097A1F420813181820F931F20911503C4
:10218000309116032817390709F061C0F093160340
:10219000E0931503DF91CF910895EA01CE17DF0791
:1021A000E8F54A815B819E0141155105B1F7E901CE
:1021B000FB83EA8349915991C40FD51FEC17FD07A2
:1021C00061F4808191810296840F951FE9019983C2
:1021D0008883828193819B838A83F0E0E0E012967A
:1021E0008D919C9113970097B9F52D913C91119782
:1021F000CD010296820F931F209115033091160393
:102200002817390739F6309751F5109218031092B4
:102210001703B0931603A0931503BCCFD383C283D7
:1022200040815181840F951FC817D90761F44E5F13
:102230005F4F88819981480F591F518340838A815C
:102240009B81938382832115310509F0B0CFF093F0
:102250001803E09317039ECFFD01DC01C0CF13826A
:102260001282D7CF4F925F926F927F928F929F92FE
:10227000AF92BF92CF92DF92EF92FF920F931F9394
:10228000CF93DF938C01009799F4CB01DF91CF912D
:102290001F910F91FF90EF90DF90CF90BF90AF9084
:1022A0009F908F907F906F905F904F900C940D1047
:1022B000FC01E60FF71F9C0122503109E217F307DA
:1022C00008F4AEC0D901CD91DC911197C617D7079C
:1022D00020F1C530D10578F0CE0104978617970715
:1022E00050F0C61BD70B2297C193D1936D937C936B
:1022F000CF010E94A910C801DF91CF911F910F91CA
:10230000FF90EF90DF90CF90BF90AF909F908F9015
:102310007F906F905F904F9008955B01AC1ABD0A5B
:102320004C018C0E9D1EA0911703B0911803512CE7
:10233000412CF12CE12C109731F5809115039091EF
:1023400016038815990509F05CC04616570608F073
:1023500058C080911A0290911B02009741F48DB7EA
:102360009EB740911E0250911F02841B950BE817E7
:10237000F90708F055C0F0931603E0931503F9012F
:1023800071836083B8CF8D919C91119712966C9058
:10239000129713967C901397A815B90559F56C01FF
:1023A00042E0C40ED11CCA14DB0420F1AC014A196E
:1023B0005B09DA011296159780F06282738251836D
:1023C0004083D9016D937C93E114F10471F0D7013E
:1023D0001396FC93EE9312978ECF22968C0F9D1F2F
:1023E000F90191838083F301EFCFF0931803E09319
:1023F000170381CF4816590608F42C017D01D3013B
:102400009ACFCB010E940D107C01009749F0AE01DC
:10241000B8010E941312C8010E94A91087016BCF56
:1024200010E000E068CFFB01DC0102C001900D92DA
:1024300041505040D8F7089511E0C9E5D1E000E0DF
:1024400006C0802FFE010E94EE0D2196011DCA35A7
:0C245000D10780E00807A9F7F894FFCF3F
:10245C000000000000000000000000000000C409A3
:10246C00C40904FFFF0001000000000019038000F4
:10247C00000000008205EC041905CF054A0528056B
:10248C003C0551545220536574757020446F6E6531
:08249C002E000D0A00200000D3
:00000001FF
