:100000000C945A010C948B010C948B010C948B0171
:100010000C948B010C948B010C948B010C948B0130
:100020000C948B010C948B010C948B010C948B0120
:100030000C948B010C948B010C948B010C948B0110
:100040000C948B010C948B010C948B010C948B0100
:100050000C948B010C948B010C948B010C94AD08C7
:100060000C948B010C9421090C94F7080C948B01CF
:100070000C948B010C948B010C948B010C948B01D0
:100080000C948B010C948B010C948B010C948B01C0
:100090000C948B010C948B010C948B010C948B01B0
:1000A0000C948B010C948B010C948B010C948B01A0
:1000B0000C948B010C948B010C948B010C948B0190
:1000C0000C948B010C948B010C948B010C948B0180
:1000D0000C948B010C948B010C948B010C948B0170
:1000E0000C948B010C94E5010C9430030C94B30335
:1000F0000C94F8010C9468030C94E1010C94DD015C
:100100000C94D3010C944B050C947C030C9457096C
:100110000C945A050C94BD030C940A020C948B03A6
:100120000C947C050C943A030C945E030C94950398
:100130000C94E8010C9401060C9456030C94720381
:100140000C9400020C943E0C0C94B4050C94230304
:100150000C941E050C94F2010C9406020C941802E7
:100160000C94D9010C94FC010C949F030C942B0368
:100170000C940E020C946E050C944E030C944403E4
:100180000C94A9030C94EE010C9413020C94140229
:1001900000002100240027002A002D003000330039
:1001A00001010000040107010A01000022002500EE
:1001B00028002B002E003100340002010000050150
:1001C00008010B01000020002300260029002C005C
:1001D0002F0032000001000003010601090105059E
:1001E0000505070508080808020202020A0A0808AD
:1001F00004040404010101010101010103030303DB
:1002000003030303040707070C0C0C0C0C0C0C0C69
:100210000202020206060606060606060B0B0B0B7A
:100220000B0B0B0B0102102020080810204010209F
:1002300040800201020108040201010204081020AA
:1002400040808040201008040201800402018040A8
:100250002010080402010804020101020408102011
:100260004080010204081020408000000A0B0209AF
:100270000C0D0E0807030401000000000000000040
:10028000000000000000000000000000000000006E
:10029000000000000000121110000000000000002B
:1002A000000000000000000000000000000000004E
:1002B00057093E0C11241FBECFEFD1E2DEBFCDBFE8
:1002C00000E00CBF12E0A0E0B2E0EEE8F1E200E0F6
:1002D0000BBF02C007900D92AC35B107D9F723E0F0
:1002E000ACE5B2E001C01D92A731B207E1F711E021
:1002F000C9E5D1E000E006C021970109802FFE0189
:100300000E94000DC835D10780E00807A9F70E94B8
:1003100099090C94B5100C940000EEE6F2E0A08967
:10032000B18982E08C93A485B5851C92A685B7859A
:100330008FEC8C93108EA489B58986E08C93A2896A
:10034000B3898C9180618C93A289B3898C918860E8
:100350008C93A289B3898C9180688C930288F389ED
:10036000E02D80818F7D808308958150823108F057
:100370005AC0E82FF0E08827EF53FE4F8F4F0C94C0
:10038000000DE101E501D301D901DD011302E8010E
:10039000EE01F201F801FC01000206020A0213025A
:1003A0000E0214021802809180008F7780938000E3
:1003B0000895809180008F7DF9CF80918000877FA4
:1003C000F5CF84B58F7784BD089584B58F7DFBCF3D
:1003D0008091B0008F778093B00008958091B00035
:1003E0008F7DF9CF809190008F7780939000089552
:1003F000809190008F7DF9CF80919000877FF5CF1D
:100400008091A0008F778093A00008958091A00034
:100410008F7DF9CF8091A000877FF5CF809120015B
:100420008F77809320010895809120018F7DF9CFEF
:1004300080912001877FF5CFCF93DF93282F30E085
:10044000F901E659FD4F8491F901EC5DFD4FD4911E
:10045000F901E252FE4FC491CC23A1F081110E9418
:10046000B501EC2FF0E0EE0FFF1FEC53FE4FA5910E
:10047000B491EC91ED2381E090E009F480E0DF910C
:10048000CF91089580E090E0FACF1F93CF93DF9350
:10049000282F30E0F901E659FD4F8491F901EC5D18
:1004A000FD4FD491F901E252FE4FC491CC23A9F043
:1004B000162F81110E94B501EC2FF0E0EE0FFF1F07
:1004C000E655FE4FA591B4918FB7F894EC911111B8
:1004D00008C0D095DE23DC938FBFDF91CF911F91B1
:1004E0000895DE2BF8CF1F93CF93DF93C82F162FDD
:1004F000882339F0809115028230A9F5D0E0C1300F
:10050000A1F4809113028F3F59F00E941C020197C1
:1005100039F460E0809113020E944502D1E001C0ED
:10052000D0E0809115028230D1F4CD7FC1F480916A
:1005300014028F3FA1F00E941C02019781F460E039
:10054000809114020E944502112369F080911602E5
:10055000882369F08BEB92E10197F1F704C0112336
:1005600011F0D111F3CFDF91CF911F9108958BE15D
:1005700093E0F2CFCF93DF9390E0FC01EC5DFD4F71
:10058000249182529E4FFC0184918823D1F090E007
:10059000880F991FFC01E057FE4FA591B491FC0113
:1005A000E655FE4FC591D49161110EC09FB7F894E6
:1005B0008C91E22FE0958E238C932881E223E883AF
:1005C0009FBFDF91CF9108958FB7F894EC91E22B04
:1005D000EC938FBFF6CF1F93CF93DF93182FEB01D0
:1005E00061E00E94BA02209739F460E0812FDF9128
:1005F000CF911F910C944502CF3FD10511F461E0DA
:10060000F5CFE12FF0E0E659FD4FE491E150E23102
:1006100008F0B3C0F0E08827EF5EFC4F8F4F0C94DA
:10062000000D23032B0330033A034403BD034E03A1
:1006300056035E03680372037C038B039503BD03BB
:100640009F03A903B30384B5806884BDC7BDDF9150
:10065000CF911F91089584B5806284BDC8BDF7CF46
:1006600080918000806880938000D0938900C0933F
:100670008800EDCF80918000806280938000D093CD
:100680008B00C0938A00E3CF8091800088608093C4
:100690008000D0938D00C0938C00D9CF8091B000A2
:1006A00080688093B000C093B300D1CF8091B00038
:1006B00080628093B000C093B400C9CF8091900055
:1006C000806880939000D0939900C0939800BFCF2A
:1006D00080919000806280939000D0939B00C093A3
:1006E0009A00B5CF80919000886080939000D0935D
:1006F0009D00C0939C00ABCF8091A0008068809348
:10070000A0008091A0008F7B8093A000D093A900CF
:10071000C093A8009CCF8091A00080628093A0002D
:10072000D093AB00C093AA0092CF8091A0008860C4
:100730008093A000D093AD00C093AC0088CF80918F
:100740002001806880932001D0932901C093280163
:100750007ECF80912001806280932001D0932B0175
:10076000C0932A0174CF809120018860809320017A
:10077000D0932D01C0932C016ACFC038D1050CF065
:100780003ECF33CF3FB7F89480916A0290916B02CD
:10079000A0916C02B0916D0226B5A89B05C02F3FB9
:1007A00019F00196A11DB11D3FBFBA2FA92F982F97
:1007B0008827BC01CD01620F711D811D911D42E092
:1007C000660F771F881F991F4A95D1F708957F926A
:1007D0008F929F92AF92BF92CF92DF92EF92FF9251
:1007E0000F931F93CF93DF938C01C62FD42F2091AB
:1007F0000B0230910C022115310539F080910A026B
:10080000813089F0823009F482C0DF91CF911F914D
:100810000F91FF90EF90DF90CF90BF90AF909F909F
:100820008F907F900895F62E80910D02F81618F59E
:10083000CF2CD12C8091100290911102F601EE0F75
:10084000FF1FE00FF11F91838083E0910B02F09175
:100850000C02EC0DFD1D61E080810E94BA02E09166
:100860000B02F0910C02EC0DFD1D61E080810E94F5
:100870004502FD0ED9CF83E290E00197F1F7F8949D
:100880000E94C2034B01FC2E80910D02F81660F409
:10089000E0910B02F0910C02EF0DF11D60E0808100
:1008A0000E94BA02FD0EF0CF7894D12CC12C809119
:1008B000100290911102C816D90608F0A6CFF8943C
:1008C0000E94C2036B01C818D9087C2E80910D02CA
:1008D0007816D8F4E72CF12CE0910B02F0910C0281
:1008E000EE0DFF1D80810E941C02892B61F4EE0C2D
:1008F000FF1CF801EE0DFF1D80819181C816D906FD
:1009000010F4D182C0827D0EE1CF7894D0CF862FB3
:1009100090910D02891750F4E82FF0E0EE0FFF1FC1
:10092000E00FF11F118210828D0FF2CF40E0809115
:1009300012024817B0F59C2F80910D02981778F598
:10094000E92FF0E0D901AE0FBF1F8C91863308F07C
:10095000865360917B00582F5870677F562B5093B9
:100960007B008770806480937C0080917A00806433
:1009700080937A0080917A0086FDFCCFA091780068
:1009800060917900EE0FFF1FE00FF11FB62F60811D
:1009900071816A0F7B1F718360839D0FCDCF4F5F85
:1009A000C6CF80910D02C81708F02FCFEC2FF0E0D2
:1009B000EE0FFF1FE00FF11F6091120270E0CB01FC
:1009C0009595879520813181820F931F0E94D80CC5
:1009D00071836083CD0FE5CF8F929F92AF92BF92CC
:1009E000CF92DF92EF92FF924B015C010E94C20313
:1009F0006B017C010E94C2036C197D098E099F095D
:100A0000683E734081059105A8F321E0821A9108A0
:100A1000A108B10888EEC80E83E0D81EE11CF11CC5
:100A200081149104A104B10429F7FF90EF90DF90A5
:100A3000CF90BF90AF909F908F900895AF92BF924C
:100A4000CF92DF92EF92FF920F931F93CF93DF939A
:100A50006C017B018B01040F151FEB015E01AE18C9
:100A6000BF08C017D10759F06991D601ED91FC91EB
:100A70000190F081E02DC6011995892B79F7C50108
:100A8000DF91CF911F910F91FF90EF90DF90CF906A
:100A9000BF90AF900895FC01538D448D252F30E019
:100AA000842F90E0821B930B541710F0CF9608957B
:100AB00001970895FC01918D828D981761F0A28DA8
:100AC000AE0FBF2FB11D5D968C91928D9F5F9F736E
:100AD000928F90E008958FEF9FEF0895FC01918D24
:100AE000828D981731F0828DE80FF11D858D90E091
:100AF00008958FEF9FEF0895FC01918D228D892F2E
:100B000090E0805C9F4F821B91098F739927089515
:100B10008EE692E00E947C0521E0892B09F420E01A
:100B2000822F0895FC01A48DA80FB92FB11DA35ADF
:100B3000BF4F2C91848D90E001968F739927848FFD
:100B4000A689B7892C93A089B1898C918370806420
:100B50008C93938D848D981306C00288F389E02DC1
:100B600080818F7D80830895EF92FF920F931F9372
:100B7000CF93DF93EC0181E0888F9B8D8C8D981350
:100B80001AC0E889F989808185FF15C09FB7F8945C
:100B9000EE89FF896083E889F989808183708064A8
:100BA00080839FBF81E090E0DF91CF911F910F91F3
:100BB000FF90EF900895F62E0B8D10E00F5F1F4F02
:100BC0000F731127E02E8C8D8E110CC00FB607FC11
:100BD000FACFE889F989808185FFF5CFCE010E949F
:100BE0009205F1CFEB8DEC0FFD2FF11DE35AFF4F76
:100BF000F0829FB7F8940B8FEA89FB89808180622D
:100C0000CFCFCF93DF93EC01888D8823B9F0AA89E9
:100C1000BB89E889F9898C9185FD03C0808186FDB7
:100C20000DC00FB607FCF7CF8C9185FFF2CF808106
:100C300085FFEDCFCE010E949205E9CFDF91CF91E4
:100C4000089580E090E0892B29F00E9488058111A9
:100C50000E94000080E090E0892B49F080E090E065
:100C6000892B29F00E94000081110E94000080E081
:100C700090E0892B49F080E090E0892B29F00E94D8
:100C8000000081110E94000080E090E0892B49F073
:100C900080E090E0892B29F00E94000081110C94E3
:100CA00000000895CF92DF92EF92FF92CF93DF93EF
:100CB000C82F80911602882369F08C2F0E941C0295
:100CC000019741F460E08C2F0E9445028BEB92E18A
:100CD0000197F1F761E08C2F0E9445020E94C20348
:100CE0006B01809116028823A9F080911702882356
:100CF00089F0F894D0E080911702D81750F460E0A2
:100D00008C2F0E94450261E08C2F0E944502DF5F1C
:100D1000F2CF7894C601DF91CF91FF90EF90DF90F2
:100D2000CF9008950F931F93CF93DF93C82F8823FD
:100D300059F180911502823029F1D0E0809115029D
:100D40008230D1F5CD7FC1F5809114028F3FA1F1A2
:100D500090911602992361F1809114020E9452062B
:100D60008C0180911602882371F1C3E2D0E00E94C9
:100D7000C203601B710B6C32714000F5CE0101970C
:100D8000F1F7F5CFC130C9F6809113028F3FA9F278
:100D900090911602992339F0809113020E94520615
:100DA0008C01D1E0CBCF0E941C02892BA9F3C5CFC7
:100DB0000E941C02892B81F2D111D3CFDF91CF91F8
:100DC0001F910F9108958BE193E00197F1F7F6CF12
:100DD000FC0101900020E9F73197AF01481B590B46
:100DE000BC018EE692E00C941E058F929F92AF920A
:100DF000BF920F931F93CF93DF93CDB7DEB7A19729
:100E00000FB6F894DEBF0FBECDBF19A2423008F472
:100E10004AE08E010F5D1F4F842E912CB12CA12C26
:100E2000A50194010E94A70CE62FB901CA01EA307E
:100E3000F4F4E05DD801EE938D01232B242B252BB8
:100E400079F790E080E0109719F0CD010E94E80654
:100E5000A1960FB6F894DEBF0FBECDBFDF91CF9144
:100E60001F910F91BF90AF909F908F900895E95C74
:100E7000E1CF8F929F92AF92BF92CF92DF92EF928B
:100E8000FF920F931F93CF93DF93CDB7DEB7C85F69
:100E9000D1090FB6F894DEBF0FBECDBF8C01D62EA0
:100EA000DC018C91811157C01396ED90FC906091FC
:100EB0000D0270E0660F771FC7010E94CB0FF8018B
:100EC00094838383892BB9F4C7010E94420FC850D1
:100ED000DF4F0FB6F894DEBF0FBECDBFDF91CF91CD
:100EE0001F910F91FF90EF90DF90CF90BF90AF9048
:100EF0009F908F900895E180F28060910D0270E0E4
:100F0000660F771FC7010E94CB0FAC01F8019283D7
:100F1000818390E041155105B9F280910D02981737
:100F2000B8F4292F30E0220F331FD8011396ED912A
:100F3000FC91E20FF31F11821082609110027091F8
:100F40001102240F351FF901718360839F5FE5CF84
:100F500081E0D8018C93C12C43E2E42EF12CB1E066
:100F6000DB1638F0E2E0ED15D0F5F3E0DF1609F41A
:100F70006DC061E080E00E94730241E060E0CE015C
:100F800085549F4F0E94E703A0900D024E018FE30E
:100F9000880E911CFE01E358FF4F9E0125543F4FE0
:100FA000B12CAF01AB1409F4A1C0D9018D919D9171
:100FB0009D01CC2009F492C0608171816817790786
:100FC00008F48CC0D4016D917C918617970708F4C2
:100FD00089C0B394B2E08B0E911C3296E3CF80E0CF
:100FE0000E94920641E060E0CE0185549F4F0E942E
:100FF000E70361E080E00E947302A2E0DA12C4CF4E
:1010000041E060E0CE0101960E94E70370910D027D
:101010002091100230911102FE01E554FF4FDE01D4
:10102000119660E0761709F4AFCF4D915D91808104
:101030009181820F931F841B950B2817390708F4A1
:101040004AC0918380836F5F3296ECCF60E082E08C
:101050000E9473020E94C2034B0181E00E9492062B
:1010600080911602882359F00E94C20368197909F9
:10107000603B744020F4C7010197F1F7F5CF42E0DF
:1010800060E0CE0185549F4F0E94E70360E081E05D
:101090000E9473020E94C2034B0182E00E949206EA
:1010A00080911602882359F00E94C20368197909B9
:1010B000603B744020F4C7010197F1F7F5CF42E09F
:1010C00061E0CE0185549F4F0E94E70361E080E01C
:1010D0000E94730259CF31832083B5CF91838083DF
:1010E000C11070CFD4018D939C9373CFC394EAE069
:1010F000CE1235CF20E080910D02281708F0E7CE00
:10110000822F90E0880F991FE1E0F0E0EC0FFD1FC7
:10111000E80FF91F66AD77ADD8011396ED91FC91FC
:10112000E80FF91FA081B181A617B70710F47183EA
:101130006083FA01E80FF91F60817181D80111966F
:10114000ED91FC91E80FF91F808191816817790773
:1011500010F4718360832F5FCECF1F920F920FB672
:101160000F9211242F933F938F939F93AF93BF932D
:101170008091660290916702A0916802B091690225
:101180003091650223E0230F2D3758F50196A11DFC
:10119000B11D209365028093660290936702A0932D
:1011A0006802B093690280916A0290916B02A091EB
:1011B0006C02B0916D020196A11DB11D80936A026F
:1011C00090936B02A0936C02B0936D02BF91AF91AC
:1011D0009F918F913F912F910F900FBE0F901F9075
:1011E000189526E8230F0296A11DB11DD2CF1F929C
:1011F0000F920FB60F9211240BB60F922F933F93BD
:101200004F935F936F937F938F939F93AF93BF930E
:10121000EF93FF938EE692E00E949205FF91EF918B
:10122000BF91AF919F918F917F916F915F914F91FE
:101230003F912F910F900BBE0F900FBE0F901F90FC
:1012400018951F920F920FB60F9211240BB60F92A2
:101250002F938F939F93EF93FF93E0917E02F091F2
:101260007F028081E0918402F091850282FD1DC0A1
:101270009081809187028F5F8F73209188028217FF
:1012800041F0E0918702F0E0E259FD4F958F8093A5
:101290008702FF91EF919F918F912F910F900BBE3D
:1012A0000F900FBE0F901F9018958081F2CFEEE641
:1012B000F2E01382128288EE93E0A0E0B0E0848333
:1012C0009583A683B78384E292E09183808385EC43
:1012D00090E09587848784EC90E09787868780EC00
:1012E00090E0918B808B81EC90E0938B828B82ECF1
:1012F00090E0958B848B86EC90E0978B868B118E9B
:10130000128E138E148EEBE0F3E086E1808387E18A
:10131000818380E991E0938382831482158216820F
:10132000178261E086E10E94BA0260E087E10C94D6
:10133000BA02CF93DF9300D0CDB7DEB7789484B5EF
:10134000826084BD84B5816084BD85B5826085BDC1
:1013500085B5816085BD80916E00816080936E004F
:101360001092810080918100826080938100809141
:1013700081008160809381008091800081608093F2
:1013800080008091B10084608093B1008091B000B2
:1013900081608093B0008091910082608093910081
:1013A0008091910081608093910080919000816094
:1013B000809390008091A10082608093A100809131
:1013C000A10081608093A1008091A0008160809342
:1013D000A0008091210182608093210180912101F0
:1013E00081608093210180912001816080932001A0
:1013F00080917A00846080937A0080917A00826084
:1014000080937A0080917A00816080937A00809145
:101410007A00806880937A001092C1000E948D014A
:1014200061E087E00E94BA0261E089E00E94BA02AE
:1014300061E086E00E94BA0261E088E00E94BA02A0
:101440000E948D0182E080930A028FEF93E09093D7
:1014500011028093100220910B0230910C023B8309
:101460002A8363E070E0C9010E94CB0FFC019093D6
:101470000C0280930B02892B09F4AFC086E38083B2
:1014800087E3818388E3828383E080930D02109257
:1014900000021092050264EF71E080E090E00E948B
:1014A000EC0461E08DE00E94BA0261E08DE00E94F0
:1014B000450280E991E09B838A8361E080E092E0CD
:1014C0000E943907AA81BB811197BB83AA83AB2BEA
:1014D000A1F760E08DE00E94450282E392E00E9465
:1014E000E80682E492E00E94E8060E948D0161E035
:1014F00087E00E94BA0261E089E00E94BA0261E0DE
:1015000086E00E94BA0261E088E00E94BA0261E0CF
:1015100086E10E94BA0260E087E10E94BA020E945E
:101520008D0128EE222E23E0322E30ED432E37E0BF
:10153000532E612C712CE4E1F0E0FB83EA8380916F
:101540000002882309F44EC080E00E94920641E028
:1015500060E08DE592E00E94E70361E080E00E9498
:101560007302A0900D020DE512E0C0900302D0902E
:101570000402E0900102F0900202B12CAB1491F150
:10158000D601ED91FD916D01D7018D919D917D0168
:10159000E81BF90BD1F0D8012D913C9150E040E0CF
:1015A000281B390B41095109A8EEB3E00E949C0C9D
:1015B0009F0150E040E00E947D0C293EB3E03B07D4
:1015C00014F028EE33E037FF02C030E020E0F801ED
:1015D000219331938F01B394D1CF8A819B810E9453
:1015E000420F59CFE0910D029DE5C92E92E0D92E10
:1015F000F12CE12CF0E050E040E0812C912C5401E2
:101600001982EF1701F1D6018D919D916D01810134
:10161000081B190B093C110598F40333110550F010
:101620009801D7010E94080D860E971EA81EB91EAC
:10163000400F511FFF5F28E1E21A2CEFF20AE1CFC1
:10164000B1E0B983EDCFF981F111B7C0E150FF0BE3
:1016500024EF31E0E29FC001E39F900DF29F900DD7
:10166000112420911802309119022817390708F423
:10167000B1C0E29DC001E39D900DF29D900D11243B
:101680009C01A4EBB0E00E94C90CA30192010E944E
:101690007D0C20935C028A819B8101979B838A83C6
:1016A000892B09F04CCF85E492E00E94E806609116
:1016B0005C0270E090E080E04AE00E94F5069091C4
:1016C0005C0299838DE492E00E94E8068981855549
:1016D0008B3008F082C08CE38093630280936402B5
:1016E000B0906402A09063028FE492E00E94E8064A
:1016F0006A2D70E090E080E04AE00E94F5068DE4FB
:1017000092E00E94E8066B2D70E090E080E04AE0F5
:101710000E94F506A11034C0B11032C009E010E0FB
:101720008DECC82E8CECD82EED2C8DE3F82E20E01D
:1017300030E0A901C701B6010E94390E0E947C0D5C
:10174000262F30E03B832A83B90186E00E94EB021A
:101750006A817B8188E00E94EB0268EC70E080E0A7
:1017600090E00E94EC042DEC3CEC4CEC5DE3C701F6
:10177000B6010E94100D6B017C0101501109B9F6F0
:1017800060E087E00E94450260E089E00E94450237
:101790006A2D70E086E00E94EB026B2D70E088E01D
:1017A0000E94EB0284E492E00E94E80682E492E068
:1017B0000E94E8060E942106BECE9A0150E040E059
:1017C000C501B4010E94A70CC901309319022093EE
:1017D000180256CF90E080E053CFA981AA55A98383
:1017E000B2E3AB02C0011124A7FF2AC066EA7FEF73
:1017F0000E94EC0CE981E43D94F0645C6093640227
:101800001092630281E592E00E94E8066091630213
:1018100070E090E080E04AE00E94F50661CF645CF1
:101820007F4F072E000C880B990B0E94AD0D20E016
:1018300030E040EC5FE30E94390E0E947C0DDECF69
:101840006AE570E00E94EC0CF981FD3234F4645CCE
:10185000609363021092640243CF645C7F4F072E53
:10186000000C880B990B0E94AD0D20E030E040EC9D
:101870005FE30E94390E0E947C0DEACF8091130233
:101880008F3F31F060E00E94BA028FEF8093130225
:10189000809114028F3F31F060E00E94BA028FEF16
:1018A000809314021092150280910B0290910C0209
:1018B000009711F00E94420F809103029091040260
:1018C000009711F00E94420F809108029091090246
:1018D000009711F00E94420F809101029091020244
:1018E000009711F00E94420F80910602909107022A
:1018F000009711F00C94420F0895052E97FB1EF4EB
:1019000000940E94940C57FD07D00E94A70C07FC7E
:1019100003D04EF40C94940C50954095309521953D
:101920003F4F4F4F5F4F089590958095709561950B
:101930007F4F8F4F9F4F08950E94C90CA59F900D18
:10194000B49F900DA49F800D911D11240895A1E2D4
:101950001A2EAA1BBB1BFD010DC0AA1FBB1FEE1F29
:10196000FF1FA217B307E407F50720F0A21BB30B74
:10197000E40BF50B661F771F881F991F1A9469F7F0
:1019800060957095809590959B01AC01BD01CF014C
:101990000895A29FB001B39FC001A39F700D811D48
:1019A0001124911DB29F700D811D1124911D089568
:1019B000AA1BBB1B51E107C0AA1FBB1FA617B70775
:1019C00010F0A61BB70B881F991F5A95A9F7809591
:1019D0009095BC01CD01089597FB072E16F4009455
:1019E00007D077FD09D00E94D80C07FC05D03EF443
:1019F000909581959F4F0895709561957F4F0895BB
:101A0000EE0FFF1F881F8BBF0790F691E02D1994F2
:101A10000E94C90CB7FF0895821B930B089550587C
:101A2000BB27AA270E94270D0C94FF0D0E94F10DE1
:101A300038F00E94F80D20F039F49F3F19F426F495
:101A40000C94EE0D0EF4E095E7FB0C94E80DE92FF5
:101A50000E94100E58F3BA176207730784079507A0
:101A600020F079F4A6F50C94320E0EF4E0950B2ECE
:101A7000BA2FA02D0B01B90190010C01CA01A001E0
:101A80001124FF27591B99F0593F50F4503E68F13B
:101A90001A16F040A22F232F342F4427585FF3CF7C
:101AA000469537952795A795F0405395C9F77EF44D
:101AB0001F16BA0B620B730B840BBAF09150A1F096
:101AC000FF0FBB1F661F771F881FC2F70EC0BA0F1C
:101AD000621F731F841F48F4879577956795B795A4
:101AE000F7959E3F08F0B0CF9395880F08F099279F
:101AF000EE0F9795879508950E94180E88F09F57CE
:101B000098F0B92F9927B751B0F0E1F0660F771F21
:101B1000881F991F1AF0BA95C9F714C0B13091F017
:101B20000E94320EB1E008950C94320E672F782F88
:101B30008827B85F39F0B93FCCF3869577956795DC
:101B4000B395D9F73EF490958095709561957F4F48
:101B50008F4F9F4F0895E89409C097FB3EF49095EE
:101B60008095709561957F4F8F4F9F4F9923A9F076
:101B7000F92F96E9BB279395F69587957795679505
:101B8000B795F111F8CFFAF4BB0F11F460FF1BC049
:101B90006F5F7F4F8F4F9F4F16C0882311F096E9DC
:101BA00011C0772321F09EE8872F762F05C066238A
:101BB00071F096E8862F70E060E02AF09A95660F43
:101BC000771F881FDAF7880F9695879597F90895FC
:101BD00097F99F6780E870E060E008959FEF80ECE0
:101BE000089500240A941616170618060906089583
:101BF00000240A9412161306140605060895092EE9
:101C00000394000C11F4882352F0BB0F40F4BF2B57
:101C100011F460FF04C06F5F7F4F8F4F9F4F089597
:101C200057FD9058440F551F59F05F3F71F047958D
:101C3000880F97FB991F61F09F3F79F08795089572
:101C4000121613061406551FF2CF4695F1DF08C091
:101C5000161617061806991FF1CF869571056105AE
:101C600008940895E894BB2766277727CB0197F956
:101C700008950E944C0E0C94FF0D0E94F10D38F057
:101C80000E94F80D20F0952311F00C94E80D0C94AF
:101C9000EE0D11240C94330E0E94100E70F3959FDC
:101CA000C1F3950F50E0551F629FF001729FBB2753
:101CB000F00DB11D639FAA27F00DB11DAA1F649FEF
:101CC0006627B00DA11D661F829F2227B00DA11DA2
:101CD000621F739FB00DA11D621F839FA00D611D28
:101CE000221F749F3327A00D611D231F849F600D49
:101CF000211D822F762F6A2F11249F5750409AF072
:101D0000F1F088234AF0EE0FFF1FBB1F661F771FFD
:101D1000881F91505040A9F79E3F510580F00C94C8
:101D2000E80D0C94330E5F3FE4F3983ED4F38695B0
:101D300077956795B795F795E7959F5FC1F7FE2B68
:101D4000880F911D9695879597F908950F931F9386
:101D5000CF93DF938230910510F482E090E0E09120
:101D60001503F091160330E020E0B0E0A0E03097DA
:101D700099F42115310509F44AC0281B390B243088
:101D80003105D8F58A819B816115710589F1FB01C7
:101D900093838283FE0111C04081518102811381AE
:101DA00048175907E0F04817590799F4109761F060
:101DB00012960C93129713961C933296CF01DF91D3
:101DC000CF911F910F91089500931503109316035F
:101DD000F4CF2115310551F04217530738F0A9010E
:101DE000DB019A01BD01DF01F801C1CFEF01F9CF9D
:101DF0009093160380931503CDCFFE01E20FF31FDE
:101E0000819391932250310939832883D7CF209130
:101E1000130330911403232B41F420911C023091C1
:101E20001D02309314032093130320911A02309162
:101E30001B022115310541F42DB73EB740911E021A
:101E400050911F02241B350BE0911303F0911403F2
:101E5000E217F307A0F42E1B3F0B2817390778F081
:101E6000AC014E5F5F4F2417350748F04E0F5F1FE0
:101E70005093140340931303819391939FCFF0E009
:101E8000E0E09CCFCF93DF930097E9F0FC0132971D
:101E900013821282A0911503B0911603ED0130E078
:101EA00020E01097A1F420813181820F931F2091AF
:101EB0001303309114032817390709F061C0F09318
:101EC0001403E0931303DF91CF910895EA01CE1735
:101ED000DF07E8F54A815B819E0141155105B1F7A5
:101EE000E901FB83EA8349915991C40FD51FEC178F
:101EF000FD0761F4808191810296840F951FE901AD
:101F000099838883828193819B838A83F0E0E0E0D8
:101F100012968D919C9113970097B9F52D913C9154
:101F20001197CD010296820F931F209113033091D8
:101F300014032817390739F6309751F51092160314
:101F400010921503B0931403A0931303BCCFD38353
:101F5000C28340815181840F951FC817D90761F44E
:101F60004E5F5F4F88819981480F591F518340838D
:101F70008A819B81938382832115310509F0B0CF3B
:101F8000F0931603E09315039ECFFD01DC01C0CF53
:101F900013821282D7CF4F925F926F927F928F926D
:101FA0009F92AF92BF92CF92DF92EF92FF920F93E8
:101FB0001F93CF93DF938C01009799F4CB01DF91AE
:101FC000CF911F910F91FF90EF90DF90CF90BF9036
:101FD000AF909F908F907F906F905F904F900C94F8
:101FE000A60EFC01E60FF71F9C0122503109E217F3
:101FF000F30708F4AEC0D901CD91DC911197C61753
:10200000D70720F1C530D10578F0CE0104978617A7
:10201000970750F0C61BD70B2297C193D1936D93AE
:102020007C93CF010E94420FC801DF91CF911F9195
:102030000F91FF90EF90DF90CF90BF90AF909F9067
:102040008F907F906F905F904F9008955B01AC1AD6
:10205000BD0A4C018C0E9D1EA0911503B091160374
:10206000512C412CF12CE12C109731F58091130368
:10207000909114038815990509F05CC0461657061F
:1020800008F058C080911A0290911B02009741F409
:102090008DB79EB740911E0250911F02841B950B75
:1020A000E817F90708F055C0F0931403E093130301
:1020B000F90171836083B8CF8D919C91119712962D
:1020C0006C90129713967C901397A815B90559F543
:1020D0006C0142E0C40ED11CCA14DB0420F1AC0137
:1020E0004A195B09DA011296159780F062827382B1
:1020F00051834083D9016D937C93E114F10471F015
:10210000D7011396FC93EE9312978ECF22968C0FE5
:102110009D1FF90191838083F301EFCFF0931603A4
:10212000E093150381CF4816590608F42C017D0170
:10213000D3019ACFCB010E94A60E7C01009749F0F3
:10214000AE01B8010E94AC10C8010E94420F870185
:102150006BCF10E000E068CFFB01DC0102C0019012
:102160000D9241505040D8F7089511E0C9E5D1E0F3
:1021700000E006C0802FFE010E94000D2196011D87
:0E218000CA35D10780E00807A9F7F894FFCF11
:10218E000000000000000000000000000000C40974
:10219E00C40904FFFF0001000000000017038000C7
:1021AE0000000000B4051E054B0501067C055A050E
:1021BE006E0551545220536574757020446F6E65D0
:1021CE002E000D0A00616E676C653A2000202D20EE
:0C21DE000070776D206C656674203D0079
:00000001FF
