:100000000C945A010C948B010C948B010C948B0171
:100010000C948B010C948B010C948B010C948B0130
:100020000C948B010C948B010C948B010C948B0120
:100030000C948B010C948B010C948B010C948B0110
:100040000C948B010C948B010C948B010C948B0100
:100050000C948B010C948B010C948B010C94A308D1
:100060000C948B010C9477090C944D090C948B0122
:100070000C948B010C948B010C948B010C948B01D0
:100080000C948B010C948B010C948B010C948B01C0
:100090000C9417090C94ED080C948B010C948B01B3
:1000A0000C948B010C948B010C948B010C948B01A0
:1000B0000C948B010C948B010C948B010C948B0190
:1000C0000C948B010C948B010C948B010C948B0180
:1000D0000C948B010C948B010C948B010C948B0170
:1000E0000C948B010C94FF010C94B3030C94C70384
:1000F0000C94C8050C940D020C9409020C9415067E
:100100000C94FB010C9460030C9472030C94950303
:100110000C94F2090C9458030C9405020C94A90356
:100120000C9468030C9412020C9455050C94BD03B6
:100130000C94F1010C9478050C944E030C94E4019A
:100140000C9464050C9435030C947C030C94E0012E
:100150000C942D030C949F030C9413020C9417021F
:100160000C943A030C94ED010C9486030C94E70173
:100170000C94F7010C94DC010C9428050C94D2012A
:100180000C9444030C94780E0C94D8010C948605BE
:1001900000002100240027002A002D003000330039
:1001A00001010000040107010A01000022002500EE
:1001B00028002B002E003100340002010000050150
:1001C00008010B01000020002300260029002C005C
:1001D0002F0032000001000003010601090105059E
:1001E0000505070508080808020202020A0A0808AD
:1001F00004040404010101010101010103030303DB
:1002000003030303040707070C0C0C0C0C0C0C0C69
:100210000202020206060606060606060B0B0B0B7A
:100220000B0B0B0B0102102020080810204010209F
:1002300040800201020108040201010204081020AA
:1002400040808040201008040201800402018040A8
:100250002010080402010804020101020408102011
:100260004080010204081020408000000A0B0209AF
:100270000C0D0E0807030401000000000000000040
:10028000000000000000000000000000000000006E
:10029000000000000000121110000000000000002B
:1002A000000000000000000000000000000000004E
:1002B000F209780E11241FBECFEFD1E2DEBFCDBF11
:1002C00000E00CBF12E0A0E0B2E0ECECF6E200E0EF
:1002D0000BBF02C007900D92A836B107D9F723E0F3
:1002E000A8E6B2E001C01D92A63DB207E1F711E019
:1002F000C9E5D1E000E006C021970109802FFE0189
:100300000E94260FC835D10780E00807A9F70E9490
:100310005A0A0C9454130C940000FC01A089B18972
:1003200082E08C93A485B5851C92A685B7858FEC59
:100330008C93108EA489B58986E08C93A289B389A9
:100340008C9180618C93A289B3898C9188608C9305
:10035000A289B3898C9180688C930288F389E02DFF
:1003600080818F7D808308958150823108F05AC04A
:10037000E82FF0E08827E054FE4F8F4F0C94260FB3
:10038000E001E401D201D801DC011202E701ED0134
:10039000F101F701FB01FF010502090212020D0242
:1003A00013021702809180008F7780938000089558
:1003B000809180008F7DF9CF80918000877FF5CF7D
:1003C00084B58F7784BD089584B58F7DFBCF8091F0
:1003D000B0008F778093B00008958091B0008F7D3A
:1003E000F9CF809190008F7780939000089580914D
:1003F00090008F7DF9CF80919000877FF5CF80911D
:10040000A0008F778093A00008958091A0008F7D39
:10041000F9CF8091A000877FF5CF809120018F7761
:10042000809320010895809120018F7DF9CF8091E4
:100430002001877FF5CFCF93DF93282F30E0F9019C
:10044000E659FD4F8491F901EC5DFD4FD491F9011E
:10045000E252FE4FC491CC23A1F081110E94B4015D
:10046000EC2FF0E0EE0FFF1FEC53FE4FA591B4917F
:10047000EC91ED2381E090E009F480E0DF91CF91F1
:10048000089580E090E0FACF1F93CF93DF93282F59
:1004900030E0F901E659FD4F8491F901EC5DFD4F23
:1004A000D491F901E252FE4FC491CC23A9F0162F4A
:1004B00081110E94B401EC2FF0E0EE0FFF1FE65512
:1004C000FE4FA591B4918FB7F894EC91111108C02B
:1004D000D095DE23DC938FBFDF91CF911F910895DC
:1004E000DE2BF8CF1F93CF93DF93C82F162F8823CF
:1004F00039F0809137028230A9F5D0E0C130A1F403
:10050000809135028F3F59F00E941B02019739F408
:1005100060E0809135020E944402D1E001C0D0E049
:10052000809137028230D1F4CD7FC1F480913602C0
:100530008F3FA1F00E941B02019781F460E080913F
:1005400036020E944402112369F080913802882308
:1005500069F08BEB92E10197F1F704C0112311F0E0
:10056000D111F3CFDF91CF911F9108958BE193E0EB
:10057000F2CFCF93DF9390E0FC01EC5DFD4F24912F
:1005800082529E4FFC0184918823C9F090E0880F2D
:10059000991FFC01E057FE4FA591B491FC01E6556F
:1005A000FE4FC591D49161110DC09FB7F8948C9105
:1005B000209582238C938881282328839FBFDF91F5
:1005C000CF910895623051F49FB7F8943C91822FF7
:1005D000809583238C93E8812E2BEFCF8FB7F894EF
:1005E000EC912E2B2C938FBFEACF1F93CF93DF93E9
:1005F000182FEB0161E00E94B902209739F460E006
:10060000812FDF91CF911F910C944402CF3FD105F0
:1006100011F461E0F5CFE12FF0E0E659FD4FE491F0
:10062000E150E23108F0B3C0F0E08827E55EFC4F0E
:100630008F4F0C94260F2D0335033A0344034E03CA
:10064000C70358036003680372037C0386039503A2
:100650009F03C703A903B303BD0384B5806884BDAA
:10066000C7BDDF91CF911F91089584B5806284BD8D
:10067000C8BDF7CF80918000806880938000D093C0
:100680008900C0938800EDCF8091800080628093C4
:100690008000D0938B00C0938A00E3CF80918000CC
:1006A000886080938000D0938D00C0938C00D9CF58
:1006B0008091B00080688093B000C093B300D1CF28
:1006C0008091B00080628093B000C093B400C9CF25
:1006D00080919000806880939000D0939900C0939F
:1006E0009800BFCF80919000806280939000D0935B
:1006F0009B00C0939A00B5CF809190008860809352
:100700009000D0939D00C0939C00ABCF8091A0003F
:1007100080688093A0008091A0008F7B8093A000D0
:10072000D093A900C093A8009CCF8091A0008062C4
:100730008093A000D093AB00C093AA0092CF809189
:10074000A00088608093A000D093AD00C093AC005F
:1007500088CF80912001806880932001D093290167
:10076000C09328017ECF8091200180628093200178
:10077000D0932B01C0932A0174CF8091200188600F
:1007800080932001D0932D01C0932C016ACFC038F3
:10079000D1050CF03ECF33CF3FB7F89480918C0257
:1007A00090918D02A0918E02B0918F0226B5A89BE8
:1007B00005C02F3F19F00196A11DB11D3FBFBA2FF3
:1007C000A92F982F8827BC01CD01620F711D811DB3
:1007D000911D42E0660F771F881F991F4A95D1F738
:1007E00008957F928F929F92AF92BF92CF92DF92A5
:1007F000EF92FF920F931F93CF93DF938C01C62F3D
:10080000D42F20912D0230912E022115310539F07F
:1008100080912C02813089F0823009F482C0DF910E
:10082000CF911F910F91FF90EF90DF90CF90BF90ED
:10083000AF909F908F907F900895F62E80912F0219
:10084000F81618F5CF2CD12C8091320290913302FA
:10085000F601EE0FFF1FE00FF11F91838083E091FF
:100860002D02F0912E02EC0DFD1D61E080810E94B1
:10087000B902E0912D02F0912E02EC0DFD1D61E018
:1008800080810E944402FD0ED9CF83E290E001975F
:10089000F1F7F8940E94CC034B01FC2E80912F02BB
:1008A000F81660F4E0912D02F0912E02EF0DF11D8B
:1008B00060E080810E94B902FD0EF0CF7894D12CC7
:1008C000C12C8091320290913302C816D90608F0EB
:1008D000A6CFF8940E94CC036B01C818D9087C2ECF
:1008E00080912F027816D8F4E72CF12CE0912D029C
:1008F000F0912E02EE0DFF1D80810E941B02892BBC
:1009000061F4EE0CFF1CF801EE0DFF1D808191815A
:10091000C816D90610F4D182C0827D0EE1CF78943A
:10092000D0CF862F90912F02891750F4E82FF0E056
:10093000EE0FFF1FE00FF11F118210828D0FF2CF1B
:1009400040E0809134024817B0F59C2F80912F022F
:10095000981778F5E92FF0E0D901AE0FBF1F8C9101
:10096000863308F0865360917B00582F5870677F5C
:10097000562B50937B008770806480937C0080911D
:100980007A00806480937A0080917A0086FDFCCFA3
:10099000A091780060917900EE0FFF1FE00FF11F2A
:1009A000B62F608171816A0F7B1F718360839D0FF9
:1009B000CDCF4F5FC6CF80912F02C81708F02FCF41
:1009C000EC2FF0E0EE0FFF1FE00FF11F60913402FB
:1009D00070E0CB019595879520813181820F931F1F
:1009E0000E94120F71836083CD0FE5CF8F929F928B
:1009F000AF92BF92CF92DF92EF92FF924B015C01D8
:100A00000E94CC036B017C010E94CC036C197D0910
:100A10008E099F09683E734081059105A8F321E086
:100A2000821A9108A108B10888EEC80E83E0D81E8A
:100A3000E11CF11C81149104A104B10429F7FF9079
:100A4000EF90DF90CF90BF90AF909F908F900895E0
:100A5000AF92BF92CF92DF92EF92FF920F931F93CC
:100A6000CF93DF936C017B018B01040F151FEB010A
:100A70005E01AE18BF08C017D10759F06991D601C1
:100A8000ED91FC910190F081E02DC6011995892B23
:100A900079F7C501DF91CF911F910F91FF90EF90F2
:100AA000DF90CF90BF90AF900895FC01538D448D9F
:100AB000252F30E0842F90E0821B930B541710F009
:100AC000CF96089501970895FC01918D828D981716
:100AD00061F0A28DAE0FBF2FB11D5D968C91928DEE
:100AE0009F5F9F73928F90E008958FEF9FEF08951F
:100AF000FC01918D828D981731F0828DE80FF11DE8
:100B0000858D90E008958FEF9FEF0895FC01918D02
:100B1000228D892F90E0805C9F4F821B91098F73FB
:100B20009927089580E992E00E94860521E0892BAB
:100B300009F420E0822F08958DE293E00E9486055B
:100B400021E0892B09F420E0822F0895FC01A48D77
:100B5000A80FB92FB11DA35ABF4F2C91848D90E0DF
:100B600001968F739927848FA689B7892C93A089C2
:100B7000B1898C91837080648C93938D848D98134C
:100B800006C00288F389E02D80818F7D80830895DF
:100B9000EF92FF920F931F93CF93DF93EC0181E0CD
:100BA000888F9B8D8C8D98131AC0E889F989808174
:100BB00085FF15C09FB7F894EE89FF896083E889A7
:100BC000F98980818370806480839FBF81E090E099
:100BD000DF91CF911F910F91FF90EF900895F62E26
:100BE0000B8D10E00F5F1F4F0F731127E02E8C8DC0
:100BF0008E110CC00FB607FCFACFE889F989808105
:100C000085FFF5CFCE010E94A605F1CFEB8DEC0F4D
:100C1000FD2FF11DE35AFF4FF0829FB7F8940B8F21
:100C2000EA89FB8980818062CFCFCF93DF93EC018B
:100C3000888D8823B9F0AA89BB89E889F9898C91C4
:100C400085FD03C0808186FD0DC00FB607FCF7CF80
:100C50008C9185FFF2CF808185FFEDCFCE010E9480
:100C6000A605E9CFDF91CF91089580E090E0892B30
:100C700029F00E949C0581110E94000080E090E014
:100C8000892B29F00E94920581110E94000080E0CA
:100C900090E0892B49F080E090E0892B29F00E94B8
:100CA000000081110E94000080E090E0892B49F053
:100CB00080E090E0892B29F00E94000081110C94C3
:100CC0000000089580916A02882341F046E050E0D8
:100CD00066E072E080E992E00C9428050895809126
:100CE0006A02882341F046E050E060E072E080E96B
:100CF00092E00C94280508951F93CF93DF93162F4D
:100D0000D42FC22F682F70E086E00E94F502612F79
:100D100070E088E00E94F5026D2F70E087E00E948D
:100D2000F5026C2F70E089E0DF91CF911F910C9458
:100D3000F502CF92DF92EF92FF92CF93DF93C82F0D
:100D400080913802882369F08C2F0E941B02019742
:100D500041F460E08C2F0E9444028BEB92E10197FA
:100D6000F1F761E08C2F0E9444020E94CC036B01DA
:100D7000809138028823A9F080913902882389F074
:100D8000F894D0E080913902D81750F460E08C2FAD
:100D90000E94440261E08C2F0E944402DF5FF2CF88
:100DA0007894C601DF91CF91FF90EF90DF90CF90C4
:100DB00008950F931F93CF93DF93C82F882359F182
:100DC00080913702823029F1D0E080913702823061
:100DD000D1F5CD7FC1F5809136028F3FA1F1909181
:100DE0003802992361F1809136020E9499068C01A4
:100DF00080913802882371F1C3E2D0E00E94CC03D5
:100E0000601B710B6C32714000F5CE010197F1F758
:100E1000F5CFC130C9F6809135028F3FA9F290918C
:100E20003802992339F0809135020E9499068C018D
:100E3000D1E0CBCF0E941B02892BA9F3C5CF0E9422
:100E40001B02892B81F2D111D3CFDF91CF911F915A
:100E50000F9108958BE193E00197F1F7F6CF8F9210
:100E60009F92AF92BF92CF92DF92EF92FF920F9339
:100E70001F93CF93DF93CDB7DEB7C85FD1090FB60D
:100E8000F894DEBF0FBECDBF8C01D62EDC018C9155
:100E9000811157C01396ED90FC9060912F0270E085
:100EA000660F771FC7010E946A12F801948383833B
:100EB000892BB9F4C7010E94E111C850DF4F0FB66A
:100EC000F894DEBF0FBECDBFDF91CF911F910F9180
:100ED000FF90EF90DF90CF90BF90AF909F908F905A
:100EE0000895E180F28060912F0270E0660F771F15
:100EF000C7010E946A12AC01F8019283818390E0DD
:100F000041155105B9F280912F029817B8F4292F95
:100F100030E0220F331FD8011396ED91FC91E20FC0
:100F2000F31F118210826091320270913302240FFC
:100F3000351FF901718360839F5FE5CF81E0D801A0
:100F40008C93C12C43E2E42EF12CB1E0DB1638F097
:100F5000E2E0ED15D0F5F3E0DF1609F46DC061E0D5
:100F600080E00E94720241E060E0CE0185549F4F14
:100F70000E94F103A0902F024E018FE3880E911C76
:100F8000FE01E358FF4F9E0125543F4FB12CAF01A6
:100F9000AB1409F4A1C0D9018D919D919D01CC2084
:100FA00009F492C0608171816817790708F48CC0D8
:100FB000D4016D917C918617970708F489C0B3948A
:100FC000B2E08B0E911C3296E3CF80E00E94D906EE
:100FD00041E060E0CE0185549F4F0E94F10361E043
:100FE00080E00E947202A2E0DA12C4CF41E060E029
:100FF000CE0101960E94F10370912F0220913202DE
:1010000030913302FE01E554FF4FDE01119660E09E
:10101000761709F4AFCF4D915D9180819181820F58
:10102000931F841B950B2817390708F44AC0918336
:1010300080836F5F3296ECCF60E082E00E947202A4
:101040000E94CC034B0181E00E94D90680913802B6
:10105000882359F00E94CC0368197909603B7440D9
:1010600020F4C7010197F1F7F5CF42E060E0CE012F
:1010700085549F4F0E94F10360E081E00E9472025C
:101080000E94CC034B0182E00E94D9068091380275
:10109000882359F00E94CC0368197909603B744099
:1010A00020F4C7010197F1F7F5CF42E061E0CE01EE
:1010B00085549F4F0E94F10361E080E00E9472021C
:1010C00059CF31832083B5CF91838083C11070CFF6
:1010D000D4018D939C9373CFC394EAE0CE1235CFA5
:1010E00020E080912F02281708F0E7CE822F90E0B1
:1010F000880F991FE1E0F0E0EC0FFD1FE80FF91FEA
:1011000066AD77ADD8011396ED91FC91E80FF91F0C
:10111000A081B181A617B70710F471836083FA012B
:10112000E80FF91F60817181D8011196ED91FC9152
:10113000E80FF91F808191816817790710F4718396
:1011400060832F5FCECF1F920F920FB60F921124A4
:101150002F933F938F939F93AF93BF938091880278
:1011600090918902A0918A02B0918B0230918702FE
:1011700023E0230F2D3758F50196A11DB11D2093B3
:1011800087028093880290938902A0938A02B09389
:101190008B0280918C0290918D02A0918E02B09171
:1011A0008F020196A11DB11D80938C0290938D0238
:1011B000A0938E02B0938F02BF91AF919F918F91B8
:1011C0003F912F910F900FBE0F901F90189526E81A
:1011D000230F0296A11DB11DD2CF1F920F920FB601
:1011E0000F9211240BB60F922F933F934F935F935F
:1011F0006F937F938F939F93AF93BF93EF93FF93DF
:1012000080E992E00E94A605FF91EF91BF91AF9116
:101210009F918F917F916F915F914F913F912F910E
:101220000F900BBE0F900FBE0F901F9018951F923E
:101230000F920FB60F9211240BB60F922F938F932C
:101240009F93EF93FF93E091A002F091A102808120
:10125000E091A602F091A70282FD1DC090818091CD
:10126000A9028F5F8F732091AA02821741F0E0914B
:10127000A902F0E0E057FD4F958F8093A902FF91FE
:10128000EF919F918F912F910F900BBE0F900FBEFA
:101290000F901F9018958081F2CF1F920F920FB67A
:1012A0000F9211240BB60F922F933F934F935F939E
:1012B0006F937F938F939F93AF93BF93EF93FF931E
:1012C0008DE293E00E94A605FF91EF91BF91AF914F
:1012D0009F918F917F916F915F914F913F912F914E
:1012E0000F900BBE0F900FBE0F901F9018951F927E
:1012F0000F920FB60F9211240BB60F922F938F936C
:101300009F93EF93FF93E0913D03F0913E03808123
:10131000E0914303F091440382FD1DC090818091D0
:1013200046038F5F8F7320914703821741F0E0914E
:101330004603F0E0E35DFC4F958F80934603FF91F9
:10134000EF919F918F912F910F900BBE0F900FBE39
:101350000F901F9018958081F2CFCF92DF92EF927D
:10136000FF920F931F93E82FF92F05C00150110929
:101370002109310961F1908196239417B9F305C0D1
:10138000015011092109310911F19081962394131B
:10139000F7CFC12CD12CE12CF12C0AC08FEFC81A49
:1013A000D80AE80AF80A0C151D052E053F0579F044
:1013B00080818623841791F36C2D7D2D8E2D9F2D9A
:1013C0001F910F91FF90EF90DF90CF90089560E014
:1013D00070E080E090E01F910F91FF90EF90DF9020
:1013E000CF900895E0E9F2E01382128248EE53E0D4
:1013F00060E070E0448355836683778386E492E0FF
:10140000918380832DEC30E0358724872CEC30E00D
:101410003787268728EC30E0318B208B29EC30E0B1
:10142000338B228B2AEC30E0358B248B2EEC30E092
:10143000378B268B118E128E138E148EEDE2F3E015
:1014400013821282448355836683778391838083DA
:1014500085EC90E09587848784EC90E09787868779
:1014600080EC90E0918B808B81EC90E0938B828B71
:1014700082EC90E0958B848B86EC90E0978B868B4A
:10148000118E128E138E148EEAECF3E086E18083C7
:1014900087E1818380E991E09383828314821582BE
:1014A0001682178261E086E10E94B90260E087E15E
:1014B0000C94B902CF93DF9300D01F92CDB7DEB763
:1014C000789484B5826084BD84B5816084BD85B51F
:1014D000826085BD85B5816085BD80916E0081602B
:1014E00080936E00109281008091810082608093D1
:1014F00081008091810081608093810080918000D3
:101500008160809380008091B10084608093B100FD
:101510008091B00081608093B000809191008260E2
:1015200080939100809191008160809391008091DF
:1015300090008160809390008091A10082608093F0
:10154000A1008091A10081608093A1008091A00002
:1015500081608093A00080912101826080932101AD
:10156000809121018160809321018091200181601F
:101570008093200180917A00846080937A0080912A
:101580007A00826080937A0080917A0081608093F3
:101590007A0080917A00806880937A001092C1006E
:1015A00062E08EE10E94B9028EE10E941B02892B4B
:1015B00009F425C110926A028DE293E00E948D0128
:1015C00061E087E00E94B90261E089E00E94B9020F
:1015D00061E086E00E94B90261E088E00E94B90201
:1015E00080E992E00E948D0162E370E080E090E08B
:1015F0000E94F60445E050E06CE072E080E992E081
:101600000E94280546E050E061E172E080E992E046
:101610000E9428058DE293E00E948D0182E0809374
:101620002C028FEF93E0909333028093320220914B
:101630002D0230912E023A83298363E070E0C901C4
:101640000E946A12FC0190932E0280932D02892B36
:1016500009F4D9C086E3808387E3818388E38283AA
:1016600083E080932F02109222021092270264E6F8
:1016700070E080E090E00E94F60461E08DE00E945E
:10168000B90261E08DE00E9444024AEF50E05A83C3
:10169000498361E082E292E00E942F0789819A816A
:1016A00001979A838983892BA1F760E08DE00E94DE
:1016B00044024FE050E064E572E08DE293E00E9466
:1016C000280542E050E064E672E08DE293E00E947B
:1016D00028058DE293E00E948D0161E087E00E9481
:1016E000B90261E089E00E94B90261E086E00E94EF
:1016F000B90261E088E00E94B90261E086E10E94DF
:10170000B90260E087E10E94B9028DE293E00E9495
:101710008D0164EF71E080E090E00E94F60480911A
:101720006A02882341F046E050E067E172E080E918
:1017300092E00E94280568E873E180E090E00E9452
:10174000F60445E050E06DE172E080E992E00E942D
:1017500028059CE3292E312C80912202882309F44C
:1017600057C080E00E94D90641E060E08BE692E03D
:101770000E94F10361E080E00E94720200912F025A
:10178000ABE6B2E0BA83A983C0902502D0902602CE
:10179000E0902302F090240210E00117C9F1D60175
:1017A000ED91FD916D01D7018D919D917D01E81B1A
:1017B000F90BD9F0A981BA812D913C9150E040E01C
:1017C000281B390B41095109A8EEB3E00E94D60E3F
:1017D0009F0150E040E00E94B70E293EB3E03B0776
:1017E00014F028EE33E037FF02C030E020E0E9815A
:1017F000FA8121933193FA83E9831F5FCECF81E091
:1018000080936A02D9CE89819A810E94E1112FCFFB
:10181000E0912F020BE612E0F12CE12CF0E050E019
:1018200040E0812C912C5401D12CEF1721F1D801EB
:101830008D919D918D0128EE33E0281B390B3A8361
:101840002983293C3105A0F42333310558F029813F
:101850003A81D7010E942E0F860E971EA81EB91E30
:10186000420F531FFF5F38E1E31A3CEFF30ADDCF6D
:10187000DD24D394ECCFD1105EC1E150FF0B44EFD7
:1018800051E0E49FC001E59F900DF49F900D11245D
:1018900020913A0230913B022817390708F459C1C8
:1018A000A8EEB3E0EA9FC001EB9F900DFA9F900D68
:1018B00011249A8389830E94CC034B015C0180919F
:1018C000790290917A02A0917B02B0917C02A501ED
:1018D0009401281B390B4A0B5B0BCA01B9010E940A
:1018E0004C1020E034E244E759E40E94A20F6B015F
:1018F0007C018092790290927A02A0927B02B0924F
:101900007C0229813A81A4EBB0E00E94030F20ED14
:1019100037E040E050E00E94B70E6AE570E0621BDD
:101920007109072E000C880B990B0E944C102B019B
:101930003C012091750230917602409177025091DE
:1019400078020E94350FA70196010E94A20F6983B9
:101950007A838B839C83A3019201C701B6010E9405
:10196000D81020917102309172024091730250910F
:1019700074020E94360F6B017C01C0927102D092FA
:101980007202E0927302F09274022DEC3CEC4CE88F
:101990005FE3C301B2010E94D8104B015C0120E05B
:1019A00030E0A90169817A818B819C810E94D810E5
:1019B0009B01AC01C501B4010E94360F4B015C01D3
:1019C00020E030E0A901C701B6010E94D8109B01B8
:1019D000AC01C501B4010E94360F60937D02709383
:1019E0007E0280937F029093800240927502509213
:1019F000760260927702709278020E9414107093BF
:101A000086026093850277FFFDC00E946F06809179
:101A100085029091860297FF03C091958195910967
:101A20006C013CE3C30ED11C7101E81AF90AF7FC02
:101A300093C020E040E06E2D8C2D0E947C062FB7D5
:101A4000F8948091880290918902A0918A02B091C5
:101A50008B022FBF9093840280938302845F914016
:101A600020918102309182022817390708F060C066
:101A700060E08091CA030E94440283E090E00197F5
:101A8000F1F761E08091CA030E94440283E290E092
:101A90000197F1F760E08091CA030E9444026091CF
:101AA000CC037091CD0390E080E00E944A1020E0CA
:101AB00030E040E250E40E94D8102AE23EE74CE0D9
:101AC0005DE30E94A20F0E941B108B019C0180917C
:101AD000CE039091CF03A091D003B091D103009792
:101AE000A105B10539F080179107A207B30710F4DB
:101AF0008C019D018091CB0390E0FC01EC5DFD4FDA
:101B00006491FC01E252FE4FE491F0E0EE0FFF1F02
:101B1000EC53FE4F859194913F70462F0E94AD0982
:101B2000809183029091840290938202809381023B
:101B30000E94350611CE9A0150E040E0C501B40183
:101B40000E94E10E3A83298330933B0220933A02AC
:101B5000B2CE1A821982AFCE0E94620660918502CF
:101B60007091860277FF03C0719561957109072E08
:101B7000000C880B990B0E944C104B015C01B601C4
:101B8000DD0C880B990B0E944C102B013C0120E0CE
:101B900030E040E05FE3C501B4010E94D8109B0132
:101BA000AC01C301B2010E94350F2B013C01B7010A
:101BB000FF0C880B990B0E944C106B017C0120E0FC
:101BC00030E040E450E4C501B4010E94D8109B010C
:101BD000AC01C701B6010E94350F0E9414107A8330
:101BE000698377FF06C0AA27BB27A61BB70BBA835A
:101BF000A983C301B2010E941410862F298140E0FD
:101C000060E01BCF672B09F46EC00E946F068091C5
:101C100085029091860297FF03C091958195910965
:101C20006C01BCE3CB0ED11C7101E81AF90AF7FC78
:101C300005C020E040E06C2D8E2DFFCE0E94620694
:101C4000609185027091860277FF03C0719561955E
:101C50007109072E000C880B990B0E944C104B0148
:101C60005C01B601DD0C880B990B0E944C102B0116
:101C70003C0120E030E040E05FE3C501B4010E9498
:101C8000D8109B01AC01C301B2010E94350F2B019A
:101C90003C01B701FF0C880B990B0E944C106B01A3
:101CA0007C0120E030E040E450E4C501B4010E9432
:101CB000D8109B01AC01C701B6010E94350F0E94EC
:101CC00014107A83698377FF06C022273327261BE7
:101CD000370B3A832983C301B2010E94141020E01C
:101CE000498180E0AACE20E040E06CE38CE3A5CE01
:101CF000809135028F3F31F060E00E94B9028FEF92
:101D000080933502809136028F3F31F060E00E946F
:101D1000B9028FEF809336021092370280912D0224
:101D200090912E02009711F00E94E11180912502FE
:101D300090912602009711F00E94E11180912A02F1
:101D400090912B02009711F00E94E11180912302E3
:101D500090912402009711F00E94E11180912802D5
:101D600090912902009711F00C94E1110895052E2D
:101D700097FB1EF400940E94CE0E57FD07D00E94E0
:101D8000E10E07FC03D04EF40C94CE0E5095409516
:101D9000309521953F4F4F4F5F4F08959095809517
:101DA000709561957F4F8F4F9F4F08950E94030F4D
:101DB000A59F900DB49F900DA49F800D911D11249F
:101DC0000895A1E21A2EAA1BBB1BFD010DC0AA1F7C
:101DD000BB1FEE1FFF1FA217B307E407F50720F094
:101DE000A21BB30BE40BF50B661F771F881F991F0F
:101DF0001A9469F760957095809590959B01AC0158
:101E0000BD01CF010895A29FB001B39FC001A39F60
:101E1000700D811D1124911DB29F700D811D112423
:101E2000911D0895AA1BBB1B51E107C0AA1FBB1F30
:101E3000A617B70710F0A61BB70B881F991F5A9556
:101E4000A9F780959095BC01CD010895EE0FFF1F75
:101E5000881F8BBF0790F691E02D19940E94030F05
:101E6000B7FF0895821B930B08955058BB27AA27EC
:101E70000E944D0F0C949E100E94901038F00E940A
:101E8000971020F039F49F3F19F426F40C948D102C
:101E90000EF4E095E7FB0C948710E92F0E94AF1039
:101EA00058F3BA17620773078407950720F079F48F
:101EB000A6F50C94D1100EF4E0950B2EBA2FA02DA0
:101EC0000B01B90190010C01CA01A0011124FF27E7
:101ED000591B99F0593F50F4503E68F11A16F040E2
:101EE000A22F232F342F4427585FF3CF46953795E1
:101EF0002795A795F0405395C9F77EF41F16BA0BA6
:101F0000620B730B840BBAF09150A1F0FF0FBB1F53
:101F1000661F771F881FC2F70EC0BA0F621F731F9C
:101F2000841F48F4879577956795B795F7959E3FF9
:101F300008F0B0CF9395880F08F09927EE0F97958A
:101F4000879508950E94B60F0C949E100E949710DA
:101F500058F00E94901040F029F45F3F29F00C9453
:101F6000871051110C94D2100C948D100E94AF1058
:101F700068F39923B1F3552391F3951B550BBB27B8
:101F8000AA2762177307840738F09F5F5F4F220FFD
:101F9000331F441FAA1FA9F335D00E2E3AF0E0E8F4
:101FA00032D091505040E695001CCAF72BD0FE2F3E
:101FB00029D0660F771F881FBB1F261737074807D2
:101FC000AB07B0E809F0BB0B802DBF01FF2793588A
:101FD0005F4F3AF09E3F510578F00C9487100C94B7
:101FE000D2105F3FE4F3983ED4F3869577956795DA
:101FF000B795F7959F5FC9F7880F911D96958795BF
:1020000097F90895E1E0660F771F881FBB1F6217DD
:1020100073078407BA0720F0621B730B840BBA0B9B
:10202000EE1F88F7E09508950E941B106894B11187
:102030000C94D21008950E94B71088F09F5798F022
:10204000B92F9927B751B0F0E1F0660F771F881FBD
:10205000991F1AF0BA95C9F714C0B13091F00E94D7
:10206000D110B1E008950C94D110672F782F8827F4
:10207000B85F39F0B93FCCF3869577956795B395FE
:10208000D9F73EF490958095709561957F4F8F4F6D
:102090009F4F0895E89409C097FB3EF49095809572
:1020A000709561957F4F8F4F9F4F9923A9F0F92F1E
:1020B00096E9BB279395F695879577956795B7959C
:1020C000F111F8CFFAF4BB0F11F460FF1BC06F5F82
:1020D0007F4F8F4F9F4F16C0882311F096E911C094
:1020E000772321F09EE8872F762F05C0662371F0B5
:1020F00096E8862F70E060E02AF09A95660F771FC9
:10210000881FDAF7880F9695879597F9089597F9BC
:102110009F6780E870E060E008959FEF80EC08958D
:1021200000240A94161617061806090608950024B6
:102130000A9412161306140605060895092E039430
:10214000000C11F4882352F0BB0F40F4BF2B11F4A4
:1021500060FF04C06F5F7F4F8F4F9F4F089557FD03
:102160009058440F551F59F05F3F71F04795880F05
:1021700097FB991F61F09F3F79F08795089512169C
:1021800013061406551FF2CF4695F1DF08C0161648
:1021900017061806991FF1CF8695710561050894F9
:1021A0000895E894BB2766277727CB0197F9089510
:1021B0000E94EB100C949E100E94901038F00E9428
:1021C000971020F0952311F00C9487100C948D102B
:1021D00011240C94D2100E94AF1070F3959FC1F39C
:1021E000950F50E0551F629FF001729FBB27F00DC5
:1021F000B11D639FAA27F00DB11DAA1F649F66271A
:10220000B00DA11D661F829F2227B00DA11D621F68
:10221000739FB00DA11D621F839FA00D611D221F22
:10222000749F3327A00D611D231F849F600D211D06
:10223000822F762F6A2F11249F5750409AF0F1F089
:1022400088234AF0EE0FFF1FBB1F661F771F881FF2
:1022500091505040A9F79E3F510580F00C94871093
:102260000C94D2105F3FE4F3983ED4F386957795B3
:102270006795B795F795E7959F5FC1F7FE2B880F98
:10228000911D9695879597F908950F931F93CF9376
:10229000DF938230910510F482E090E0E091D40366
:1022A000F091D50330E020E0B0E0A0E0309799F461
:1022B0002115310509F44AC0281B390B243031059A
:1022C000D8F58A819B816115710589F1FB019383A2
:1022D0008283FE0111C04081518102811381481720
:1022E0005907E0F04817590799F4109761F01296D2
:1022F0000C93129713961C933296CF01DF91CF91D6
:102300001F910F9108950093D4031093D503F4CF38
:102310002115310551F04217530738F0A901DB01AF
:102320009A01BD01DF01F801C1CFEF01F9CF909310
:10233000D5038093D403CDCFFE01E20FF31F819329
:1023400091932250310939832883D7CF2091D2032A
:102350003091D303232B41F420913E0230913F0270
:102360003093D3032093D20320913C0230913D025D
:102370002115310541F42DB73EB7409140025091EF
:102380004102241B350BE091D203F091D303E217F5
:10239000F307A0F42E1B3F0B2817390778F0AC0188
:1023A0004E5F5F4F2417350748F04E0F5F1F509365
:1023B000D3034093D203819391939FCFF0E0E0E069
:1023C0009CCFCF93DF930097E9F0FC013297138203
:1023D0001282A091D403B091D503ED0130E020E04A
:1023E0001097A1F420813181820F931F2091D20395
:1023F0003091D3032817390709F061C0F093D30354
:10240000E093D203DF91CF910895EA01CE17DF0761
:10241000E8F54A815B819E0141155105B1F7E9015B
:10242000FB83EA8349915991C40FD51FEC17FD072F
:1024300061F4808191810296840F951FE90199834F
:102440008883828193819B838A83F0E0E0E0129607
:102450008D919C9113970097B9F52D913C9111970F
:10246000CD010296820F931F2091D2033091D303A6
:102470002817390739F6309751F51092D503109285
:10248000D403B093D303A093D203BCCFD383C2832E
:1024900040815181840F951FC817D90761F44E5FA1
:1024A0005F4F88819981480F591F518340838A81EA
:1024B0009B81938382832115310509F0B0CFF0937E
:1024C000D503E093D4039ECFFD01DC01C0CF13827E
:1024D0001282D7CF4F925F926F927F928F929F928C
:1024E000AF92BF92CF92DF92EF92FF920F931F9322
:1024F000CF93DF938C01009799F4CB01DF91CF91BB
:102500001F910F91FF90EF90DF90CF90BF90AF9011
:102510009F908F907F906F905F904F900C9445119B
:10252000FC01E60FF71F9C0122503109E217F30767
:1025300008F4AEC0D901CD91DC911197C617D70729
:1025400020F1C530D10578F0CE01049786179707A2
:1025500050F0C61BD70B2297C193D1936D937C93F8
:10256000CF010E94E111C801DF91CF911F910F911E
:10257000FF90EF90DF90CF90BF90AF909F908F90A3
:102580007F906F905F904F9008955B01AC1ABD0AE9
:102590004C018C0E9D1EA091D403B091D503512CFB
:1025A000412CF12CE12C109731F58091D2039091C0
:1025B000D3038815990509F05CC04616570608F044
:1025C00058C080913C0290913D02009741F48DB734
:1025D0009EB74091400250914102841B950BE81731
:1025E000F90708F055C0F093D303E093D203F90143
:1025F00071836083B8CF8D919C91119712966C90E6
:10260000129713967C901397A815B90559F56C018C
:1026100042E0C40ED11CCA14DB0420F1AC014A19FB
:102620005B09DA011296159780F0628273825183FA
:102630004083D9016D937C93E114F10471F0D701CB
:102640001396FC93EE9312978ECF22968C0F9D1FBC
:10265000F90191838083F301EFCFF093D503E093E9
:10266000D40381CF4816590608F42C017D01D3010B
:102670009ACFCB010E9445117C01009749F0AE0131
:10268000B8010E944B13C8010E94E11187016BCF72
:1026900010E000E068CFFB01DC0102C001900D9268
:1026A00041505040D8F7089511E0C9E5D1E000E06D
:1026B00006C0802FFE010E94260F2196011DCA35FB
:0C26C000D10780E00807A9F7F894FFCFCD
:1026CC007E04030005EF7E04030006EF7E03061272
:1026DC00EF7E04030003EF7E04030002EF7E03068B
:1026EC0017EF0000000000000000000000000000D8
:1026FC00C409C40904FFFF00010000000000D60358
:10270C00800000000000C805280555051506860543
:10271C006405780551545220536574757020446FCC
:08272C006E652E000D0A00008D
:00000001FF
