:100000000C945A010C948B010C948B010C948B0171
:100010000C948B010C948B010C948B010C948B0130
:100020000C948B010C948B010C948B010C948B0120
:100030000C948B010C948B010C948B010C948B0110
:100040000C948B010C948B010C948B010C948B0100
:100050000C948B010C948B010C948B010C94800AF2
:100060000C948B010C94540B0C942A0B0C948B0164
:100070000C948B010C948B010C948B010C948B01D0
:100080000C948B010C948B010C948B010C948B01C0
:100090000C94F40A0C94CA0A0C948B010C948B01F6
:1000A0000C948B010C948B010C948B010C948B01A0
:1000B0000C948B010C948B010C948B010C948B0190
:1000C0000C948B010C948B010C948B010C948B0180
:1000D0000C948B010C948B010C948B010C948B0170
:1000E0000C948B010C947B050C94B2030C949E032E
:1000F0000C94BD050C940D020C9443030C94E00188
:100100000C94D2010C94ED010C9455030C9405024F
:100110000C9417020C9413020C9467030C944D0377
:100120000C940A060C94020F0C94BC030C942A0342
:100130000C941D050C94CF0B0C94DC010C94590508
:100140000C948A030C945D030C9471030C94F701D6
:100150000C944A050C946D050C942F030C94E40147
:100160000C94E7010C9439030C9422030C94D801ED
:100170000C947B030C94A8030C94FB010C940902CF
:100180000C9412020C9494030C94F1010C94FF0152
:1001900000002100240027002A002D003000330039
:1001A00001010000040107010A01000022002500EE
:1001B00028002B002E003100340002010000050150
:1001C00008010B01000020002300260029002C005C
:1001D0002F0032000001000003010601090105059E
:1001E0000505070508080808020202020A0A0808AD
:1001F00004040404010101010101010103030303DB
:1002000003030303040707070C0C0C0C0C0C0C0C69
:100210000202020206060606060606060B0B0B0B7A
:100220000B0B0B0B0102102020080810204010209F
:1002300040800201020108040201010204081020AA
:1002400040808040201008040201800402018040A8
:100250002010080402010804020101020408102011
:100260004080010204081020408000000A0B0209AF
:100270000C0D0E0807030401000000000000000040
:10028000000000000000000000000000000000006E
:10029000000000000000121110000000000000002B
:1002A000000000000000000000000000000000004E
:1002B000CF0B020F11241FBECFEFD1E2DEBFCDBFA7
:1002C00000E00CBF12E0A0E0B2E0E0EEF7E200E0F8
:1002D0000BBF02C007900D92A235B107D9F723E0FA
:1002E000A2E5B2E001C01D92AF3BB207E1F711E019
:1002F000C9E5D1E000E006C021970109802FFE0189
:100300000E94B00FC835D10780E00807A9F70E9406
:10031000370C0C94DE130C940000FC01A089B18909
:1003200082E08C93A485B5851C92A685B7858FEC59
:100330008C93108EA489B58986E08C93A289B389A9
:100340008C9180618C93A289B3898C9188608C9305
:10035000A289B3898C9180688C930288F389E02DFF
:1003600080818F7D808308958150823108F05AC04A
:10037000E82FF0E08827E054FE4F8F4F0C94B00F29
:10038000E001E401D201D801DC011202E701ED0134
:10039000F101F701FB01FF010502090212020D0242
:1003A00013021702809180008F7780938000089558
:1003B000809180008F7DF9CF80918000877FF5CF7D
:1003C00084B58F7784BD089584B58F7DFBCF8091F0
:1003D000B0008F778093B00008958091B0008F7D3A
:1003E000F9CF809190008F7780939000089580914D
:1003F00090008F7DF9CF80919000877FF5CF80911D
:10040000A0008F778093A00008958091A0008F7D39
:10041000F9CF8091A000877FF5CF809120018F7761
:10042000809320010895809120018F7DF9CF8091E4
:100430002001877FF5CFCF93DF93282F30E0F9019C
:10044000E659FD4F8491F901EC5DFD4FD491F9011E
:10045000E252FE4FC491CC23A1F081110E94B4015D
:10046000EC2FF0E0EE0FFF1FEC53FE4FA591B4917F
:10047000EC91ED2381E090E009F480E0DF91CF91F1
:10048000089580E090E0FACF1F93CF93DF93282F59
:1004900030E0F901E659FD4F8491F901EC5DFD4F23
:1004A000D491F901E252FE4FC491CC23A9F0162F4A
:1004B00081110E94B401EC2FF0E0EE0FFF1FE65512
:1004C000FE4FA591B4918FB7F894EC91111108C02B
:1004D000D095DE23DC938FBFDF91CF911F910895DC
:1004E000DE2BF8CF1F93CF93DF93C82F162F8823CF
:1004F00039F0809120028230A9F5D0E0C130A1F41A
:1005000080911E028F3F59F00E941B02019739F41F
:1005100060E080911E020E944402D1E001C0D0E060
:10052000809120028230D1F4CD7FC1F480911F02EE
:100530008F3FA1F00E941B02019781F460E080913F
:100540001F020E944402112369F080912102882336
:1005500069F08BEB92E10197F1F704C0112311F0E0
:10056000D111F3CFDF91CF911F9108958BE193E0EB
:10057000F2CFCF93DF9390E0FC01EC5DFD4F24912F
:1005800082529E4FFC0184918823D1F090E0880F25
:10059000991FFC01E057FE4FA591B491FC01E6556F
:1005A000FE4FC591D49161110EC09FB7F8948C9104
:1005B000E22FE0958E238C932881E223E8839FBF6E
:1005C000DF91CF9108958FB7F894EC91E22BEC93E3
:1005D0008FBFF6CF1F93CF93DF93182FEB0161E00E
:1005E0000E94B902209739F460E0812FDF91CF910A
:1005F0001F910C944402CF3FD10511F461E0F5CF77
:10060000E12FF0E0E659FD4FE491E150E23108F0CE
:10061000B3C0F0E08827E05FFC4F8F4F0C94B00F21
:1006200022032A032F0339034303BC034D0355035D
:100630005D03670371037B038A039403BC039E037A
:10064000A803B20384B5806884BDC7BDDF91CF9194
:100650001F91089584B5806284BDC8BDF7CF809195
:100660008000806880938000D0938900C0938800C8
:10067000EDCF80918000806280938000D0938B00CA
:10068000C0938A00E3CF80918000886080938000CF
:10069000D0938D00C0938C00D9CF8091B00080683A
:1006A0008093B000C093B300D1CF8091B00080623E
:1006B0008093B000C093B400C9CF8091900080684F
:1006C00080939000D0939900C0939800BFCF809101
:1006D0009000806280939000D0939B00C0939A001A
:1006E000B5CF80919000886080939000D0939D005A
:1006F000C0939C00ABCF8091A00080688093A00045
:100700008091A0008F7B8093A000D093A900C0931C
:10071000A8009CCF8091A00080628093A000D0931D
:10072000AB00C093AA0092CF8091A0008860809314
:10073000A000D093AD00C093AC0088CF8091200181
:10074000806880932001D0932901C09328017ECF37
:1007500080912001806280932001D0932B01C0936F
:100760002A0174CF80912001886080932001D0936A
:100770002D01C0932C016ACFC038D1050CF03ECFBB
:1007800033CF3FB7F8948091750290917602A09193
:100790007702B091780226B5A89B05C02F3F19F0CB
:1007A0000196A11DB11D3FBFBA2FA92F982F8827F1
:1007B000BC01CD01620F711D811D911D42E0660FCC
:1007C000771F881F991F4A95D1F708957F928F92BE
:1007D0009F92AF92BF92CF92DF92EF92FF920F93D0
:1007E0001F93CF93DF938C01C62FD42F2091160235
:1007F000309117022115310539F0809115028130B1
:1008000089F0823009F482C0DF91CF911F910F915E
:10081000FF90EF90DF90CF90BF90AF909F908F9020
:100820007F900895F62E80911802F81618F5CF2CB7
:10083000D12C80911B0290911C02F601EE0FFF1F3C
:10084000E00FF11F91838083E0911602F09117026F
:10085000EC0DFD1D61E080810E94B902E09116025D
:10086000F0911702EC0DFD1D61E080810E944402B1
:10087000FD0ED9CF83E290E00197F1F7F8940E9442
:10088000C1034B01FC2E80911802F81660F4E09130
:100890001602F0911702EF0DF11D60E080810E94B9
:1008A000B902FD0EF0CF7894D12CC12C80911B029F
:1008B00090911C02C816D90608F0A6CFF8940E94A1
:1008C000C1036B01C818D9087C2E809118027816D4
:1008D000D8F4E72CF12CE0911602F0911702EE0DFE
:1008E000FF1D80810E941B02892B61F4EE0CFF1C0E
:1008F000F801EE0DFF1D80819181C816D90610F414
:10090000D182C0827D0EE1CF7894D0CF862F909196
:100910001802891750F4E82FF0E0EE0FFF1FE00FE8
:10092000F11F118210828D0FF2CF40E080911D02E5
:100930004817B0F59C2F80911802981778F5E92F89
:10094000F0E0D901AE0FBF1F8C91863308F08653BB
:1009500060917B00582F5870677F562B50937B0017
:100960008770806480937C0080917A00806480939B
:100970007A0080917A0086FDFCCFA091780060918A
:100980007900EE0FFF1FE00FF11FB62F608171811C
:100990006A0F7B1F718360839D0FCDCF4F5FC6CFE2
:1009A00080911802C81708F02FCFEC2FF0E0EE0F5F
:1009B000FF1FE00FF11F60911D0270E0CB019595C4
:1009C000879520813181820F931F0E949C0F718334
:1009D0006083CD0FE5CF8F929F92AF92BF92CF925F
:1009E000DF92EF92FF924B015C010E94C1036B0109
:1009F0007C010E94C1036C197D098E099F09683E24
:100A0000734081059105A8F321E0821A9108A1089D
:100A1000B10888EEC80E83E0D81EE11CF11C8114D9
:100A20009104A104B10429F7FF90EF90DF90CF90DB
:100A3000BF90AF909F908F900895AF92BF92CF924A
:100A4000DF92EF92FF920F931F93CF93DF936C018E
:100A50007B018B01040F151FEB015E01AE18BF086F
:100A6000C017D10759F06991D601ED91FC91019021
:100A7000F081E02DC6011995892B79F7C501DF9129
:100A8000CF911F910F91FF90EF90DF90CF90BF908B
:100A9000AF900895FC01538D448D252F30E0842FB5
:100AA00090E0821B930B541710F0CF960895019796
:100AB0000895FC01918D828D981761F0A28DAE0F83
:100AC000BF2FB11D5D968C91928D9F5F9F73928F0A
:100AD00090E008958FEF9FEF0895FC01918D828D36
:100AE000981731F0828DE80FF11D858D90E0089503
:100AF0008FEF9FEF0895FC01918D228D892F90E05B
:100B0000805C9F4F821B91098F739927089589E715
:100B100092E00E947B0521E0892B09F420E0822FDE
:100B2000089586E193E00E947B0521E0892B09F47A
:100B300020E0822F0895FC01A48DA80FB92FB11DCC
:100B4000A35ABF4F2C91848D90E001968F73992703
:100B5000848FA689B7892C93A089B1898C918370E1
:100B600080648C93938D848D981306C00288F389DA
:100B7000E02D80818F7D80830895EF92FF920F9307
:100B80001F93CF93DF93EC0181E0888F9B8D8C8D39
:100B900098131AC0E889F989808185FF15C09FB72D
:100BA000F894EE89FF896083E889F98980818370F0
:100BB000806480839FBF81E090E0DF91CF911F919F
:100BC0000F91FF90EF900895F62E0B8D10E00F5FC0
:100BD0001F4F0F731127E02E8C8D8E110CC00FB696
:100BE00007FCFACFE889F989808185FFF5CFCE012E
:100BF0000E949B05F1CFEB8DEC0FFD2FF11DE35A09
:100C0000FF4FF0829FB7F8940B8FEA89FB898081B0
:100C10008062CFCFCF93DF93EC01888D8823B9F02A
:100C2000AA89BB89E889F9898C9185FD03C08081F7
:100C300086FD0DC00FB607FCF7CF8C9185FFF2CF74
:100C4000808185FFEDCFCE010E949B05E9CFDF912A
:100C5000CF91089580E090E0892B29F00E949105C2
:100C600081110E94000080E090E0892B29F00E9411
:100C7000870581110E94000080E090E0892B49F0F7
:100C800080E090E0892B29F00E94000081110E94F1
:100C9000000080E090E0892B49F080E090E0892B13
:100CA00029F00E94000081110C94000008954F92D9
:100CB0005F926F927F928F929F92AF92BF92CF92EC
:100CC000DF92EF92FF92782E0E94C1034B015C01EC
:100CD0008091620290916302A0916402B0916502DA
:100CE000A5019401281B390B4A0B5B0BCA01B90102
:100CF0000E94D61020E034E244E759E40E942C1010
:100D00006B017C018092620290926302A092640265
:100D1000B09265026AE570E067197109072E000C50
:100D2000880B990B0E94D6104B015C0120915E024A
:100D300030915F0240916002509161020E94BF0FAA
:100D4000A70196010E942C102B013C01A7019601DE
:100D5000C501B4010E94621120915A0230915B02D8
:100D600040915C0250915D020E94C00F6B017C01BA
:100D7000C0925A02D0925B02E0925C02F0925D0255
:100D800080925E0290925F02A0926002B092610235
:100D90002DEC3CEC4CE85FE3C501B4010E9462110C
:100DA0004B015C0120E030E0A901C301B2010E94C7
:100DB00062119B01AC01C501B4010E94C00F4B013F
:100DC0005C0120E030E0A901C701B6010E94621178
:100DD0009B01AC01C501B4010E94C00F0E949E108E
:100DE000CB01FF90EF90DF90CF90BF90AF909F909E
:100DF0008F907F906F905F904F9008951F93CF9347
:100E0000DF93162FD42FC22F682F70E086E00E9448
:100E1000EA02612F70E088E00E94EA026D2F70E024
:100E200087E00E94EA026C2F70E089E0DF91CF91A9
:100E30001F910C94EA02CF92DF92EF92FF92CF9330
:100E4000DF93C82F80912102882369F08C2F0E94A4
:100E50001B02019741F460E08C2F0E9444028BEB4F
:100E600092E10197F1F761E08C2F0E9444020E9409
:100E7000C1036B01809121028823A9F08091220295
:100E8000882389F0F894D0E080912202D81750F49A
:100E900060E08C2F0E94440261E08C2F0E9444028B
:100EA000DF5FF2CF7894C601DF91CF91FF90EF9092
:100EB000DF90CF9008950F931F93CF93DF93C82FA8
:100EC000882359F180912002823029F1D0E080916D
:100ED00020028230D1F5CD7FC1F580911F028F3F76
:100EE000A1F190912102992361F180911F020E944A
:100EF0001B078C0180912102882371F1C3E2D0E0AD
:100F00000E94C103601B710B6C32714000F5CE0171
:100F10000197F1F7F5CFC130C9F680911E028F3FDE
:100F2000A9F290912102992339F080911E020E942A
:100F30001B078C01D1E0CBCF0E941B02892BA9F3A8
:100F4000C5CF0E941B02892B81F2D111D3CFDF9133
:100F5000CF911F910F9108958BE193E00197F1F7E5
:100F6000F6CF7F928F929F92AF92BF92CF92DF92F5
:100F7000EF92FF920F931F93CF93DF9380910B0219
:100F8000882309F446C080E00E945B0741E060E0EE
:100F900084E592E00E94E60361E080E00E94720234
:100FA000C0901802C4E5D2E000910E0210910F0229
:100FB000E0900C02F0900D02D12CCD1451F1D8012B
:100FC000ED91FD918D01D7018D919D917D01E81BE2
:100FD000F90BC9F02881398150E040E0281B390B1A
:100FE00041095109A8EEB3E00E94600F9F0150E053
:100FF00040E00E94410F293EB3E03B0714F028EE89
:1010000033E037FF02C030E020E029933993D394D6
:10101000D4CF9090180204E512E0D0E0C0E0812C1B
:1010200050E040E0C12CD12C7601712C88EEA82E26
:1010300083E0B82E9814F1F0F801819191918F011D
:10104000F501E81BF90BE93CF10588F4E333F10500
:1010500050F09F01DE010E94B80FC60ED71EE81E99
:10106000F91E4E0F5F1F8394C851DC4FE3CF7724E6
:101070007394EFCF711039C0292D2150330BC90162
:1010800044EF51E0849F9001859F300D949F300D77
:101090001124409123025091240270E060E0421735
:1010A000530748F028EE33E0829FB001839F700D14
:1010B000929F700D11249B01A4EBB0E00E948D0F54
:1010C00020ED37E040E050E00E94410F822FDF9199
:1010D000CF911F910F91FF90EF90DF90CF90BF9035
:1010E000AF909F908F907F9008959A0150E040E0DC
:1010F000C701B6010E946B0FB901309324022093FF
:101100002302D9CFFC0101900020E9F73197AF010C
:10111000481B590BBC0186E193E00C941D058F928E
:101120009F92AF92BF92CF92DF92EF92FF920F9376
:101130001F93CF93DF93CDB7DEB7A1970FB6F89487
:10114000DEBF0FBECDBF6C01990FEE08FF08F7FEA2
:1011500041C06DE286E193E00E94BD058C0122272B
:101160003327A9012C193D094E095F0919A2CE01A7
:1011700081967C019AE0892E912CA12CB12CCA0178
:10118000B901A50194010E946B0F605DF7016293A4
:101190007F01211531054105510589F790E080E077
:1011A000309719F0CF010E948208800F911FA196FD
:1011B0000FB6F894DEBF0FBECDBFDF91CF911F9168
:1011C0000F91FF90EF90DF90CF90BF90AF909F90E6
:1011D0008F900895A701960119A28E010F5D1F4FF0
:1011E0008AE0C82ED12CE12CF12CCA01B901A7014B
:1011F00096010E946B0F605DF80162938F012115CB
:1012000031054105510589F790E080E0309779F28A
:10121000CF010E948208CBCF8F929F92AF92BF9254
:10122000CF92DF92EF92FF920F931F93CF93DF93B2
:10123000CDB7DEB7C85FD1090FB6F894DEBF0FBED9
:10124000CDBF8C01D62EDC018C91811157C0139635
:10125000ED90FC906091180270E0660F771FC70157
:101260000E94F412F80194838383892BB9F4C70197
:101270000E946B12C850DF4F0FB6F894DEBF0FBE4E
:10128000CDBFDF91CF911F910F91FF90EF90DF9035
:10129000CF90BF90AF909F908F900895E180F280A3
:1012A0006091180270E0660F771FC7010E94F41268
:1012B000AC01F8019283818390E041155105B9F2A8
:1012C000809118029817B8F4292F30E0220F331FAD
:1012D000D8011396ED91FC91E20FF31F1182108259
:1012E00060911B0270911C02240F351FF90171835C
:1012F00060839F5FE5CF81E0D8018C93C12C43E2EE
:10130000E42EF12CB1E0DB1638F0E2E0ED15D0F57B
:10131000F3E0DF1609F46DC061E080E00E94720224
:1013200041E060E0CE0185549F4F0E94E603A0900B
:1013300018024E018FE3880E911CFE01E358FF4F07
:101340009E0125543F4FB12CAF01AB1409F4A1C04D
:10135000D9018D919D919D01CC2009F492C06081AD
:1013600071816817790708F48CC0D4016D917C9164
:101370008617970708F489C0B394B2E08B0E911CCE
:101380003296E3CF80E00E945B0741E060E0CE014F
:1013900085549F4F0E94E60361E080E00E94720244
:1013A000A2E0DA12C4CF41E060E0CE0101960E94D3
:1013B000E6037091180220911B0230911C02FE017D
:1013C000E554FF4FDE01119660E0761709F4AFCFC8
:1013D0004D915D9180819181820F931F841B950BAC
:1013E0002817390708F44AC0918380836F5F3296CB
:1013F000ECCF60E082E00E9472020E94C1034B01C8
:1014000081E00E945B0780912102882359F00E94AD
:10141000C10368197909603B744020F4C701019742
:10142000F1F7F5CF42E060E0CE0185549F4F0E9476
:10143000E60360E081E00E9472020E94C1034B015A
:1014400082E00E945B0780912102882359F00E946C
:10145000C10368197909603B744020F4C701019702
:10146000F1F7F5CF42E061E0CE0185549F4F0E9435
:10147000E60361E080E00E94720259CF318320834D
:10148000B5CF91838083C11070CFD4018D939C938D
:1014900073CFC394EAE0CE1235CF20E080911802DA
:1014A000281708F0E7CE822F90E0880F991FE1E01F
:1014B000F0E0EC0FFD1FE80FF91F66AD77ADD80126
:1014C0001396ED91FC91E80FF91FA081B181A61749
:1014D000B70710F471836083FA01E80FF91F608188
:1014E0007181D8011196ED91FC91E80FF91F80816F
:1014F00091816817790710F4718360832F5FCECFD5
:101500001F920F920FB60F9211242F933F938F9338
:101510009F93AF93BF938091710290917202A091BB
:101520007302B09174023091700223E0230F2D37C3
:1015300058F50196A11DB11D209370028093710290
:1015400090937202A0937302B0937402809175021B
:1015500090917602A0917702B09178020196A11D38
:10156000B11D8093750290937602A0937702B09399
:101570007802BF91AF919F918F913F912F910F90E2
:101580000FBE0F901F90189526E8230F0296A11DFD
:10159000B11DD2CF1F920F920FB60F9211240BB62E
:1015A0000F922F933F934F935F936F937F938F93FC
:1015B0009F93AF93BF93EF93FF9389E792E00E94CD
:1015C0009B05FF91EF91BF91AF919F918F917F917B
:1015D0006F915F914F913F912F910F900BBE0F90A4
:1015E0000FBE0F901F9018951F920F920FB60F927B
:1015F00011240BB60F922F938F939F93EF93FF932A
:10160000E0918902F0918A028081E0918F02F0914D
:10161000900282FD1DC09081809192028F5F8F7336
:1016200020919302821741F0E0919202F0E0E75896
:10163000FD4F958F80939202FF91EF919F918F9133
:101640002F910F900BBE0F900FBE0F901F9018950B
:101650008081F2CF1F920F920FB60F9211240BB61A
:101660000F922F933F934F935F936F937F938F933B
:101670009F93AF93BF93EF93FF9386E193E00E9414
:101680009B05FF91EF91BF91AF919F918F917F91BA
:101690006F915F914F913F912F910F900BBE0F90E3
:1016A0000FBE0F901F9018951F920F920FB60F92BA
:1016B00011240BB60F922F938F939F93EF93FF9369
:1016C000E0912603F09127038081E0912C03F091B3
:1016D0002D0382FD1DC0908180912F038F5F8F733A
:1016E00020913003821741F0E0912F03F0E0EA5E91
:1016F000FC4F958F80932F03FF91EF919F918F91D6
:101700002F910F900BBE0F900FBE0F901F9018954A
:101710008081F2CFCF92DF92EF92FF920F931F93CF
:10172000E82FF92F05C0015011092109310961F194
:10173000908196239417B9F305C00150110921092E
:10174000310911F1908196239413F7CFC12CD12C3C
:10175000E12CF12C0AC08FEFC81AD80AE80AF80A5F
:101760000C151D052E053F0579F080818623841711
:1017700091F36C2D7D2D8E2D9F2D1F910F91FF903C
:10178000EF90DF90CF90089560E070E080E090E00F
:101790001F910F91FF90EF90DF90CF900895E9E7B0
:1017A000F2E01382128248EE53E060E070E044837E
:1017B0005583668377838FE292E0918380832DEC5B
:1017C00030E0358724872CEC30E03787268728ECFB
:1017D00030E0318B208B29EC30E0338B228B2AECEC
:1017E00030E0358B248B2EEC30E0378B268B118E3E
:1017F000128E138E148EE6E1F3E01382128244837C
:101800005583668377839183808385EC90E0958709
:10181000848784EC90E09787868780EC90E0918BBA
:10182000808B81EC90E0938B828B82EC90E0958BA7
:10183000848B86EC90E0978B868B118E128E138EA4
:10184000148EE3EBF3E086E1808387E1818380E916
:1018500091E093838283148215821682178261E05D
:1018600086E10E94B90260E087E10C94B9027894A5
:1018700084B5826084BD84B5816084BD85B5826095
:1018800085BD85B5816085BD80916E008160809346
:101890006E001092810080918100826080938100AF
:1018A00080918100816080938100809180008160BF
:1018B000809380008091B10084608093B10080911A
:1018C000B00081608093B00080919100826080932D
:1018D00091008091910081608093910080919000AF
:1018E0008160809390008091A10082608093A1002C
:1018F0008091A10081608093A1008091A00081600F
:101900008093A000809121018260809321018091C9
:101910002101816080932101809120018160809369
:10192000200180917A00846080937A0080917A000F
:10193000826080937A0080917A00816080937A003F
:1019400080917A00806880937A001092C10086E1CD
:1019500093E00E948D0189E792E00E948D0162E38D
:1019600070E080E090E00E94EB0445E050E060E031
:1019700072E089E792E00E941D0546E050E065E0D4
:1019800072E089E792E00E941D0586E193E00E94E3
:101990008D0182E0809315028FEF93E090931C02FB
:1019A00080931B02C0911602D091170263E070E091
:1019B000CE010E94F412FC0190931702809316024C
:1019C000892B09F472C086E3808387E3818388E3EF
:1019D000828383E08093180210920B02109210020F
:1019E00064E670E080E090E00E94EB0461E08DE04E
:1019F0000E94B90261E08DE00E944402CAEFD0E08B
:101A000061E08BE092E00E940C092197C9F760E049
:101A10008DE00E9444028DE392E00E9482088DE4F2
:101A200092E00E94820886E193E00E948D0161E0CD
:101A300087E00E94B90261E089E00E94B90261E09A
:101A400086E00E94B90261E088E00E94B90261E08C
:101A500086E10E94B90260E087E10E94B90286E156
:101A600093E00E948D0164EF71E080E090E00E94BD
:101A7000EB049CE3E92EF12C23E0222E312C0E9472
:101A8000B1070E94570690936F0280936E0297FFF2
:101A9000A9C08701081B190BEC01EC96D7FD09C002
:101AA00020E040E06C2F802F4EC0CE010E946B12D0
:101AB00097CF66277727681B790B072E000C880BBA
:101AC000990B0E94D6102B013C01B801110F880B15
:101AD000990B0E94D6104B015C0120E030E040E001
:101AE0005FE3C301B2010E9462119B01AC01C50119
:101AF000B4010E94BF0F0E949E10D62E062F172FF2
:101B0000BE01DD0F880B990B0E94D6104B015C01C2
:101B100020E030E040E450E4C301B2010E946211D1
:101B20009B01AC01C501B4010E94BF0F0E949E1031
:101B3000EB019B0177FF04C022273327261B370BBD
:101B400040E060E08D2D0E94FE0680916E02909133
:101B50006F02892B21F010926D0210926C022FB748
:101B6000F8948091710290917202A0917302B091E9
:101B700074022FBF20916C0230916D022115310546
:101B800009F4A1C0845691098217930708F49BC0F9
:101B900020E040E060E080E00E94FE0668EC70E03B
:101BA00080E090E00E94EB0410926D0210926C02B3
:101BB00010926B0210926A0280916A0290916B02FD
:101BC00005970CF080C00E94B1070E9457069093C1
:101BD0006B0280936A0220E042E864E680E00E94A3
:101BE000FE06EACF009709F44EC0EC01EC9687019F
:101BF000081B190B17FF54CFBC01990F880B990BC9
:101C00000E94D6102B013C01BE01DD0F880B990B01
:101C10000E94D6104B015C0120E030E040E05FE321
:101C2000C301B2010E9462119B01AC01C501B40164
:101C30000E94BF0F0E949E10D62EC62FD72FB8012C
:101C4000110F880B990B0E94D6104B015C0120E00C
:101C500030E040E450E4C301B2010E9462119B01F4
:101C6000AC01C501B4010E94BF0F0E949E108B0100
:101C7000AB0177FF04C044275527461B570B20E0D4
:101C80006D2D80E060CF20E040E06CE38CE30E94AB
:101C9000FE0680916C0290916D02892B79F42FB72A
:101CA000F8948091710290917202A0917302B091A8
:101CB00074022FBF90936D0280936C02CCE3D0E04E
:101CC0000CE310E042CF90E080E00E948F0880E5B6
:101CD00092E00E94820880916E0290916F020E94B1
:101CE0008F0880E592E00E948208C8010E948F0858
:101CF00080E592E00E948208CE010E948F088FE466
:101D000092E00E9482088DE492E00E9482082FB740
:101D1000F8948091710290917202A0917302B09137
:101D200074022FBF9093690280936802845F914090
:101D300020916602309167022817390708F05FC0CA
:101D400060E08091B3030E944402C1010197F1F762
:101D500061E08091B3030E94440283E290E0019726
:101D6000F1F760E08091B3030E9444026091B503F3
:101D70007091B60390E080E00E94D41020E030E043
:101D800040E250E40E9462112AE23EE74CE05DE34B
:101D90000E942C100E94A5108B019C018091B7031A
:101DA0009091B803A091B903B091BA030097A1052F
:101DB000B10539F080179107A207B30710F48C0121
:101DC0009D018091B40390E0FC01EC5DFD4F6491B6
:101DD000FC01E252FE4FE491F0E0EE0FFF1FEC53E6
:101DE000FE4F859194913F70462F0E948A0B8091FF
:101DF00068029091690290936702809366020E9444
:101E00002A063DCE80911E028F3F31F060E00E9495
:101E1000B9028FEF80931E0280911F028F3F31F035
:101E200060E00E94B9028FEF80931F02109220029F
:101E30008091160290911702009711F00E946B1288
:101E400080910E0290910F02009711F00E946B1288
:101E50008091130290911402009711F00E946B126E
:101E600080910C0290910D02009711F00E946B126C
:101E70008091110290911202009711F00C946B1254
:101E80000895052E97FB1EF400940E94580F57FDED
:101E900007D00E946B0F07FC03D04EF40C94580F30
:101EA00050954095309521953F4F4F4F5F4F089586
:101EB00090958095709561957F4F8F4F9F4F0895B6
:101EC0000E948D0FA59F900DB49F900DA49F800D33
:101ED000911D11240895A1E21A2EAA1BBB1BFD011E
:101EE0000DC0AA1FBB1FEE1FFF1FA217B307E407F9
:101EF000F50720F0A21BB30BE40BF50B661F771F51
:101F0000881F991F1A9469F7609570958095909530
:101F10009B01AC01BD01CF010895A29FB001B39F09
:101F2000C001A39F700D811D1124911DB29F700DE2
:101F3000811D1124911D0895AA1BBB1B51E107C0EF
:101F4000AA1FBB1FA617B70710F0A61BB70B881F49
:101F5000991F5A95A9F780959095BC01CD010895D8
:101F6000EE0FFF1F881F8BBF0790F691E02D19948D
:101F70000E948D0FB7FF0895821B930B0895505850
:101F8000BB27AA270E94D70F0C9428110E941A1170
:101F900038F00E94211120F039F49F3F19F426F403
:101FA0000C9417110EF4E095E7FB0C941111E92F36
:101FB0000E94391158F3BA1762077307840795070F
:101FC00020F079F4A6F50C945B110EF4E0950B2E3D
:101FD000BA2FA02D0B01B90190010C01CA01A0017B
:101FE0001124FF27591B99F0593F50F4503E68F1D6
:101FF0001A16F040A22F232F342F4427585FF3CF17
:10200000469537952795A795F0405395C9F77EF4E7
:102010001F16BA0B620B730B840BBAF09150A1F030
:10202000FF0FBB1F661F771F881FC2F70EC0BA0FB6
:10203000621F731F841F48F4879577956795B7953E
:10204000F7959E3F08F0B0CF9395880F08F0992739
:10205000EE0F9795879508950E9440100C942811D3
:102060000E94211158F00E941A1140F029F45F3F9C
:1020700029F00C94111151110C945C110C9417114E
:102080000E94391168F39923B1F3552391F3951BFD
:10209000550BBB27AA2762177307840738F09F5F89
:1020A0005F4F220F331F441FAA1FA9F335D00E2EF6
:1020B0003AF0E0E832D091505040E695001CCAF763
:1020C0002BD0FE2F29D0660F771F881FBB1F261726
:1020D00037074807AB07B0E809F0BB0B802DBF01FD
:1020E000FF2793585F4F3AF09E3F510578F00C94CC
:1020F00011110C945C115F3FE4F3983ED4F3869584
:1021000077956795B795F7959F5FC9F7880F911DEC
:102110009695879597F90895E1E0660F771F881FD8
:10212000BB1F621773078407BA0720F0621B730B8B
:10213000840BBA0BEE1F88F7E09508950E94A51056
:102140006894B1110C945C1108950E94411188F0BB
:102150009F5798F0B92F9927B751B0F0E1F0660F6B
:10216000771F881F991F1AF0BA95C9F714C0B130AC
:1021700091F00E945B11B1E008950C945B11672F00
:10218000782F8827B85F39F0B93FCCF386957795DB
:102190006795B395D9F73EF49095809570956195C4
:1021A0007F4F8F4F9F4F0895E89409C097FB3EF4EF
:1021B00090958095709561957F4F8F4F9F4F992394
:1021C000A9F0F92F96E9BB279395F6958795779512
:1021D0006795B795F111F8CFFAF4BB0F11F460FFD2
:1021E0001BC06F5F7F4F8F4F9F4F16C0882311F02A
:1021F00096E911C0772321F09EE8872F762F05C03E
:10220000662371F096E8862F70E060E02AF09A95D8
:10221000660F771F881FDAF7880F9695879597F9CD
:10222000089597F99F6780E870E060E008959FEF58
:1022300080EC089500240A9416161706180609065D
:10224000089500240A94121613061406050608952C
:10225000092E0394000C11F4882352F0BB0F40F4B4
:10226000BF2B11F460FF04C06F5F7F4F8F4F9F4FF4
:10227000089557FD9058440F551F59F05F3F71F076
:102280004795880F97FB991F61F09F3F79F08795DD
:102290000895121613061406551FF2CF4695F1DF66
:1022A00008C0161617061806991FF1CF86957105F6
:1022B000610508940895E894BB2766277727CB012A
:1022C00097F908950E9475110C9428110E941A1113
:1022D00038F00E94211120F0952311F00C94111177
:1022E0000C94171111240C945C110E94391170F395
:1022F000959FC1F3950F50E0551F629FF001729FAB
:10230000BB27F00DB11D639FAA27F00DB11DAA1FB9
:10231000649F6627B00DA11D661F829F2227B00D06
:10232000A11D621F739FB00DA11D621F839FA00D91
:10233000611D221F749F3327A00D611D231F849FE1
:10234000600D211D822F762F6A2F11249F57504038
:102350009AF0F1F088234AF0EE0FFF1FBB1F661FB3
:10236000771F881F91505040A9F79E3F510580F07C
:102370000C9411110C945C115F3FE4F3983ED4F37C
:10238000869577956795B795F795E7959F5FC1F720
:10239000FE2B880F911D9695879597F908950F93B9
:1023A0001F93CF93DF938230910510F482E090E089
:1023B000E091BD03F091BE0330E020E0B0E0A0E08A
:1023C000309799F42115310509F44AC0281B390BBF
:1023D00024303105D8F58A819B816115710589F119
:1023E000FB0193838283FE0111C0408151810281F0
:1023F000138148175907E0F04817590799F41097C7
:1024000061F012960C93129713961C933296CF019B
:10241000DF91CF911F910F9108950093BD03109309
:10242000BE03F4CF2115310551F04217530738F0A0
:10243000A901DB019A01BD01DF01F801C1CFEF0164
:10244000F9CF9093BE038093BD03CDCFFE01E20F81
:10245000F31F819391932250310939832883D7CF79
:102460002091BB033091BC03232B41F42091270220
:10247000309128023093BC032093BB0320912502A6
:10248000309126022115310541F42DB73EB7409118
:10249000290250912A02241B350BE091BB03F091D5
:1024A000BC03E217F307A0F42E1B3F0B28173907D4
:1024B00078F0AC014E5F5F4F2417350748F04E0FA0
:1024C0005F1F5093BC034093BB03819391939FCFB5
:1024D000F0E0E0E09CCFCF93DF930097E9F0FC01C0
:1024E000329713821282A091BD03B091BE03ED0119
:1024F00030E020E01097A1F420813181820F931FFA
:102500002091BB033091BC032817390709F061C043
:10251000F093BC03E093BB03DF91CF910895EA01F0
:10252000CE17DF07E8F54A815B819E014115510511
:10253000B1F7E901FB83EA8349915991C40FD51F93
:10254000EC17FD0761F4808191810296840F951F3D
:10255000E90199838883828193819B838A83F0E058
:10256000E0E012968D919C9113970097B9F52D910B
:102570003C911197CD010296820F931F2091BB03CE
:102580003091BC032817390739F6309751F510926E
:10259000BE031092BD03B093BC03A093BB03BCCF9A
:1025A000D383C28340815181840F951FC817D907F7
:1025B00061F44E5F5F4F88819981480F591F5183A5
:1025C00040838A819B81938382832115310509F0A1
:1025D000B0CFF093BE03E093BD039ECFFD01DC01BD
:1025E000C0CF13821282D7CF4F925F926F927F92A9
:1025F0008F929F92AF92BF92CF92DF92EF92FF9213
:102600000F931F93CF93DF938C01009799F4CB0125
:10261000DF91CF911F910F91FF90EF90DF90CF90BE
:10262000BF90AF909F908F907F906F905F904F90F2
:102630000C94CF11FC01E60FF71F9C0122503109C9
:10264000E217F30708F4AEC0D901CD91DC911197E0
:10265000C617D70720F1C530D10578F0CE01049711
:102660008617970750F0C61BD70B2297C193D193BB
:102670006D937C93CF010E946B12C801DF91CF91C3
:102680001F910F91FF90EF90DF90CF90BF90AF9090
:102690009F908F907F906F905F904F9008955B0117
:1026A000AC1ABD0A4C018C0E9D1EA091BD03B091C9
:1026B000BE03512C412CF12CE12C109731F5809167
:1026C000BB039091BC038815990509F05CC04616C0
:1026D000570608F058C08091250290912602009775
:1026E00041F48DB79EB74091290250912A02841B74
:1026F000950BE817F90708F055C0F093BC03E09379
:10270000BB03F90171836083B8CF8D919C911197C0
:1027100012966C90129713967C901397A815B90592
:1027200059F56C0142E0C40ED11CCA14DB0420F13F
:10273000AC014A195B09DA011296159780F06282A2
:10274000738251834083D9016D937C93E114F1042A
:1027500071F0D7011396FC93EE9312978ECF2296C9
:102760008C0F9D1FF90191838083F301EFCFF093CC
:10277000BE03E093BD0381CF4816590608F42C012F
:102780007D01D3019ACFCB010E94CF117C0100972C
:1027900049F0AE01B8010E94D513C8010E946B1226
:1027A00087016BCF10E000E068CFFB01DC0102C0C5
:1027B00001900D9241505040D8F7089511E0C9E5BD
:1027C000D1E000E006C0802FFE010E94B00F2196EC
:1027D000011DCA35D10780E00807A9F7F894FFCF9B
:1027E0007E030612EF7E04030003EF0000000000EA
:1027F000000000000000000000C409C40904FFFF3D
:1028000000010000000000BF03800000000000BDC8
:10281000051D054A050A067B0559056D05515452EB
:1028200020536574757020446F6E652E000D0A008C
:02283000200086
:00000001FF
