:100000000C945A010C948B010C948B010C948B0171
:100010000C948B010C948B010C948B010C948B0130
:100020000C948B010C948B010C948B010C948B0120
:100030000C948B010C948B010C948B010C948B0110
:100040000C948B010C948B010C948B010C948B0100
:100050000C948B010C948B010C948B010C9408096B
:100060000C948B010C94DC090C94B2090C948B0158
:100070000C948B010C948B010C948B010C948B01D0
:100080000C948B010C948B010C948B010C948B01C0
:100090000C947C090C9452090C948B010C948B01E8
:1000A0000C948B010C948B010C948B010C948B01A0
:1000B0000C948B010C948B010C948B010C948B0190
:1000C0000C948B010C948B010C948B010C948B0180
:1000D0000C948B010C948B010C948B010C948B0170
:1000E0000C948B010C947B050C94B2030C949E032E
:1000F0000C94BD050C940D020C9443030C94E00188
:100100000C94D2010C94ED010C9455030C9405024F
:100110000C9417020C9413020C9467030C944D0377
:100120000C940A060C94C50E0C94BC030C942A0380
:100130000C941D050C94570A0C94DC010C94590581
:100140000C948A030C945D030C9471030C94F701D6
:100150000C944A050C946D050C942F030C94E40147
:100160000C94E7010C9439030C9422030C94D801ED
:100170000C947B030C94A8030C94FB010C940902CF
:100180000C9412020C9494030C94F1010C94FF0152
:1001900000002100240027002A002D003000330039
:1001A00001010000040107010A01000022002500EE
:1001B00028002B002E003100340002010000050150
:1001C00008010B01000020002300260029002C005C
:1001D0002F0032000001000003010601090105059E
:1001E0000505070508080808020202020A0A0808AD
:1001F00004040404010101010101010103030303DB
:1002000003030303040707070C0C0C0C0C0C0C0C69
:100210000202020206060606060606060B0B0B0B7A
:100220000B0B0B0B0102102020080810204010209F
:1002300040800201020108040201010204081020AA
:1002400040808040201008040201800402018040A8
:100250002010080402010804020101020408102011
:100260004080010204081020408000000A0B0209AF
:100270000C0D0E0807030401000000000000000040
:10028000000000000000000000000000000000006E
:10029000000000000000121110000000000000002B
:1002A000000000000000000000000000000000004E
:1002B000570AC50E11241FBECFEFD1E2DEBFCDBF5E
:1002C00000E00CBF12E0A0E0B2E0E6E6F7E200E0FA
:1002D0000BBF02C007900D92A835B107D9F723E0F4
:1002E000A8E5B2E001C01D92A33CB207E1F711E01E
:1002F000C9E5D1E000E006C021970109802FFE0189
:100300000E94730FC835D10780E00807A9F70E9443
:10031000BF0A0C94A1130C940000FC01A089B189C0
:1003200082E08C93A485B5851C92A685B7858FEC59
:100330008C93108EA489B58986E08C93A289B389A9
:100340008C9180618C93A289B3898C9188608C9305
:10035000A289B3898C9180688C930288F389E02DFF
:1003600080818F7D808308958150823108F05AC04A
:10037000E82FF0E08827E054FE4F8F4F0C94730F66
:10038000E001E401D201D801DC011202E701ED0134
:10039000F101F701FB01FF010502090212020D0242
:1003A00013021702809180008F7780938000089558
:1003B000809180008F7DF9CF80918000877FF5CF7D
:1003C00084B58F7784BD089584B58F7DFBCF8091F0
:1003D000B0008F778093B00008958091B0008F7D3A
:1003E000F9CF809190008F7780939000089580914D
:1003F00090008F7DF9CF80919000877FF5CF80911D
:10040000A0008F778093A00008958091A0008F7D39
:10041000F9CF8091A000877FF5CF809120018F7761
:10042000809320010895809120018F7DF9CF8091E4
:100430002001877FF5CFCF93DF93282F30E0F9019C
:10044000E659FD4F8491F901EC5DFD4FD491F9011E
:10045000E252FE4FC491CC23A1F081110E94B4015D
:10046000EC2FF0E0EE0FFF1FEC53FE4FA591B4917F
:10047000EC91ED2381E090E009F480E0DF91CF91F1
:10048000089580E090E0FACF1F93CF93DF93282F59
:1004900030E0F901E659FD4F8491F901EC5DFD4F23
:1004A000D491F901E252FE4FC491CC23A9F0162F4A
:1004B00081110E94B401EC2FF0E0EE0FFF1FE65512
:1004C000FE4FA591B4918FB7F894EC91111108C02B
:1004D000D095DE23DC938FBFDF91CF911F910895DC
:1004E000DE2BF8CF1F93CF93DF93C82F162F8823CF
:1004F00039F0809126028230A9F5D0E0C130A1F414
:10050000809124028F3F59F00E941B02019739F419
:1005100060E0809124020E944402D1E001C0D0E05A
:10052000809126028230D1F4CD7FC1F480912502E2
:100530008F3FA1F00E941B02019781F460E080913F
:1005400025020E944402112369F08091270288232A
:1005500069F08BEB92E10197F1F704C0112311F0E0
:10056000D111F3CFDF91CF911F9108958BE193E0EB
:10057000F2CFCF93DF9390E0FC01EC5DFD4F24912F
:1005800082529E4FFC0184918823D1F090E0880F25
:10059000991FFC01E057FE4FA591B491FC01E6556F
:1005A000FE4FC591D49161110EC09FB7F8948C9104
:1005B000E22FE0958E238C932881E223E8839FBF6E
:1005C000DF91CF9108958FB7F894EC91E22BEC93E3
:1005D0008FBFF6CF1F93CF93DF93182FEB0161E00E
:1005E0000E94B902209739F460E0812FDF91CF910A
:1005F0001F910C944402CF3FD10511F461E0F5CF77
:10060000E12FF0E0E659FD4FE491E150E23108F0CE
:10061000B3C0F0E08827E05FFC4F8F4F0C94730F5E
:1006200022032A032F0339034303BC034D0355035D
:100630005D03670371037B038A039403BC039E037A
:10064000A803B20384B5806884BDC7BDDF91CF9194
:100650001F91089584B5806284BDC8BDF7CF809195
:100660008000806880938000D0938900C0938800C8
:10067000EDCF80918000806280938000D0938B00CA
:10068000C0938A00E3CF80918000886080938000CF
:10069000D0938D00C0938C00D9CF8091B00080683A
:1006A0008093B000C093B300D1CF8091B00080623E
:1006B0008093B000C093B400C9CF8091900080684F
:1006C00080939000D0939900C0939800BFCF809101
:1006D0009000806280939000D0939B00C0939A001A
:1006E000B5CF80919000886080939000D0939D005A
:1006F000C0939C00ABCF8091A00080688093A00045
:100700008091A0008F7B8093A000D093A900C0931C
:10071000A8009CCF8091A00080628093A000D0931D
:10072000AB00C093AA0092CF8091A0008860809314
:10073000A000D093AD00C093AC0088CF8091200181
:10074000806880932001D0932901C09328017ECF37
:1007500080912001806280932001D0932B01C0936F
:100760002A0174CF80912001886080932001D0936A
:100770002D01C0932C016ACFC038D1050CF03ECFBB
:1007800033CF3FB7F8948091790290917A02A0918B
:100790007B02B0917C0226B5A89B05C02F3F19F0C3
:1007A0000196A11DB11D3FBFBA2FA92F982F8827F1
:1007B000BC01CD01620F711D811D911D42E0660FCC
:1007C000771F881F991F4A95D1F708957F928F92BE
:1007D0009F92AF92BF92CF92DF92EF92FF920F93D0
:1007E0001F93CF93DF938C01C62FD42F20911C022F
:1007F00030911D022115310539F080911B028130A5
:1008000089F0823009F482C0DF91CF911F910F915E
:10081000FF90EF90DF90CF90BF90AF909F908F9020
:100820007F900895F62E80911E02F81618F5CF2CB1
:10083000D12C8091210290912202F601EE0FFF1F30
:10084000E00FF11F91838083E0911C02F0911D0263
:10085000EC0DFD1D61E080810E94B902E0911C0257
:10086000F0911D02EC0DFD1D61E080810E944402AB
:10087000FD0ED9CF83E290E00197F1F7F8940E9442
:10088000C1034B01FC2E80911E02F81660F4E0912A
:100890001C02F0911D02EF0DF11D60E080810E94AD
:1008A000B902FD0EF0CF7894D12CC12C8091210299
:1008B00090912202C816D90608F0A6CFF8940E949B
:1008C000C1036B01C818D9087C2E80911E027816CE
:1008D000D8F4E72CF12CE0911C02F0911D02EE0DF2
:1008E000FF1D80810E941B02892B61F4EE0CFF1C0E
:1008F000F801EE0DFF1D80819181C816D90610F414
:10090000D182C0827D0EE1CF7894D0CF862F909196
:100910001E02891750F4E82FF0E0EE0FFF1FE00FE2
:10092000F11F118210828D0FF2CF40E080912302DF
:100930004817B0F59C2F80911E02981778F5E92F83
:10094000F0E0D901AE0FBF1F8C91863308F08653BB
:1009500060917B00582F5870677F562B50937B0017
:100960008770806480937C0080917A00806480939B
:100970007A0080917A0086FDFCCFA091780060918A
:100980007900EE0FFF1FE00FF11FB62F608171811C
:100990006A0F7B1F718360839D0FCDCF4F5FC6CFE2
:1009A00080911E02C81708F02FCFEC2FF0E0EE0F59
:1009B000FF1FE00FF11F6091230270E0CB019595BE
:1009C000879520813181820F931F0E945F0F718371
:1009D0006083CD0FE5CF8F929F92AF92BF92CF925F
:1009E000DF92EF92FF924B015C010E94C1036B0109
:1009F0007C010E94C1036C197D098E099F09683E24
:100A0000734081059105A8F321E0821A9108A1089D
:100A1000B10888EEC80E83E0D81EE11CF11C8114D9
:100A20009104A104B10429F7FF90EF90DF90CF90DB
:100A3000BF90AF909F908F900895AF92BF92CF924A
:100A4000DF92EF92FF920F931F93CF93DF936C018E
:100A50007B018B01040F151FEB015E01AE18BF086F
:100A6000C017D10759F06991D601ED91FC91019021
:100A7000F081E02DC6011995892B79F7C501DF9129
:100A8000CF911F910F91FF90EF90DF90CF90BF908B
:100A9000AF900895FC01538D448D252F30E0842FB5
:100AA00090E0821B930B541710F0CF960895019796
:100AB0000895FC01918D828D981761F0A28DAE0F83
:100AC000BF2FB11D5D968C91928D9F5F9F73928F0A
:100AD00090E008958FEF9FEF0895FC01918D828D36
:100AE000981731F0828DE80FF11D858D90E0089503
:100AF0008FEF9FEF0895FC01918D228D892F90E05B
:100B0000805C9F4F821B91098F73992708958DE711
:100B100092E00E947B0521E0892B09F420E0822FDE
:100B200008958AE193E00E947B0521E0892B09F476
:100B300020E0822F0895FC01A48DA80FB92FB11DCC
:100B4000A35ABF4F2C91848D90E001968F73992703
:100B5000848FA689B7892C93A089B1898C918370E1
:100B600080648C93938D848D981306C00288F389DA
:100B7000E02D80818F7D80830895EF92FF920F9307
:100B80001F93CF93DF93EC0181E0888F9B8D8C8D39
:100B900098131AC0E889F989808185FF15C09FB72D
:100BA000F894EE89FF896083E889F98980818370F0
:100BB000806480839FBF81E090E0DF91CF911F919F
:100BC0000F91FF90EF900895F62E0B8D10E00F5FC0
:100BD0001F4F0F731127E02E8C8D8E110CC00FB696
:100BE00007FCFACFE889F989808185FFF5CFCE012E
:100BF0000E949B05F1CFEB8DEC0FFD2FF11DE35A09
:100C0000FF4FF0829FB7F8940B8FEA89FB898081B0
:100C10008062CFCFCF93DF93EC01888D8823B9F02A
:100C2000AA89BB89E889F9898C9185FD03C08081F7
:100C300086FD0DC00FB607FCF7CF8C9185FFF2CF74
:100C4000808185FFEDCFCE010E949B05E9CFDF912A
:100C5000CF91089580E090E0892B29F00E949105C2
:100C600081110E94000080E090E0892B29F00E9411
:100C7000870581110E94000080E090E0892B49F0F7
:100C800080E090E0892B29F00E94000081110E94F1
:100C9000000080E090E0892B49F080E090E0892B13
:100CA00029F00E94000081110C94000008951F9308
:100CB000CF93DF93162FD42FC22F682F70E086E0DA
:100CC0000E94EA02612F70E088E00E94EA026D2F24
:100CD00070E087E00E94EA026C2F70E089E0DF910B
:100CE000CF911F910C94EA02CF92DF92EF92FF9284
:100CF000CF93DF93C82F80912702882369F08C2F30
:100D00000E941B02019741F460E08C2F0E94440274
:100D10008BEB92E10197F1F761E08C2F0E94440286
:100D20000E94C1036B01809127028823A9F0809162
:100D30002802882389F0F894D0E080912802D817FF
:100D400050F460E08C2F0E94440261E08C2F0E94DE
:100D50004402DF5FF2CF7894C601DF91CF91FF901C
:100D6000EF90DF90CF9008950F931F93CF93DF9371
:100D7000C82F882359F180912602823029F1D0E0D2
:100D8000809126028230D1F5CD7FC1F58091250278
:100D90008F3FA1F190912702992361F18091250263
:100DA0000E9474068C0180912702882371F1C3E2AE
:100DB000D0E00E94C103601B710B6C32714000F5E2
:100DC000CE010197F1F7F5CFC130C9F68091240229
:100DD0008F3FA9F290912702992339F08091240244
:100DE0000E9474068C01D1E0CBCF0E941B02892B9C
:100DF000A9F3C5CF0E941B02892B81F2D111D3CF59
:100E0000DF91CF911F910F9108958BE193E00197AE
:100E1000F1F7F6CFFC0101900020E9F73197AF011F
:100E2000481B590BBC018AE193E00C941D058F927D
:100E30009F92AF92BF92CF92DF92EF92FF920F9369
:100E40001F93CF93DF93CDB7DEB7A1970FB6F8947A
:100E5000DEBF0FBECDBF6C01990FEE08FF08F7FE95
:100E600041C06DE28AE193E00E94BD058C0122271A
:100E70003327A9012C193D094E095F0919A2CE019A
:100E800081967C019AE0892E912CA12CB12CCA016B
:100E9000B901A50194010E942E0F605DF7016293D4
:100EA0007F01211531054105510589F790E080E06A
:100EB000309719F0CF010E940A07800F911FA19669
:100EC0000FB6F894DEBF0FBECDBFDF91CF911F915B
:100ED0000F91FF90EF90DF90CF90BF90AF909F90D9
:100EE0008F900895A701960119A28E010F5D1F4FE3
:100EF0008AE0C82ED12CE12CF12CCA01B901A7013E
:100F000096010E942E0F605DF80162938F012115FA
:100F100031054105510589F790E080E0309779F27D
:100F2000CF010E940A07CBCF8F929F92AF92BF92C0
:100F3000CF92DF92EF92FF920F931F93CF93DF93A5
:100F4000CDB7DEB7C85FD1090FB6F894DEBF0FBECC
:100F5000CDBF8C01D62EDC018C91811157C0139628
:100F6000ED90FC9060911E0270E0660F771FC70144
:100F70000E94B712F80194838383892BB9F4C701C7
:100F80000E942E12C850DF4F0FB6F894DEBF0FBE7E
:100F9000CDBFDF91CF911F910F91FF90EF90DF9028
:100FA000CF90BF90AF909F908F900895E180F28096
:100FB00060911E0270E0660F771FC7010E94B71292
:100FC000AC01F8019283818390E041155105B9F29B
:100FD00080911E029817B8F4292F30E0220F331F9A
:100FE000D8011396ED91FC91E20FF31F118210824C
:100FF0006091210270912202240F351FF901718343
:1010000060839F5FE5CF81E0D8018C93C12C43E2E0
:10101000E42EF12CB1E0DB1638F0E2E0ED15D0F56E
:10102000F3E0DF1609F46DC061E080E00E94720217
:1010300041E060E0CE0185549F4F0E94E603A090FE
:101040001E024E018FE3880E911CFE01E358FF4FF4
:101050009E0125543F4FB12CAF01AB1409F4A1C040
:10106000D9018D919D919D01CC2009F492C06081A0
:1010700071816817790708F48CC0D4016D917C9157
:101080008617970708F489C0B394B2E08B0E911CC1
:101090003296E3CF80E00E94B40641E060E0CE01EA
:1010A00085549F4F0E94E60361E080E00E94720237
:1010B000A2E0DA12C4CF41E060E0CE0101960E94C6
:1010C000E60370911E022091210230912202FE015E
:1010D000E554FF4FDE01119660E0761709F4AFCFBB
:1010E0004D915D9180819181820F931F841B950B9F
:1010F0002817390708F44AC0918380836F5F3296BE
:10110000ECCF60E082E00E9472020E94C1034B01BA
:1011100081E00E94B40680912702882359F00E9442
:10112000C10368197909603B744020F4C701019735
:10113000F1F7F5CF42E060E0CE0185549F4F0E9469
:10114000E60360E081E00E9472020E94C1034B014D
:1011500082E00E94B40680912702882359F00E9401
:10116000C10368197909603B744020F4C7010197F5
:10117000F1F7F5CF42E061E0CE0185549F4F0E9428
:10118000E60361E080E00E94720259CF3183208340
:10119000B5CF91838083C11070CFD4018D939C9380
:1011A00073CFC394EAE0CE1235CF20E080911E02C7
:1011B000281708F0E7CE822F90E0880F991FE1E012
:1011C000F0E0EC0FFD1FE80FF91F66AD77ADD80119
:1011D0001396ED91FC91E80FF91FA081B181A6173C
:1011E000B70710F471836083FA01E80FF91F60817B
:1011F0007181D8011196ED91FC91E80FF91F808162
:1012000091816817790710F4718360832F5FCECFC7
:101210001F920F920FB60F9211242F933F938F932B
:101220009F93AF93BF938091750290917602A091A6
:101230007702B09178023091740223E0230F2D37AA
:1012400058F50196A11DB11D20937402809375027B
:1012500090937602A0937702B093780280917902FE
:1012600090917A02A0917B02B0917C020196A11D1F
:10127000B11D8093790290937A02A0937B02B09380
:101280007C02BF91AF919F918F913F912F910F90D1
:101290000FBE0F901F90189526E8230F0296A11DF0
:1012A000B11DD2CF1F920F920FB60F9211240BB621
:1012B0000F922F933F934F935F936F937F938F93EF
:1012C0009F93AF93BF93EF93FF938DE792E00E94BC
:1012D0009B05FF91EF91BF91AF919F918F917F916E
:1012E0006F915F914F913F912F910F900BBE0F9097
:1012F0000FBE0F901F9018951F920F920FB60F926E
:1013000011240BB60F922F938F939F93EF93FF931C
:10131000E0918D02F0918E028081E0919302F09134
:10132000940282FD1DC09081809196028F5F8F7321
:1013300020919702821741F0E0919602F0E0E35885
:10134000FD4F958F80939602FF91EF919F918F9122
:101350002F910F900BBE0F900FBE0F901F901895FE
:101360008081F2CF1F920F920FB60F9211240BB60D
:101370000F922F933F934F935F936F937F938F932E
:101380009F93AF93BF93EF93FF938AE193E00E9403
:101390009B05FF91EF91BF91AF919F918F917F91AD
:1013A0006F915F914F913F912F910F900BBE0F90D6
:1013B0000FBE0F901F9018951F920F920FB60F92AD
:1013C00011240BB60F922F938F939F93EF93FF935C
:1013D000E0912A03F0912B038081E0913003F0919A
:1013E000310382FD1DC09081809133038F5F8F7325
:1013F00020913403821741F0E0913303F0E0E65E80
:10140000FC4F958F80933303FF91EF919F918F91C4
:101410002F910F900BBE0F900FBE0F901F9018953D
:101420008081F2CFCF92DF92EF92FF920F931F93C2
:10143000E82FF92F05C0015011092109310961F187
:10144000908196239417B9F305C001501109210921
:10145000310911F1908196239413F7CFC12CD12C2F
:10146000E12CF12C0AC08FEFC81AD80AE80AF80A52
:101470000C151D052E053F0579F080818623841704
:1014800091F36C2D7D2D8E2D9F2D1F910F91FF902F
:10149000EF90DF90CF90089560E070E080E090E002
:1014A0001F910F91FF90EF90DF90CF900895EDE79F
:1014B000F2E01382128248EE53E060E070E0448371
:1014C00055836683778385E392E0918380832DEC57
:1014D00030E0358724872CEC30E03787268728ECEE
:1014E00030E0318B208B29EC30E0338B228B2AECDF
:1014F00030E0358B248B2EEC30E0378B268B118E31
:10150000128E138E148EEAE1F3E01382128244836A
:101510005583668377839183808385EC90E09587FC
:10152000848784EC90E09787868780EC90E0918BAD
:10153000808B81EC90E0938B828B82EC90E0958B9A
:10154000848B86EC90E0978B868B118E128E138E97
:10155000148EE7EBF3E086E1808387E1818380E905
:1015600091E093838283148215821682178261E050
:1015700086E10E94B90260E087E10C94B902CF9342
:10158000DF9300D01F92CDB7DEB7789484B5826028
:1015900084BD84B5816084BD85B5826085BD85B517
:1015A000816085BD80916E00816080936E00109295
:1015B0008100809181008260809381008091810010
:1015C00081608093810080918000816080938000A1
:1015D0008091B10084608093B1008091B0008160FF
:1015E0008093B000809191008260809391008091FF
:1015F0009100816080939100809190008160809340
:1016000090008091A10082608093A1008091A10050
:1016100081608093A1008091A00081608093A000F0
:10162000809121018260809321018091210181605C
:10163000809321018091200181608093200180911D
:101640007A00846080937A0080917A00826080932F
:101650007A0080917A00816080937A0080917A008C
:10166000806880937A001092C1008AE193E00E9422
:101670008D0161E087E00E94B90261E089E00E948B
:10168000B90261E086E00E94B90261E088E00E9450
:10169000B9028DE792E00E948D0162E370E080E084
:1016A00090E00E94EB0445E050E060E072E08DE7DE
:1016B00092E00E941D0546E050E065E072E08DE793
:1016C00092E00E941D058AE193E00E948D0182E074
:1016D00080931B028FEF93E090932202809321026C
:1016E00020911C0230911D023A83298363E070E04F
:1016F000C9010E94B712FC0190931D0280931C0245
:10170000892B09F4C1C086E3808387E3818388E362
:10171000828383E080931E021092110210921602BF
:1017200064E670E080E090E00E94EB0461E08DE010
:101730000E94B90261E08DE00E9444024AEF50E04D
:101740005A83498361E081E192E00E949407898194
:101750009A8101979A838983892BA1F760E08DE0B4
:101760000E94440283E492E00E940A0783E592E02B
:101770000E940A078AE193E00E948D0161E087E000
:101780000E94B90261E089E00E94B90261E086E04E
:101790000E94B90261E088E00E94B90261E086E13E
:1017A0000E94B90260E087E10E94B9028AE193E0F9
:1017B0000E948D0164EF71E080E090E00E94EB04F4
:1017C00046E050E06BE072E08DE792E00E941D057C
:1017D00068E873E180E090E00E94EB042BE4222EA5
:1017E000312C80911102882309F453C080E00E94BB
:1017F000B40641E060E08AE592E00E94E60361E021
:1018000080E00E947202C0901E02AAE5B2E0BA8394
:10181000A983E0901402F090150200911202109139
:101820001302D12CCD14A9F1D701ED91FD917D01C9
:10183000D8018D919D918D01E81BF90BD9F0A981FB
:10184000BA812D913C9150E040E0281B390B4109B1
:101850005109A8EEB3E00E94230F9F0150E040E041
:101860000E94040F293EB3E03B0714F028EE33E05A
:1018700037FF02C030E020E0E981FA812193319303
:10188000FA83E983D394CECF89819A810E942E1264
:1018900047CFE0911E029AE5E92E92E0F92E10E082
:1018A00000E0F0E050E040E0812C912C5401D12C7C
:1018B000EF1711F1D7018D919D917D0128EE33E055
:1018C000281B390B3A832983293C310590F42333B3
:1018D000310558F029813A81D8010E947B0F860E8C
:1018E000971EA81EB91E420F531FFF5F08511C4FC1
:1018F000DFCFDD24D394EECFD110EBC0E150FF0B4E
:1019000044EF51E0E49FC001E59F900DF49F900DDE
:1019100011242091290230912A022817390708F44E
:10192000E6C0A8EEB3E0EA9FC001EB9F900DFA9FDE
:10193000900D11249A8389830E94C1034B015C019D
:101940008091680290916902A0916A02B0916B0245
:10195000A5019401281B390B4A0B5B0BCA01B90185
:101960000E94991020E034E244E759E40E94EF0F0E
:101970006B017C018092680290926902A0926A02D7
:10198000B0926B0229813A81A4EBB0E00E94500F23
:1019900020ED37E040E050E00E94040F6AE570E07F
:1019A000621B7109072E000C880B990B0E9499107D
:1019B0002B013C0120916402309165024091660246
:1019C000509167020E94820FA70196010E94EF0FBB
:1019D00069837A838B839C83A3019201C701B6013B
:1019E0000E942511209160023091610240916202B3
:1019F000509163020E94830F6B017C01C0926002D0
:101A0000D0926102E0926202F09263022DEC3CEC13
:101A10004CE85FE3C301B2010E9425114B015C0158
:101A200020E030E0A90169817A818B819C810E944C
:101A300025119B01AC01C501B4010E94830F4B012C
:101A40005C0120E030E0A901C701B6010E94251128
:101A50009B01AC01C501B4010E94830F60936C022D
:101A600070936D0280936E0290936F0240926402B5
:101A700050926502609266027092670290E080E088
:101A80000E94170786E592E00E940A0760916C02A7
:101A900070916D0280916E0290916F020E946110B0
:101AA0006B017A836983CB010E94170749815A81B0
:101AB00057FF06C181010C191D09C601855B9F4FA7
:101AC0009A83898397FD16C020E040E06981802FCA
:101AD0005EC09A0150E040E0C501B4010E942E0FA3
:101AE0003A83298330932A022093290225CF1A8230
:101AF000198222CF662777276C197D09072E000CE3
:101B0000880B990B0E9499104B015C01B801110FD1
:101B1000880B990B0E9499106B017C0120E030E04A
:101B200040E05FE3C501B4010E9425119B01AC01B7
:101B3000C701B6010E94820F0E946110F62E062F87
:101B4000172FA981BA81BD01BB0F880B990B0E9489
:101B500099102B013C0120E030E040E450E4C50145
:101B6000B4010E9425119B01AC01C301B2010E9486
:101B7000820F0E9461107A8369839B0177FF04C002
:101B800022273327261B370B40E060E08F2D0E9471
:101B9000570686E592E00E940A07C8010E941707CF
:101BA00086E592E00E940A0789819A810E941707C0
:101BB00086E592E00E940A072FB7F894809175029B
:101BC00090917602A0917702B09178022FBF909306
:101BD000730280937202845F914020917002309171
:101BE00071022817390708F060C060E08091B703E0
:101BF0000E94440283E090E00197F1F761E0809158
:101C0000B7030E94440283E290E00197F1F760E09D
:101C10008091B7030E9444026091B9037091BA03A6
:101C200090E080E00E94971020E030E040E250E435
:101C30000E9425112AE23EE74CE05DE30E94EF0F8F
:101C40000E9468108B019C018091BB039091BC03A2
:101C5000A091BD03B091BE030097A105B10539F075
:101C600080179107A207B30710F48C019D018091A2
:101C7000B80390E0FC01EC5DFD4F6491FC01E25281
:101C8000FE4FE491F0E0EE0FFF1FEC53FE4F859105
:101C900094913F70462F0E94120A80917202909197
:101CA0007302909371028093700285E592E00E9426
:101CB0000A0783E592E00E940A070E942A0691CD56
:101CC00029813A81232B09F453C0A601455B5F4F5C
:101CD0005A83498381010C191D0917FFF5CEB601FE
:101CE000DD0C880B990B0E9499104B015C01A981B6
:101CF000BA81BD01BB0F880B990B0E9499106B0133
:101D00007C0120E030E040E05FE3C501B4010E94C7
:101D100025119B01AC01C701B6010E94820F0E94F0
:101D20006110F62E69837A83B801110F880B990B25
:101D30000E9499102B013C0120E030E040E450E487
:101D4000C501B4010E9425119B01AC01C301B20180
:101D50000E94820F0E9461108B01AB0177FF04C0CB
:101D600044275527461B570B20E06F2D80E00FCFEF
:101D700020E040E06BE48BE40E945706EBE4F0E0E7
:101D8000FA83E9830BE410E004CF809124028F3FB3
:101D900031F060E00E94B9028FEF809324028091BD
:101DA00025028F3F31F060E00E94B9028FEF8093EF
:101DB00025021092260280911C0290911D0200972C
:101DC00011F00E942E12809114029091150200973A
:101DD00011F00E942E128091190290911A02009720
:101DE00011F00E942E12809112029091130200971E
:101DF00011F00E942E128091170290911802009704
:101E000011F00C942E120895052E97FB1EF40094E9
:101E10000E941B0F57FD07D00E942E0F07FC03D016
:101E20004EF40C941B0F50954095309521953F4FE3
:101E30004F4F5F4F089590958095709561957F4FB6
:101E40008F4F9F4F08950E94500FA59F900DB49FF4
:101E5000900DA49F800D911D11240895A1E21A2ECA
:101E6000AA1BBB1BFD010DC0AA1FBB1FEE1FFF1F3E
:101E7000A217B307E407F50720F0A21BB30BE40B8E
:101E8000F50B661F771F881F991F1A9469F76095D5
:101E90007095809590959B01AC01BD01CF0108958F
:101EA000A29FB001B39FC001A39F700D811D11249B
:101EB000911DB29F700D811D1124911D0895AA1BC3
:101EC000BB1B51E107C0AA1FBB1FA617B70710F025
:101ED000A61BB70B881F991F5A95A9F78095909557
:101EE000BC01CD010895EE0FFF1F881F8BBF079027
:101EF000F691E02D19940E94500FB7FF0895821BB0
:101F0000930B08955058BB27AA270E949A0F0C9450
:101F1000EB100E94DD1038F00E94E41020F039F43C
:101F20009F3F19F426F40C94DA100EF4E095E7FBC9
:101F30000C94D410E92F0E94FC1058F3BA176207D2
:101F400073078407950720F079F4A6F50C941E1109
:101F50000EF4E0950B2EBA2FA02D0B01B9019001C4
:101F60000C01CA01A0011124FF27591B99F0593F08
:101F700050F4503E68F11A16F040A22F232F342F50
:101F80004427585FF3CF469537952795A795F0409E
:101F90005395C9F77EF41F16BA0B620B730B840BB3
:101FA000BAF09150A1F0FF0FBB1F661F771F881F6B
:101FB000C2F70EC0BA0F621F731F841F48F48795C3
:101FC00077956795B795F7959E3F08F0B0CF9395B5
:101FD000880F08F09927EE0F9795879508950E942E
:101FE00003100C94EB100E94E41058F00E94DD10D6
:101FF00040F029F45F3F29F00C94D41051110C9457
:102000001F110C94DA100E94FC1068F39923B1F3AD
:10201000552391F3951B550BBB27AA27621773070E
:10202000840738F09F5F5F4F220F331F441FAA1FA2
:10203000A9F335D00E2E3AF0E0E832D0915050405E
:10204000E695001CCAF72BD0FE2F29D0660F771F0C
:10205000881FBB1F261737074807AB07B0E809F0F2
:10206000BB0B802DBF01FF2793585F4F3AF09E3F77
:10207000510578F00C94D4100C941F115F3FE4F3D9
:10208000983ED4F3869577956795B795F7959F5FBA
:10209000C9F7880F911D9695879597F90895E1E006
:1020A000660F771F881FBB1F621773078407BA0765
:1020B00020F0621B730B840BBA0BEE1F88F7E095C0
:1020C00008950E9468106894B1110C941F1108952E
:1020D0000E94041188F09F5798F0B92F9927B751A3
:1020E000B0F0E1F0660F771F881F991F1AF0BA95BC
:1020F000C9F714C0B13091F00E941E11B1E00895EB
:102100000C941E11672F782F8827B85F39F0B93FDC
:10211000CCF3869577956795B395D9F73EF490956E
:102120008095709561957F4F8F4F9F4F0895E894EC
:1021300009C097FB3EF490958095709561957F4F0F
:102140008F4F9F4F9923A9F0F92F96E9BB279395BD
:10215000F695879577956795B795F111F8CFFAF4CD
:10216000BB0F11F460FF1BC06F5F7F4F8F4F9F4FFE
:1021700016C0882311F096E911C0772321F09EE85C
:10218000872F762F05C0662371F096E8862F70E0C2
:1021900060E02AF09A95660F771F881FDAF7880F9C
:1021A0009695879597F9089597F99F6780E870E06D
:1021B00060E008959FEF80EC089500240A941616BD
:1021C000170618060906089500240A941216130625
:1021D000140605060895092E0394000C11F48823B3
:1021E00052F0BB0F40F4BF2B11F460FF04C06F5FCF
:1021F0007F4F8F4F9F4F089557FD9058440F551FA5
:1022000059F05F3F71F04795880F97FB991F61F078
:102210009F3F79F087950895121613061406551FEF
:10222000F2CF4695F1DF08C0161617061806991F5B
:10223000F1CF86957105610508940895E894BB2750
:1022400066277727CB0197F908950E9438110C94DF
:10225000EB100E94DD1038F00E94E41020F095236E
:1022600011F00C94D4100C94DA1011240C941F115A
:102270000E94FC1070F3959FC1F3950F50E0551F1D
:10228000629FF001729FBB27F00DB11D639FAA27CB
:10229000F00DB11DAA1F649F6627B00DA11D661F1A
:1022A000829F2227B00DA11D621F739FB00DA11D3B
:1022B000621F839FA00D611D221F749F3327A00DF5
:1022C000611D231F849F600D211D822F762F6A2F91
:1022D00011249F5750409AF0F1F088234AF0EE0FF6
:1022E000FF1FBB1F661F771F881F91505040A9F723
:1022F0009E3F510580F00C94D4100C941F115F3F49
:10230000E4F3983ED4F3869577956795B795F7955E
:10231000E7959F5FC1F7FE2B880F911D96958795D6
:1023200097F908950F931F93CF93DF938230910510
:1023300010F482E090E0E091C103F091C20330E03C
:1023400020E0B0E0A0E0309799F42115310509F4C0
:102350004AC0281B390B24303105D8F58A819B816E
:102360006115710589F1FB0193838283FE0111C020
:10237000408151810281138148175907E0F04817C5
:10238000590799F4109761F012960C9312971396CF
:102390001C933296CF01DF91CF911F910F91089539
:1023A0000093C1031093C203F4CF2115310551F0FE
:1023B0004217530738F0A901DB019A01BD01DF0183
:1023C000F801C1CFEF01F9CF9093C2038093C1030D
:1023D000CDCFFE01E20FF31F81939193225031097B
:1023E00039832883D7CF2091BF033091C003232B9B
:1023F00041F420912D0230912E023093C00320939E
:10240000BF0320912B0230912C022115310541F49C
:102410002DB73EB740912F0250913002241B350B4F
:10242000E091BF03F091C003E217F307A0F42E1B65
:102430003F0B2817390778F0AC014E5F5F4F241728
:10244000350748F04E0F5F1F5093C0034093BF0302
:10245000819391939FCFF0E0E0E09CCFCF93DF9307
:102460000097E9F0FC01329713821282A091C10318
:10247000B091C203ED0130E020E01097A1F420817B
:102480003181820F931F2091BF033091C003281721
:10249000390709F061C0F093C003E093BF03DF91F7
:1024A000CF910895EA01CE17DF07E8F54A815B81F5
:1024B0009E0141155105B1F7E901FB83EA8349917A
:1024C0005991C40FD51FEC17FD0761F480819181EC
:1024D0000296840F951FE9019983888382819381F5
:1024E0009B838A83F0E0E0E012968D919C91139794
:1024F0000097B9F52D913C911197CD010296820F6D
:10250000931F2091BF033091C0032817390739F674
:10251000309751F51092C2031092C103B093C003DB
:10252000A093BF03BCCFD383C28340815181840F6A
:10253000951FC817D90761F44E5F5F4F8881998155
:10254000480F591F518340838A819B8193838283E3
:102550002115310509F0B0CFF093C203E093C10318
:102560009ECFFD01DC01C0CF13821282D7CF4F92E4
:102570005F926F927F928F929F92AF92BF92CF9213
:10258000DF92EF92FF920F931F93CF93DF938C0113
:10259000009799F4CB01DF91CF911F910F91FF909C
:1025A000EF90DF90CF90BF90AF909F908F907F90F3
:1025B0006F905F904F900C949211FC01E60FF71F03
:1025C0009C0122503109E217F30708F4AEC0D9018B
:1025D000CD91DC911197C617D70720F1C530D105F1
:1025E00078F0CE0104978617970750F0C61BD70BDB
:1025F0002297C193D1936D937C93CF010E942E12A9
:10260000C801DF91CF911F910F91FF90EF90DF9064
:10261000CF90BF90AF909F908F907F906F905F9082
:102620004F9008955B01AC1ABD0A4C018C0E9D1EA3
:10263000A091C103B091C203512C412CF12CE12C8B
:10264000109731F58091BF039091C00388159905CB
:1026500009F05CC04616570608F058C080912B025E
:1026600090912C02009741F48DB79EB740912F02B4
:1026700050913002841B950BE817F90708F055C0FC
:10268000F093C003E093BF03F90171836083B8CF77
:102690008D919C91119712966C90129713967C9045
:1026A0001397A815B90559F56C0142E0C40ED11C69
:1026B000CA14DB0420F1AC014A195B09DA01129655
:1026C000159780F06282738251834083D9016D93A4
:1026D0007C93E114F10471F0D7011396FC93EE930F
:1026E00012978ECF22968C0F9D1FF90191838083C4
:1026F000F301EFCFF093C203E093C10381CF4816FB
:10270000590608F42C017D01D3019ACFCB010E9418
:1027100092117C01009749F0AE01B8010E94981314
:10272000C8010E942E1287016BCF10E000E068CF35
:10273000FB01DC0102C001900D9241505040D8F7DE
:10274000089511E0C9E5D1E000E006C0802FFE0148
:102750000E94730F2196011DCA35D10780E008073A
:06276000A9F7F894FFCF79
:102766007E030612EF7E04030003EF7E04030002DD
:10277600EF0000000000000000000000000000C4A0
:1027860009C40904FFFF00010000000000C3038024
:102796000000000000BD051D054A050A067B055917
:1027A600056D0551545220536574757020446F6E43
:0827B600652E000D0A00200051
:00000001FF
