:100000000C945A010C948B010C948B010C948B0171
:100010000C948B010C948B010C948B010C948B0130
:100020000C948B010C948B010C948B010C948B0120
:100030000C948B010C948B010C948B010C948B0110
:100040000C948B010C948B010C948B010C948B0100
:100050000C948B010C948B010C948B010C94D6099D
:100060000C948B010C944A0A0C94200A0C948B017A
:100070000C948B010C948B010C948B010C948B01D0
:100080000C948B010C948B010C948B010C948B01C0
:100090000C948B010C948B010C948B010C948B01B0
:1000A0000C948B010C948B010C948B010C948B01A0
:1000B0000C948B010C948B010C948B010C948B0190
:1000C0000C948B010C948B010C948B010C948B0180
:1000D0000C948B010C948B010C948B010C948B0170
:1000E0000C948B010C94D9010C9400020C94B30372
:1000F0000C94FA0E0C9444030C940A020C947203B0
:100100000C942B030C9470050C94E5010C941302D1
:100110000C94DD010C9456030C94D3010C94F20161
:100120000C9468030C94EE010C948B030C940E0257
:100130000C94D9050C949F030C947F050C94140225
:100140000C94F8010C9443050C947C030C949503D7
:100150000C9418020C94A9030C94C50A0C949305F2
:100160000C945E030C9426060C944E030C94FC0134
:100170000C9430030C94BD030C94E8010C94E10141
:100180000C9423030C943A030C94A1050C940602DE
:1001900000002100240027002A002D003000330039
:1001A00001010000040107010A01000022002500EE
:1001B00028002B002E003100340002010000050150
:1001C00008010B01000020002300260029002C005C
:1001D0002F0032000001000003010601090105059E
:1001E0000505070508080808020202020A0A0808AD
:1001F00004040404010101010101010103030303DB
:1002000003030303040707070C0C0C0C0C0C0C0C69
:100210000202020206060606060606060B0B0B0B7A
:100220000B0B0B0B0102102020080810204010209F
:1002300040800201020108040201010204081020AA
:1002400040808040201008040201800402018040A8
:100250002010080402010804020101020408102011
:100260004080010204081020408000000A0B0209AF
:100270000C0D0E0807030401000000000000000040
:10028000000000000000000000000000000000006E
:10029000000000000000121110000000000000002B
:1002A000000000000000000000000000000000004E
:1002B000C50AFA0E11241FBECFEFD1E2DEBFCDBFBB
:1002C00000E00CBF12E0A0E0B2E0EEE5F8E200E0F2
:1002D0000BBF02C007900D92A237B107D9F723E0F8
:1002E000A2E7B2E001C01D92A934B207E1F711E024
:1002F000C9E5D1E000E006C021970109802FFE0189
:100300000E94BC0FC835D10780E00807A9F70E94FA
:10031000070B0C941D140C940000E0EAF2E0A08995
:10032000B18982E08C93A485B5851C92A685B7859A
:100330008FEC8C93108EA489B58986E08C93A2896A
:10034000B3898C9180618C93A289B3898C918860E8
:100350008C93A289B3898C9180688C930288F389ED
:10036000E02D80818F7D808308958150823108F057
:100370005AC0E82FF0E08827EF53FE4F8F4F0C94C0
:10038000BC0FE101E501D301D901DD011302E80150
:10039000EE01F201F801FC01000206020A0213025A
:1003A0000E0214021802809180008F7780938000E3
:1003B0000895809180008F7DF9CF80918000877FA4
:1003C000F5CF84B58F7784BD089584B58F7DFBCF3D
:1003D0008091B0008F778093B00008958091B00035
:1003E0008F7DF9CF809190008F7780939000089552
:1003F000809190008F7DF9CF80919000877FF5CF1D
:100400008091A0008F778093A00008958091A00034
:100410008F7DF9CF8091A000877FF5CF809120015B
:100420008F77809320010895809120018F7DF9CFEF
:1004300080912001877FF5CFCF93DF93282F30E085
:10044000F901E659FD4F8491F901EC5DFD4FD4911E
:10045000F901E252FE4FC491CC23A1F081110E9418
:10046000B501EC2FF0E0EE0FFF1FEC53FE4FA5910E
:10047000B491EC91ED2381E090E009F480E0DF910C
:10048000CF91089580E090E0FACF1F93CF93DF9350
:10049000282F30E0F901E659FD4F8491F901EC5D18
:1004A000FD4FD491F901E252FE4FC491CC23A9F043
:1004B000162F81110E94B501EC2FF0E0EE0FFF1F07
:1004C000E655FE4FA591B4918FB7F894EC911111B8
:1004D00008C0D095DE23DC938FBFDF91CF911F91B1
:1004E0000895DE2BF8CF1F93CF93DF93C82F162FDD
:1004F000882339F0809115028230A9F5D0E0C1300F
:10050000A1F4809113028F3F59F00E941C020197C1
:1005100039F460E0809113020E944502D1E001C0ED
:10052000D0E0809115028230D1F4CD7FC1F480916A
:1005300014028F3FA1F00E941C02019781F460E039
:10054000809114020E944502112369F080911602E5
:10055000882369F08BEB92E10197F1F704C0112336
:1005600011F0D111F3CFDF91CF911F9108958BE15D
:1005700093E0F2CFCF93DF9390E0FC01EC5DFD4F71
:10058000249182529E4FFC0184918823D1F090E007
:10059000880F991FFC01E057FE4FA591B491FC0113
:1005A000E655FE4FC591D49161110EC09FB7F894E6
:1005B0008C91E22FE0958E238C932881E223E883AF
:1005C0009FBFDF91CF9108958FB7F894EC91E22B04
:1005D000EC938FBFF6CF1F93CF93DF93182FEB01D0
:1005E00061E00E94BA02209739F460E0812FDF9128
:1005F000CF911F910C944502CF3FD10511F461E0DA
:10060000F5CFE12FF0E0E659FD4FE491E150E23102
:1006100008F0B3C0F0E08827EF5EFC4F8F4F0C94DA
:10062000BC0F23032B0330033A034403BD034E03E3
:1006300056035E03680372037C038B039503BD03BB
:100640009F03A903B30384B5806884BDC7BDDF9150
:10065000CF911F91089584B5806284BDC8BDF7CF46
:1006600080918000806880938000D0938900C0933F
:100670008800EDCF80918000806280938000D093CD
:100680008B00C0938A00E3CF8091800088608093C4
:100690008000D0938D00C0938C00D9CF8091B000A2
:1006A00080688093B000C093B300D1CF8091B00038
:1006B00080628093B000C093B400C9CF8091900055
:1006C000806880939000D0939900C0939800BFCF2A
:1006D00080919000806280939000D0939B00C093A3
:1006E0009A00B5CF80919000886080939000D0935D
:1006F0009D00C0939C00ABCF8091A0008068809348
:10070000A0008091A0008F7B8093A000D093A900CF
:10071000C093A8009CCF8091A00080628093A0002D
:10072000D093AB00C093AA0092CF8091A0008860C4
:100730008093A000D093AD00C093AC0088CF80918F
:100740002001806880932001D0932901C093280163
:100750007ECF80912001806280932001D0932B0175
:10076000C0932A0174CF809120018860809320017A
:10077000D0932D01C0932C016ACFC038D1050CF065
:100780003ECF33CF8F929F92AF92BF92EF92FF9264
:100790000F931F93CF93DF93D82FC62F81112DC0B6
:1007A00061112BC089E0E82EF12C9DEC892E9CEC88
:1007B000992EA92C9DE3B92E20E030E0A901C501B6
:1007C000B4010E949C110E94B610062F10E0B801DF
:1007D00086E00E94EB02B80188E00E94EB022DEC5B
:1007E0003CEC4CEC5DE3C501B4010E94CC0F4B0125
:1007F0005C0181E0E81AF108F9F660E087E00E9408
:10080000450260E089E00E9445026D2F70E086E0BD
:100810000E94EB026C2F70E088E0DF91CF911F9176
:100820000F91FF90EF90BF90AF909F908F900C949E
:10083000EB023FB7F89480919C0290919D02A091A9
:100840009E02B0919F0226B5A89B05C02F3F19F0CC
:100850000196A11DB11D3FBFBA2FA92F982F882740
:10086000BC01CD01620F711D811D911D42E0660F1B
:10087000771F881F991F4A95D1F708957F928F920D
:100880009F92AF92BF92CF92DF92EF92FF920F931F
:100890001F93CF93DF938C01C62FD42F20910B028F
:1008A00030910C022115310539F080910A02813016
:1008B00089F0823009F482C0DF91CF911F910F91AE
:1008C000FF90EF90DF90CF90BF90AF909F908F9070
:1008D0007F900895F62E80910D02F81618F5CF2C12
:1008E000D12C8091100290911102F601EE0FFF1FA2
:1008F000E00FF11F91838083E0910B02F0910C02D5
:10090000EC0DFD1D61E080810E94BA02E0910B02B6
:10091000F0910C02EC0DFD1D61E080810E9445020A
:10092000FD0ED9CF83E290E00197F1F7F8940E9491
:1009300019044B01FC2E80910D02F81660F4E09131
:100940000B02F0910C02EF0DF11D60E080810E941E
:10095000BA02FD0EF0CF7894D12CC12C80911002F8
:1009600090911102C816D90608F0A6CFF8940E94FB
:1009700019046B01C818D9087C2E80910D027816D5
:10098000D8F4E72CF12CE0910B02F0910C02EE0D63
:10099000FF1D80810E941C02892B61F4EE0CFF1C5C
:1009A000F801EE0DFF1D80819181C816D90610F463
:1009B000D182C0827D0EE1CF7894D0CF862F9091E6
:1009C0000D02891750F4E82FF0E0EE0FFF1FE00F43
:1009D000F11F118210828D0FF2CF40E08091120240
:1009E0004817B0F59C2F80910D02981778F5E92FE4
:1009F000F0E0D901AE0FBF1F8C91863308F086530B
:100A000060917B00582F5870677F562B50937B0066
:100A10008770806480937C0080917A0080648093EA
:100A20007A0080917A0086FDFCCFA09178006091D9
:100A30007900EE0FFF1FE00FF11FB62F608171816B
:100A40006A0F7B1F718360839D0FCDCF4F5FC6CF31
:100A500080910D02C81708F02FCFEC2FF0E0EE0FB9
:100A6000FF1FE00FF11F6091120270E0CB0195951E
:100A7000879520813181820F931F0E94940F71838B
:100A80006083CD0FE5CFAF92BF92CF92DF92EF920E
:100A9000FF920F931F93CF93DF936C017B018B0128
:100AA000040F151FEB015E01AE18BF08C017D10778
:100AB00059F06991D601ED91FC910190F081E02D02
:100AC000C6011995892B79F7C501DF91CF911F9147
:100AD0000F91FF90EF90DF90CF90BF90AF9008956F
:100AE000FC01538D448D252F30E0842F90E0821B34
:100AF000930B541710F0CF96089501970895FC01B9
:100B0000918D828D981761F0A28DAE0FBF2FB11D10
:100B10005D968C91928D9F5F9F73928F90E0089568
:100B20008FEF9FEF0895FC01918D828D981731F022
:100B3000828DE80FF11D858D90E008958FEF9FEF76
:100B40000895FC01918D228D892F90E0805C9F4F4C
:100B5000821B91098F739927089580EA92E00E9481
:100B6000A10521E0892B09F420E0822F0895FC01E2
:100B7000A48DA80FB92FB11DA35ABF4F2C91848DFE
:100B800090E001968F739927848FA689B7892C935B
:100B9000A089B1898C91837080648C93938D848DAE
:100BA000981306C00288F389E02D80818F7D8083B1
:100BB0000895EF92FF920F931F93CF93DF93EC0171
:100BC00081E0888F9B8D8C8D98131AC0E889F989F4
:100BD000808185FF15C09FB7F894EE89FF896083F7
:100BE000E889F98980818370806480839FBF81E078
:100BF00090E0DF91CF911F910F91FF90EF900895BA
:100C0000F62E0B8D10E00F5F1F4F0F731127E02E94
:100C10008C8D8E110CC00FB607FCFACFE889F989CC
:100C2000808185FFF5CFCE010E94B705F1CFEB8D16
:100C3000EC0FFD2FF11DE35AFF4FF0829FB7F894A0
:100C40000B8FEA89FB8980818062CFCFCF93DF93BE
:100C5000EC01888D8823B9F0AA89BB89E889F989D4
:100C60008C9185FD03C0808186FD0DC00FB607FC09
:100C7000F7CF8C9185FFF2CF808185FFEDCFCE013C
:100C80000E94B705E9CFDF91CF91089580E090E011
:100C9000892B29F00E94AD0581110E94000080E09F
:100CA00090E0892B49F080E090E0892B29F00E94A8
:100CB000000081110E94000080E090E0892B49F043
:100CC00080E090E0892B29F00E94000081110E94B1
:100CD000000080E090E0892B49F080E090E0892BD3
:100CE00029F00E94000081110C9400000895CF9219
:100CF000DF92EF92FF92CF93DF93C82F809116027D
:100D0000882369F08C2F0E941C02019741F460E057
:100D10008C2F0E9445028BEB92E10197F1F761E085
:100D20008C2F0E9445020E9419046B0180911602CB
:100D30008823A9F080911702882389F0F894D0E0E5
:100D400080911702D81750F460E08C2F0E94450262
:100D500061E08C2F0E944502DF5FF2CF7894C601DC
:100D6000DF91CF91FF90EF90DF90CF9008950F9398
:100D70001F93CF93DF93C82F882359F180911502D9
:100D8000823029F1D0E0809115028230D1F5CD7FFB
:100D9000C1F5809114028F3FA1F190911602992321
:100DA00061F1809114020E9477068C0180911602F5
:100DB000882371F1C3E2D0E00E941904601B710B1B
:100DC0006C32714000F5CE010197F1F7F5CFC130DB
:100DD000C9F6809113028F3FA9F2909116029923D0
:100DE00039F0809113020E9477068C01D1E0CBCFBD
:100DF0000E941C02892BA9F3C5CF0E941C02892BDB
:100E000081F2D111D3CFDF91CF911F910F9108952E
:100E10008BE193E00197F1F7F6CFFC010190002000
:100E2000E9F73197AF01481B590BBC0180EA92E00A
:100E30000C9443058F929F92AF92BF920F931F9392
:100E4000CF93DF93CDB7DEB7A1970FB6F894DEBF8F
:100E50000FBECDBF19A2423008F44AE08E010F5DEB
:100E60001F4F842E912CB12CA12CA50194010E941E
:100E7000630FE62FB901CA01EA30F4F4E05DD8014E
:100E8000EE938D01232B242B252B79F790E080E026
:100E9000109719F0CD010E940D07A1960FB6F89496
:100EA000DEBF0FBECDBFDF91CF911F910F91BF90DD
:100EB000AF909F908F900895E95CE1CFCF92DF9241
:100EC000EF92FF92CF93DF936B017C016DE280EA9A
:100ED00092E00E94D905EC0166277727CB016C19B7
:100EE0007D098E099F094AE00E941A078C0F9D1FF9
:100EF000DF91CF91FF90EF90DF90CF900895BC01EC
:100F0000990F880B990B4AE00C941A074F925F9245
:100F10006F927F928F929F92AF92BF92CF92DF9209
:100F2000EF92FF920F931F93CF936B017C01742E6E
:100F3000AC019B010E940912882399F082E392E0A0
:100F4000CF911F910F91FF90EF90DF90CF90BF90C6
:100F5000AF909F908F907F906F905F904F900C9488
:100F60000D0746015701E894B7F82FEF3FEF4FE721
:100F70005FE7C501B4010E94091281110DC02FEF76
:100F80003FEF4FE75FE7C501B4010E943810181624
:100F90001CF486E392E0D4CF2FEF3FEF4FE75FE4FE
:100FA000C701B6010E94971118161CF48AE392E05B
:100FB000C7CF2FEF3FEF4FE75FECC701B6010E94AD
:100FC000381087FDF3CF20E030E0A901C701B6015A
:100FD0000E94381010E000E087FF0AC06DE280EA4E
:100FE00092E00E94D9058C01F7FAF094F7F8F0949A
:100FF000C0E060E070E080E09FE37C1641F020E01C
:1010000030E040E251E40E943D10CF5FF6CFA701EF
:1010100096010E94CC0F2B013C010E94B6104B019F
:101020005C014AE00E941A077C01E00EF11ECC230D
:10103000C1F1C501B4010E94E5109B01AC01C301DF
:10104000B2010E94CB0F4B015C016EE280EA92E09C
:101050000E94D905E80EF91EC15018F120E030E0D9
:1010600040E251E4C501B4010E949C112B013C01F6
:101070000E94B6104B01B12CA12C4AE0C501B4016D
:101080000E941A07E80EF91EC501B4010E94E5107E
:101090009B01AC01C301B2010E94CB0F4B015C016B
:1010A000DBCFC701CF911F910F91FF90EF90DF90A1
:1010B000CF90BF90AF909F908F907F906F905F90F8
:1010C0004F9008958F929F92AF92BF92CF92DF92EE
:1010D000EF92FF920F931F93CF93DF93CDB7DEB7BD
:1010E000C85FD1090FB6F894DEBF0FBECDBF8C012B
:1010F000D62EDC018C91811157C01396ED90FC9097
:1011000060910D0270E0660F771FC7010E943313D4
:10111000F80194838383892BB9F4C7010E94AA1232
:10112000C850DF4F0FB6F894DEBF0FBECDBFDF91C2
:10113000CF911F910F91FF90EF90DF90CF90BF90D4
:10114000AF909F908F900895E180F28060910D02A2
:1011500070E0660F771FC7010E943313AC01F801DE
:101160009283818390E041155105B9F280910D027F
:101170009817B8F4292F30E0220F331FD8011396A7
:10118000ED91FC91E20FF31F118210826091100229
:1011900070911102240F351FF901718360839F5FE5
:1011A000E5CF81E0D8018C93C12C43E2E42EF12CF1
:1011B000B1E0DB1638F0E2E0ED15D0F5F3E0DF1634
:1011C00009F46DC061E080E00E94730241E060E0DC
:1011D000CE0185549F4F0E943E04A0900D024E0107
:1011E0008FE3880E911CFE01E358FF4F9E012554AA
:1011F0003F4FB12CAF01AB1409F4A1C0D9018D91BF
:101200009D919D01CC2009F492C060817181681785
:10121000790708F48CC0D4016D917C9186179707EB
:1012200008F489C0B394B2E08B0E911C3296E3CFE0
:1012300080E00E94B70641E060E0CE0185549F4FF8
:101240000E943E0461E080E00E947302A2E0DA1294
:10125000C4CF41E060E0CE0101960E943E0470914F
:101260000D022091100230911102FE01E554FF4F52
:10127000DE01119660E0761709F4AFCF4D915D91D4
:1012800080819181820F931F841B950B281739074A
:1012900008F44AC0918380836F5F3296ECCF60E0A0
:1012A00082E00E9473020E9419044B0181E00E94B7
:1012B000B70680911602882359F00E941904681914
:1012C0007909603B744020F4C7010197F1F7F5CF2D
:1012D00042E060E0CE0185549F4F0E943E0460E0F2
:1012E00081E00E9473020E9419044B0182E00E9477
:1012F000B70680911602882359F00E9419046819D4
:101300007909603B744020F4C7010197F1F7F5CFEC
:1013100042E061E0CE0185549F4F0E943E0461E0AF
:1013200080E00E94730259CF31832083B5CF91832F
:101330008083C11070CFD4018D939C9373CFC394DD
:10134000EAE0CE1235CF20E080910D02281708F098
:10135000E7CE822F90E0880F991FE1E0F0E0EC0FDC
:10136000FD1FE80FF91F66AD77ADD8011396ED911B
:10137000FC91E80FF91FA081B181A617B70710F4FF
:1013800071836083FA01E80FF91F60817181D801D0
:101390001196ED91FC91E80FF91F808191816817FA
:1013A000790710F4718360832F5FCECF1F920F9265
:1013B0000FB60F9211242F933F938F939F93AF9368
:1013C000BF938091980290919902A0919A02B09156
:1013D0009B023091970223E0230F2D3758F5019699
:1013E000A11DB11D209397028093980290939902BA
:1013F000A0939A02B0939B0280919C0290919D02CF
:10140000A0919E02B0919F020196A11DB11D8093F3
:101410009C0290939D02A0939E02B0939F02BF9165
:10142000AF919F918F913F912F910F900FBE0F9091
:101430001F90189526E8230F0296A11DB11DD2CF4B
:101440001F920F920FB60F9211240BB60F922F938B
:101450003F934F935F936F937F938F939F93AF933C
:10146000BF93EF93FF9380EA92E00E94B705FF914C
:10147000EF91BF91AF919F918F917F916F915F910C
:101480004F913F912F910F900BBE0F900FBE0F9079
:101490001F9018951F920F920FB60F9211240BB642
:1014A0000F922F938F939F93EF93FF93E091B0024E
:1014B000F091B1028081E091B602F091B70282FD15
:1014C0001DC090818091B9028F5F8F732091BA0205
:1014D000821741F0E091B902F0E0E056FD4F958FA0
:1014E0008093B902FF91EF919F918F912F910F906F
:1014F0000BBE0F900FBE0F901F9018958081F2CFFA
:10150000CF92DF92EF92FF920F931F93E82FF92F64
:1015100005C0015011092109310961F1908196231B
:101520009417B9F305C0015011092109310911F1CE
:10153000908196239413F7CFC12CD12CE12CF12C60
:101540000AC08FEFC81AD80AE80AF80A0C151D0558
:101550002E053F0579F080818623841791F36C2D49
:101560007D2D8E2D9F2D1F910F91FF90EF90DF907D
:10157000CF90089560E070E080E090E01F910F91BF
:10158000FF90EF90DF90CF900895E0EAF2E01382B1
:10159000128288EE93E0A0E0B0E084839583A68376
:1015A000B78384E292E09183808385EC90E0958715
:1015B000848784EC90E09787868780EC90E0918B1D
:1015C000808B81EC90E0938B828B82EC90E0958B0A
:1015D000848B86EC90E0978B868B118E128E138E07
:1015E000148EEDE3F3E086E1808387E1818380E977
:1015F00091E093838283148215821682178261E0C0
:1016000086E10E94BA0260E087E10C94BA02789405
:1016100084B5826084BD84B5816084BD85B58260F7
:1016200085BD85B5816085BD80916E0081608093A8
:101630006E00109281008091810082608093810011
:101640008091810081608093810080918000816021
:10165000809380008091B10084608093B10080917C
:10166000B00081608093B00080919100826080938F
:101670009100809191008160809391008091900011
:101680008160809390008091A10082608093A1008E
:101690008091A10081608093A1008091A000816071
:1016A0008093A0008091210182608093210180912C
:1016B00021018160809321018091200181608093CC
:1016C000200180917A00846080937A0080917A0072
:1016D000826080937A0080917A00816080937A00A2
:1016E00080917A00806880937A001092C1000E94F5
:1016F0008D0161E087E00E94BA0261E089E00E940A
:10170000BA0261E086E00E94BA0261E088E00E94CD
:10171000BA020E948D0182E080930A028FEF93E06B
:101720009093110280931002C0910B02D0910C0291
:1017300063E070E0CE010E943313FC0190930C0231
:1017400080930B02892B09F4B9C086E3808387E379
:10175000818388E3828383E080930D0210920002EC
:10176000109205020E9419044B015C0134EFC32E54
:10177000DD24D394E12CF12C0E9419046819790915
:101780008A099B09683E734081059105A8F321E011
:10179000C21AD108E108F10838EE830E33E0931E37
:1017A000A11CB11CC114D104E104F10429F761E0CA
:1017B0008DE00E94BA0261E08DE00E944502C0E91E
:1017C000D1E061E080E092E00E9462082197C9F7D1
:1017D00060E08DE00E9445028EE392E00E940D07DA
:1017E0008EE492E00E940D070E948D0161E087E087
:1017F0000E94BA0261E089E00E94BA0261E086E0DC
:101800000E94BA0261E088E00E94BA0261E086E1CB
:101810000E94BA0260E087E10E94BA020E948D0134
:101820002AE5222E312C80910002882309F44AC037
:1018300080E00E94B70641E060E084E792E00E9409
:101840003E0461E080E00E94730200910D02C4E753
:10185000D2E0C0900302D0900402E0900102F09028
:10186000020210E0011771F1D601ED91FD916D01B9
:10187000D7018D919D917D01E81BF90BC9F028815D
:10188000398150E040E0281B390B41095109A8EE8D
:10189000B3E00E94580F9F0150E040E00E94390FD2
:1018A000293EB3E03B0714F028EE33E037FF02C0D7
:1018B00030E020E0299339931F5FD4CFCE010E94FE
:1018C000AA1250CFE0910D0204E712E0F12CE12CB6
:1018D000F0E050E040E0812C912C5401D12CEF1726
:1018E00009F1D8018D919D918D01C8EED3E0C81BFF
:1018F000D90BC93CD10598F4C333D10550F09E01F2
:10190000D7010E94C40F860E971EA81EB91E4C0F49
:101910005D1FFF5FB8E1EB1ABCEFFB0AE0CFDD24EF
:10192000D394EDCFD11003C2E150FF0B24EF31E08F
:10193000E29FC001E39F900DF29F900D1124209132
:101940001802309119022817390708F4FDC148EE32
:1019500053E0E49FC001E59F900DF49F900D11248A
:101960009C01A4EBB0E00E94850F20ED37E040E041
:1019700050E00E94390FC22F209396028BEA820F0B
:101980008B3008F0E4C181E380938A0280938B025C
:101990000E9419046B017C01809182029091830264
:1019A000A0918402B0918502A7019601281B390BF2
:1019B0004A0B5B0BCA01B9010E94E71020E034E238
:1019C00044E759E40E943D104B015C01C092820241
:1019D000D0928302E0928402F0928502B1016C1BE6
:1019E0007109072E000C880B990B0E94E7106B0100
:1019F0007C0120917E0230917F02409180025091C3
:101A000081020E94CB0FA50194010E943D102B0181
:101A10003C01A7019601C501B4010E949C112091CF
:101A20007A0230917B0240917C0250917D020E94AB
:101A3000CC0F4B015C0180927A0290927B02A092C3
:101A40007C02B0927D022DEC3CEC4CEC5CE3C301DB
:101A5000B2010E949C11A70196010E94CC0F2B019C
:101A60003C0120E030E0A901C501B4010E949C11B5
:101A70009B01AC01C301B2010E94CC0F60938602AE
:101A8000709387028093880290938902C0927E02AD
:101A9000D0927F02E0928002F092810290E080E09A
:101AA0000E947F078FE692E00E940D0760918602F8
:101AB00070918702809188029091890242E00E9491
:101AC00086076091860270918702809188029091CA
:101AD00089020E94AF109B01AC01265A3F4F4F4F25
:101AE0005F4FACE2B1E00E94580F24EB30E040E0E1
:101AF00050E00E94390FDA01C90186599109A10904
:101B0000B109909395028093940297FF3BC1919500
:101B100081959109C82F60E0825E0E94C203D0E0E7
:101B200063E26D0F83E28C0F0E94C2032FB7F8941B
:101B30008091980290919902A0919A02B0919B0293
:101B40002FBF9093930280939202845F91402091E3
:101B50009002309191022817390708F09FC060E089
:101B600080913D030E94450283E090E00197F1F7E8
:101B700061E080913D030E94450283E290E001977D
:101B8000F1F760E080913D030E94450260913F03C0
:101B90007091400390E080E00E94E51020E030E08A
:101BA00040E250E40E949C112AE23EE74CE05DE3F3
:101BB0000E943D100E94B6108B019C018091410350
:101BC00090914203A0914303B09144030097A10573
:101BD000B10539F080179107A207B30710F48C0103
:101BE0009D0180913E0390E0FC01EC5DFD4F64910E
:101BF000FC01E252FE4FE491F0E0EE0FFF1FEC53C8
:101C0000FE4F859194913F70462F0E94800A611586
:101C100071058105910529F06F5F7F4F8F4F9F4FB1
:101C20009F700E94E51020E030E040E05FE30E94FA
:101C30009C112AE23EE74CE05DE30E949C116B019F
:101C40007C0120E030E0A9010E943810882381F057
:101C500060913F037091400390E080E00E94E510A6
:101C60009B01AC01C701B6010E949711181634F40C
:101C7000C12CD12C80E8E82E8FEBF82EC0928C027C
:101C8000D0928D02E0928E02F0928F0280919202A9
:101C9000909193029093910280939002C0908C0255
:101CA000D0908D02E0908E02F0908F0220E030E024
:101CB00040E751E4C701B6010E94971118160CF0D5
:101CC0006CC020E030E040E85FEBC701B6010E9445
:101CD0003810882309F142E0C701B6010E94860747
:101CE00081E592E00E940D0760918B0270E090E028
:101CF00080E04AE00E941A0788E592E00E940D0702
:101D000060918A0270E090E080E04AE00E941A0749
:101D10008EE492E00E940D0780E592E00E940D079C
:101D20008EE492E00E940D070E9446067CCD9A0147
:101D300050E040E0C501B4010E94630FC901309337
:101D40001902209318020CCE90E080E009CE26EA1A
:101D50002C0F56E42502C001112427FF0AC066EAB1
:101D60007FEF0E94A80F6A5B60938B0210928A0239
:101D70000FCEB1010E94A80F6A5B60938A02109295
:101D80008B0206CED0E0009731F0D82F6EE1680FBD
:101D900080E00E94C203C0E0C3CE20E030E040E01B
:101DA00051E4C701B6010E94971118160CF0B4CF88
:101DB00020E030E040E85FEBC701B6010E94381038
:101DC000882309F4A9CF42E0C701B6010E94860723
:101DD0008EE592E00E940D0780918B02869590E03F
:101DE0000E947F0787E692E00E940D0760918A02B9
:101DF000669588CF809113028F3F31F060E00E949A
:101E0000BA028FEF80931302809114028F3F31F05A
:101E100060E00E94BA028FEF8093140210921502C4
:101E200080910B0290910C02009711F00E94AA126F
:101E30008091030290910402009711F00E94AA126F
:101E40008091080290910902009711F00E94AA1255
:101E50008091010290910202009711F00E94AA1253
:101E60008091060290910702009711F00C94AA123B
:101E70000895052E97FB1EF400940E94500F57FD05
:101E800007D00E94630F07FC03D04EF40C94500F50
:101E900050954095309521953F4F4F4F5F4F089596
:101EA00090958095709561957F4F8F4F9F4F0895C6
:101EB0000E94850FA59F900DB49F900DA49F800D4B
:101EC000911D11240895A1E21A2EAA1BBB1BFD012E
:101ED0000DC0AA1FBB1FEE1FFF1FA217B307E40709
:101EE000F50720F0A21BB30BE40BF50B661F771F61
:101EF000881F991F1A9469F7609570958095909541
:101F00009B01AC01BD01CF010895A29FB001B39F19
:101F1000C001A39F700D811D1124911DB29F700DF2
:101F2000811D1124911D0895AA1BBB1B51E107C0FF
:101F3000AA1FBB1FA617B70710F0A61BB70B881F59
:101F4000991F5A95A9F780959095BC01CD010895E8
:101F500097FB072E16F4009407D077FD09D00E9456
:101F6000940F07FC05D03EF4909581959F4F0895FE
:101F7000709561957F4F0895EE0FFF1F881F8BBFEF
:101F80000790F691E02D19940E94850FB7FF0895F0
:101F9000821B930B08955058BB27AA270E94E30F7A
:101FA0000C945D110E944F1138F00E94561120F0E0
:101FB00039F49F3F19F426F40C944C110EF4E0957B
:101FC000E7FB0C944611E92F0E946E1158F3BA17E3
:101FD000620773078407950720F079F4A6F50C943F
:101FE00090110EF4E0950B2EBA2FA02D0B01B90124
:101FF00090010C01CA01A0011124FF27591B99F07F
:10200000593F50F4503E68F11A16F040A22F232F8A
:10201000342F4427585FF3CF469537952795A795DA
:10202000F0405395C9F77EF41F16BA0B620B730B81
:10203000840BBAF09150A1F0FF0FBB1F661F771FF2
:10204000881FC2F70EC0BA0F621F731F841F48F4A7
:10205000879577956795B795F7959E3F08F0B0CF30
:102060009395880F08F09927EE0F97958795089517
:102070000E94221108F481E008950E9451100C94EE
:102080005D110E94561158F00E944F1140F029F442
:102090005F3F29F00C94461151110C9491110C944E
:1020A0004C110E946E1168F39923B1F3552391F3FB
:1020B000951B550BBB27AA2762177307840738F0B7
:1020C0009F5F5F4F220F331F441FAA1FA9F335D014
:1020D0000E2E3AF0E0E832D091505040E695001CC8
:1020E000CAF72BD0FE2F29D0660F771F881FBB1F82
:1020F000261737074807AB07B0E809F0BB0B802D60
:10210000BF01FF2793585F4F3AF09E3F510578F08B
:102110000C9446110C9491115F3FE4F3983ED4F374
:10212000869577956795B795F7959F5FC9F7880F5F
:10213000911D9695879597F90895E1E0660F771FB1
:10214000881FBB1F621773078407BA0720F0621B42
:10215000730B840BBA0BEE1F88F7E09508950E946D
:10216000B6106894B1110C94911108950E947611E3
:1021700088F09F5798F0B92F9927B751B0F0E1F048
:10218000660F771F881F991F1AF0BA95C9F714C0F8
:10219000B13091F00E949011B1E008950C9490112B
:1021A000672F782F8827B85F39F0B93FCCF3869531
:1021B00077956795B395D9F73EF49095809570958E
:1021C00061957F4F8F4F9F4F0895E89409C097FB0B
:1021D0003EF490958095709561957F4F8F4F9F4FFE
:1021E0009923A9F0F92F96E9BB279395F695879542
:1021F00077956795B795F111F8CFFAF4BB0F11F405
:1022000060FF1BC06F5F7F4F8F4F9F4F16C08823AB
:1022100011F096E911C0772321F09EE8872F762FE1
:1022200005C0662371F096E8862F70E060E02AF022
:102230009A95660F771F881FDAF7880F969587950E
:1022400097F90895990F0008550FAA0BE0E8FEEFE3
:1022500016161706E807F907C0F012161306E4076A
:10226000F50798F0621B730B840B950B39F40A2663
:1022700061F0232B242B252B21F408950A2609F441
:10228000A140A6958FEF811D811D089597F99F6745
:1022900080E870E060E008959FEF80EC08950024EE
:1022A0000A941616170618060906089500240A94BB
:1022B00012161306140605060895092E0394000C41
:1022C00011F4882352F0BB0F40F4BF2B11F460FFD0
:1022D00004C06F5F7F4F8F4F9F4F089557FD9058F9
:1022E000440F551F59F05F3F71F04795880F97FBDA
:1022F000991F61F09F3F79F0879508951216130694
:102300001406551FF2CF4695F1DF08C016161706C2
:102310001806991FF1CF86957105610508940895F7
:10232000E894BB2766277727CB0197F908950E9489
:10233000221108F48FEF08950E94AF110C945D11E3
:102340000E944F1138F00E94561120F0952311F091
:102350000C9446110C944C1111240C9491110E9470
:102360006E1170F3959FC1F3950F50E0551F629F5A
:10237000F001729FBB27F00DB11D639FAA27F00DDE
:10238000B11DAA1F649F6627B00DA11D661F829F05
:102390002227B00DA11D621F739FB00DA11D621FEA
:1023A000839FA00D611D221F749F3327A00D611D07
:1023B000231F849F600D211D822F762F6A2F1124E9
:1023C0009F5750409AF0F1F088234AF0EE0FFF1F1C
:1023D000BB1F661F771F881F91505040A9F79E3F73
:1023E000510580F00C9446110C9491115F3FE4F379
:1023F000983ED4F3869577956795B795F795E795C9
:102400009F5FC1F7FE2B880F911D9695879597F9D1
:1024100008950E942211880B990B08950F931F9322
:10242000CF93DF938230910510F482E090E0E09149
:102430004703F091480330E020E0B0E0A0E030979F
:1024400099F42115310509F44AC0281B390B2430B1
:102450003105D8F58A819B816115710589F1FB01F0
:1024600093838283FE0111C04081518102811381D7
:1024700048175907E0F04817590799F4109761F089
:1024800012960C93129713961C933296CF01DF91FC
:10249000CF911F910F910895009347031093480324
:1024A000F4CF2115310551F04217530738F0A90137
:1024B000DB019A01BD01DF01F801C1CFEF01F9CFC6
:1024C0009093480380934703CDCFFE01E20FF31FA3
:1024D000819391932250310939832883D7CF20915A
:1024E000450330914603232B41F420911C02309187
:1024F0001D02309346032093450320911A02309128
:102500001B022115310541F42DB73EB740911E0243
:1025100050911F02241B350BE0914503F0914603B7
:10252000E217F307A0F42E1B3F0B2817390778F0AA
:10253000AC014E5F5F4F2417350748F04E0F5F1F09
:102540005093460340934503819391939FCFF0E0CE
:10255000E0E09CCFCF93DF930097E9F0FC01329746
:1025600013821282A0914703B0914803ED0130E03D
:1025700020E01097A1F420813181820F931F2091D8
:102580004503309146032817390709F061C0F093DD
:102590004603E0934503DF91CF910895EA01CE17FA
:1025A000DF07E8F54A815B819E0141155105B1F7CE
:1025B000E901FB83EA8349915991C40FD51FEC17B8
:1025C000FD0761F4808191810296840F951FE901D6
:1025D00099838883828193819B838A83F0E0E0E002
:1025E00012968D919C9113970097B9F52D913C917E
:1025F0001197CD010296820F931F209145033091D0
:1026000046032817390739F6309751F510924803D9
:1026100010924703B0934603A0934503BCCFD383E6
:10262000C28340815181840F951FC817D90761F477
:102630004E5F5F4F88819981480F591F51834083B6
:102640008A819B81938382832115310509F0B0CF64
:10265000F0934803E09347039ECFFD01DC01C0CF18
:1026600013821282D7CF4F925F926F927F928F9296
:102670009F92AF92BF92CF92DF92EF92FF920F9311
:102680001F93CF93DF938C01009799F4CB01DF91D7
:10269000CF911F910F91FF90EF90DF90CF90BF905F
:1026A000AF909F908F907F906F905F904F900C9421
:1026B0000E12FC01E60FF71F9C0122503109E217B0
:1026C000F30708F4AEC0D901CD91DC911197C6177C
:1026D000D70720F1C530D10578F0CE0104978617D1
:1026E000970750F0C61BD70B2297C193D1936D93D8
:1026F0007C93CF010E94AA12C801DF91CF911F9154
:102700000F91FF90EF90DF90CF90BF90AF909F9090
:102710008F907F906F905F904F9008955B01AC1AFF
:10272000BD0A4C018C0E9D1EA0914703B091480339
:10273000512C412CF12CE12C109731F5809145035F
:10274000909146038815990509F05CC04616570616
:1027500008F058C080911A0290911B02009741F432
:102760008DB79EB740911E0250911F02841B950B9E
:10277000E817F90708F055C0F0934603E0934503C6
:10278000F90171836083B8CF8D919C911197129656
:102790006C90129713967C901397A815B90559F56C
:1027A0006C0142E0C40ED11CCA14DB0420F1AC0160
:1027B0004A195B09DA011296159780F062827382DA
:1027C00051834083D9016D937C93E114F10471F03E
:1027D000D7011396FC93EE9312978ECF22968C0F0F
:1027E0009D1FF90191838083F301EFCFF09348039C
:1027F000E093470381CF4816590608F42C017D0168
:10280000D3019ACFCB010E940E127C01009749F0B0
:10281000AE01B8010E941414C8010E94AA128701D7
:102820006BCF10E000E068CFFB01DC0102C001903B
:102830000D9241505040D8F7089511E0C9E5D1E01C
:1028400000E006C0802FFE010E94BC0F2196011DF2
:0E285000CA35D10780E00807A9F7F894FFCF3A
:10285E000000000000000000000000000000C4099D
:10286E00C40904FFFF0001000000000049038000BE
:10287E0000000000D905430570052606A1057F0559
:10288E0093056E616E00696E66006F766600515438
:10289E005220536574757020446F6E652E000D0ABC
:1028AE0000526967687420004C6566742000526996
:1028BE00676874203D20002D204C656674203D20F5
:0228CE00000008
:00000001FF
